:10000000B80A00208D0A0000952E0000050A0000A5
:10001000050A0000050A0000050A0000050A0000A4
:10002000050A0000050A0000050A0000FD0800009E
:10003000050A0000050A0000A90800007F2E000044
:100040004D0A00004D0A00004D0A00004D0A000054
:100050004D0A00004D0A00004D0A00004D0A000044
:100060004D0A00004D0A00004D0A00004D0A000034
:100070004D0A00004D0A00004D0A00004D0A000024
:100080004D0A00004D0A00004D0A00004D0A000014
:100090004D0A00004D0A00004D0A00004D0A000004
:1000A0004D0A00004D0A00004D0A00004D0A0000F4
:1000B0004D0A00004D0A00004D0A00004D0A0000E4
:1000C0004D0A00004D0A00004D0A00004D0A0000D4
:1000D0004D0A00004D0A00004D0A00004D0A0000C4
:1000E0004D0A00004D0A00004D0A00004D0A0000B4
:1000F0004D0A00004D0A00004D0A00004D0A0000A4
:1001000053B94AB9002908BF00281CBF4FF0FF317E
:100110004FF0FF3000F074B9ADF1080C6DE904CE7A
:1001200000F006F8DDF804E0DDE9022304B07047D2
:100130002DE9F047089E04468846002B40F0858054
:100140008A42154648D9B2FA82F24AB1C2F1200772
:1001500001FA02F320FA07F7954047EA03089440B2
:100160004FEA154E230CB8FBFEF71FFA85FC0EFB79
:10017000178843EA084307FB0CF1994209D9EB18A9
:1001800007F1FF3080F0E380994240F2E080023FC7
:100190002B445B1AA4B2B3FBFEF00EFB103344EA0F
:1001A000034400FB0CFCA44509D92C1900F1FF33D2
:1001B00080F0CB80A44540F2C88002382C4440EA4D
:1001C0000740A4EB0C0400271EB1D4400023C6E96D
:1001D00000433946BDE8F087002A53D0B2FA82F2D4
:1001E000002A40F0B680491B4FEA154E1FFA85F8E9
:1001F0000127B1FBFEFC230C0EFB1C1143EA01435B
:1002000008FB0CF1994207D9EB180CF1FF3002D230
:10021000994200F2EC808446591AA3B2B1FBFEF079
:100220000EFB101443EA044408FB00F8A04507D96C
:100230002C1900F1FF3302D2A04500F2DC801846F1
:10024000A4EB080440EA0C40BEE78B4208D9002E1C
:1002500078D00027C6E9000138463946BDE8F08766
:10026000B3FA83F77FB98B4202D3824200F2BD809A
:10027000841A61EB030301209846002EA9D0C6E939
:100280000048A6E7FFDEC7F12005BB4022FA05FCC7
:100290004CEA030C01FA07F420FA05F821FA05F3F9
:1002A0004FEA1C4E48EA0404B3FBFEF9210C0EFB96
:1002B00019331FFA8CF841EA034309FB08FA9A45FF
:1002C00002FA07F200FA07F10BD91CEB030309F15C
:1002D000FF3080F088809A4540F28580A9F10209BC
:1002E0006344A3EB0A03A4B2B3FBFEF00EFB10338E
:1002F00044EA034400FB08F8A04508D91CEB0404B9
:1003000000F1FF336BD2A04569D90238644440EA5A
:100310000940A4EB0804A0FB02894C45C6464B46A5
:1003200054D351D0002E69D0B1EB0E0264EB03041C
:1003300004FA05F522FA07F3FC401D43C6E9005410
:10034000002746E73746304643E7184637E7074673
:100350001FE7C2F1200320FA03F7954001FA02F0EB
:1003600021FA03F34FEA154E3843010CB3FBFEF7B5
:100370001FFA85F80EFB173341EA034107FB08F328
:100380008B4204FA02F407D9691807F1FF3C28D21E
:100390008B4226D9023F2944CB1A81B2B3FBFEF02F
:1003A0000EFB103341EA034100FB08F38B4207D9EF
:1003B000691800F1FF3C10D28B420ED90238294453
:1003C000C91A40EA074714E74145ABD2B8EB020E21
:1003D00069EB0C0201381346A4E76046F0E71846C3
:1003E00095E76746D8E781467BE7384645E7ACF1B5
:1003F000020C2B4410E702382C4421E73746E8E68C
:10040000704700BF0B6801330B60014B1B68184736
:10041000F81300202DE9F04F85B09B460E9CDFF8C5
:100420008890012CB8BF0124012B0CBF302320235E
:10043000164682468846029301250A270022B6FB0B
:10044000F9F301930AB9B1451DD8019B414603F167
:100450003000D04701350122019B013F012F09FBEC
:1004600013664FF00A03B9FBF3F9E8D1414606F1F0
:100470003000D047BBF1030F02D1641B002C0EDC0F
:1004800005B0BDE8F08FBC42E6DBBBF1020FE3D85C
:100490004146029803920135D047039ADCE7414672
:1004A0002020D047013CE9E700CA9A3B014B186085
:1004B000704700BFF813002007B5002301930246E0
:1004C0000B46034801A902F055FA03B05DF804FB9E
:1004D000050400000A2838B50446074D04D12868F1
:1004E00043680D215B68984728684368E1B25B6800
:1004F0009847204638BD00BF0800002010B5044CC6
:10050000204600F095FC2046BDE81040FFF7CEBF26
:10051000D504000008B5044801F002F9034B186047
:10052000FFF7ECFF002008BD8C370000080000201A
:10053000164B07B51A6882B14FF08042D2F80423F7
:10054000D1070AD500221A601B6811480093009B4E
:100550008368597A09B902F0A3FB0E4B1A688AB175
:100560004FF08042D2F8042392070BD500221A6084
:100570001B680193019B0648012103B05DF804EB61
:1005800002F08EBB03B05DF804FB00BF0001004029
:10059000A4140020040100400D4B0022C3F84021A8
:1005A0004FF02002EFF3118182F31188BFF36F8FB8
:1005B000084AD3F804051368C01A20F07F400344AA
:1005C000136081F31188BFF36F8F01F065BF00BF27
:1005D000001001402400002073B5184801F0A0F875
:1005E00048B34368164D1B68012198470024012633
:1005F0004FF48033C5F80845C5F84065C5F80433A5
:1006000003F1804303F58A534FF400321C601B68EA
:100610000193019B0B4B3146C3F8802111202246E8
:1006200000F08CF9112000F079F9074B20461E608C
:100630002E6002B070BD4FF0FF30FAE79337000034
:100640000010014000E100E008100140F0B5254E27
:10065000B0F1FF3F08BF30464FF02003EFF31185A4
:1006600083F31188BFF36F8F1F49204BD1F80445E6
:100670001B68E21A22F07F47120219D4421E22EAB6
:10068000E272B242A8BF3246781C1044B04294BF16
:1006900018189819041B24F07F4420F07F43022C83
:1006A000C1F8403506D985F31188BFF36F8FF0BDCF
:1006B0000022E9E7D1F804350D4AC31A23F07F433D
:1006C0005C1E944205D90B4B4FF40032C3F8002155
:1006D000E9E7012B02BF023020F07F40C1F840055E
:1006E000E1E700BFFEFFFF000010014024000020F2
:1006F000FEFF7F0000E100E04FF02002EFF31183E6
:1007000082F31188BFF36F8F064AD2F80405064AB8
:100710001268801A20F07F4083F31188BFF36F8F37
:10072000704700BF0010014024000020014801F084
:100730006DBF00BF6836000008B530B143683BB1FB
:10074000006801F0E9F9002008BD6FF4E040FBE724
:100750000048F9E7EA8FFFFF38B5044618B90B4B9C
:100760000B485B689847656855B115F0020520682D
:1007700007D10146074801F02FF925600023636087
:1007800038BD1422002102F0CAFBF7E73414002020
:10079000A33700002800002010B5044618B9134BF9
:1007A00013485B6898476368BBB92368ABB94FF0DF
:1007B000FF3221460F4801F0E3F808B923681BB95E
:1007C0000A4B0D485B68984714220021206802F00C
:1007D000A6FB636843F002036360206802F038FD03
:1007E000636843F00103636010BD00BF3414002050
:1007F000A337000028000020C937000008B558B111
:10080000436863B100684FF0FF3101F013F9054B05
:10081000002818BF184608BD6FF4E040FBE7024807
:10082000F9E700BFE98FFFFFEA8FFFFF08B5064930
:1008300006484023142202F0F0FC05490548BDE8B3
:10084000084001F01FBF00BF440000202800002026
:10085000803600007036000004488168406A884293
:1008600003D003494FF080520A6070475C060020B5
:1008700004ED00E0094A0A49936809689966094944
:1008800058664B6843F080534B60002383F3118814
:10089000BFF36F8F9368986E704700BF5C060020AF
:1008A0000837000000ED00E012498A684FF0280088
:1008B0001044EFF3098C80E8F01F202080F31188AA
:1008C000BFF36F8F0C4F4FF000664A6A8A603E603C
:1008D000506E0023536680F3118804B5104602F071
:1008E000E0FABDE8044002F1280090E8F01F8CF324
:1008F000098870475C06002004ED00E01EF0040F3C
:100900000CBFEFF30880EFF30980816911F8021C36
:100910000229FFD001B502F0B9FA01BD43B2002BA4
:1009200008DB012200F01F0002FA00F05B09024A16
:1009300042F82300704700BF00E100E043B2002B03
:10094000A8BF03F1604301F101014FEA4111AEBFBD
:1009500003F5614300F00F00034BC9B2ACBF83F84D
:1009600000131954704700BF14ED00E073B51E4624
:100970000A9B00938C18099B054602F0FEFCA4F12B
:1009800020030A4A23F0070322F001029A61069A23
:100990005A60079A9A60089ADA604FF080721E6077
:1009A000DA61AB6400236B6602B070BD6F2C00008F
:1009B000F8B505460C4617461E4600F079F90A4B75
:1009C0003C4428469D6024F0070402F06AFA304651
:1009D00084F30988002163B681F31188BFF36F8F18
:1009E0000022002302F043F95C0600200149102296
:1009F0000A60704710ED00E0404080F3118830BF7E
:100A0000704700BFEFF30880EFF30981724601B52C
:100A100000F0A0F801BD00BF30BFFFF7FDBF00BF71
:100A200008B5084B084A23F07F039360BFF34F8F4C
:100A3000BFF36F8F00F0B4FE00F0BCFE00F006F9CB
:100A400000F0F6FE0000000000ED00E001B572B617
:100A50000B4A106A00281EBF0021116202F0DBFB66
:100A600062B6EFF30580A0F110004FEAC00005491F
:100A7000014409C99847BDE80140034908470000FF
:100A80005C0600202C3400005908000002F06CFACB
:100A9000202080F3118808484FF40061401880F34B
:100AA0000988EFF314800221084380F31488BFF310
:100AB0006F8FFFF7B5FF0000F80B00200C4B9A6A10
:100AC0009A6A9A6A920708D55A6B9A6A120604D5EE
:100AD00018B19A6A22F080029A62054B9A6A9A6A61
:100AE0009A6A9A6A002042F0FF029A620870704780
:100AF00000ED00E00D4B9A6A9A6A9A6A920508D551
:100B00009A6B9A6A120404D518B19A6A22F40042C8
:100B10009A62064B9A6A9A6AD20558BF9A6A9A6A8A
:100B2000002042F47F429A620870704700ED00E0B6
:100B3000074B9A6A9A6A9A6A9A6A9A6A9A6A9A6A47
:100B40006FEA02426FEA12429A620020704700BFC9
:100B500000ED00E070B5364B5B688AB0C3F3080364
:100B6000002585F31188BFF36F8F02F07F44B4F145
:100B70007F4F12D102F00C04082C0ED014074EBF88
:100B80000E46064601250022033B8DF80720032B65
:100B900047D8DFE803F0043E423B2E46F3E7244B00
:100BA000DA6A92073DD4DC6A14F0804408D0283316
:100BB0001B78EBB10DF107010120FFF77FFF044621
:100BC0009DF8073093B92022314602A802F07DF942
:100BD000099B45B3C3F3080222B96FEA53236FEAB6
:100BE0004323099302A9204602F04EF90AB070BDD2
:100BF000104B1B782BB10DF107010120FFF77AFF95
:100C0000DDE70D4B1C88A4B2002CD9D0FFF790FF74
:100C1000D5E70DF107010020CFE70DF10701002016
:100C2000ECE70024CCE723F4FF7323F00103D8E7BB
:100C300000ED00E029ED00E02AED00E0024A5369F2
:100C400043F010035361704700ED00E004480023B7
:100C50002021C2180133302B82F80013F9D17047DC
:100C600000E100E038B505464FF02003EFF31184B2
:100C700083F31188BFF36F8F01F024F90A4B9B684F
:100C8000AB420BD1094B5A68C2F3080212B9204695
:100C9000FFF7F0FD5A6842F080525A602046BDE8E6
:100CA000384002F0F0BA00BF5C06002000ED00E022
:100CB0001FB5084B0193084B0293084B039301ABFC
:100CC0000093074A074B0121684600F091F805B0F0
:100CD0005DF804FB000000200000000000000B068F
:100CE0000000002000000420F0B5204F00268E42B6
:100CF00001DB1046F0BD50F826C0DCF8044094B388
:100D00005BB104F1FF3E14EA0E0F1AD11F2C18D963
:100D1000DCF800501EEA050F13D1202CDCF800503F
:100D2000DCF808C0D2B20FD9B4F1004F0ED8013CA4
:100D3000B4FA84F4C4F11F046400072A4CEA0404E2
:100D400006D96FF01502D4E70824F6E73E24F4E74D
:100D500025F01F05154345F0100544F00104BA6065
:100D6000FD6001323C610136C1E700BF90ED00E05B
:100D7000034B05225A60BFF34F8FBFF36F8F70474D
:100D800090ED00E0BFF35F8F014B00225A60704787
:100D900090ED00E013490868082810B51ED8FFF749
:100DA000F1FF114C49680022904201F10C0105D17C
:100DB0000E4B1870FFF7DCFF002010BDA26051F849
:100DC0000C3C23F01F03134343F01003E36051F87E
:100DD000043C43F0010323610132E5E74FF0FF30AB
:100DE000EBE700BF9436000090ED00E0B406002071
:100DF00010B5034C01232278FFF776FF207010BD59
:100E0000B406002008B5084A00231278FFF76CFFEB
:100E100010F1160F03D0054B0022072800DD08BD96
:100E200098601A610130F8E7B406002090ED00E008
:100E3000014B1860704700BF1C1400204FF02003C6
:100E4000EFF3118283F31188BFF36F8F06490123FB
:100E5000C1F840354FF08041C1F8783582F31188F0
:100E6000BFF36F8F0020704700E001404FF08043D8
:100E7000C0B2C3F81C05BFF34F8F0549054BCA68C4
:100E800002F4E0621343CB60BFF34F8F00BFFDE776
:100E900000ED00E00400FA0570B5164800F040FCD3
:100EA000044618B96FF00405284670BD124800F0DA
:100EB00037FC05460028F5D006221049204602F0EE
:100EC00055F80028EED1284608220D4902F04EF8C8
:100ED00005460028E6D1636801461E6813220123F7
:100EE0002046B047636813225E68294601232046E6
:100EF000B047D9E7053800000C380000133800006F
:100F00001F38000008B5094B1A786AB90121197019
:100F100006200521FFF712FD0620FFF7FFFC044B1A
:100F20004FF00042C3F80423002008BDB50600209E
:100F3000006000401F2886BF074B00F01F004FF0E5
:100F4000A04303EB8003D3F8002722F4403242EAA7
:100F50000142C3F80027704700030050F7B503684B
:100F600087689B6801F01F050E464E491B79D1F832
:100F7000042345EA4315D2B2002303F5A27051F8C9
:100F80002000C0F30520854270D122FA03F0C0078B
:100F90006CD59A0002F1804202F5C042D2F81005E9
:100FA00020F00100C2F81005012202FA03F3C1F893
:100FB000083328460021FFF7BDFFB868F04010F065
:100FC000010051D0F868F04010F001004CD0786971
:100FD000F04010F0010455D0BB69F340DB0749D461
:100FE0003B69FA69F34022FA06F603F0010306F0C2
:100FF0000106B34214BF012602262A4C002101F546
:10100000A27354F8230010F0030035D18B0003F1D4
:10101000804303F5C0432D02D3F8102522F44F324C
:1010200022F44072C3F81025D3F8102505F47C553E
:1010300045EA0646164301F14002920092B202F1DF
:10104000804202F5C042C3F8106510601268019238
:10105000019AD3F8102542F00102C3F810250123AC
:1010600003FA01F1C4F8041303B0F0BD0133082BF7
:1010700083D19EE70326C0E701310829BFD16FF075
:101080001200F1E73B69FA69534023FA06F616F0BD
:10109000010F28460CBF03210221FFF74BFF20461A
:1010A000E2E700BF006000402DE9F84F0746856881
:1010B00003F47040B0F5804F1E463ED009DCB0F519
:1010C000805F3CD0B0F5405F3BD090B16FF0150031
:1010D00031E0B0F5E04F36D004DCB0F5A04FF5D1EB
:1010E000032006E0B0F5404F2FD0B0F5504FEDD1C2
:1010F000072006F44078B8F5807F28D0A8F5007462
:101100006342634106F0010C4FEA4C08012948EAAA
:101110000C0818BFD4B248EA0020DFF8B0A012BF14
:10112000A1464FF01F09002440EA83084FF0010B4D
:10113000A1450ED20020BDE8F88F0220D9E701209A
:10114000D7E70420D5E70520D3E70620D1E703231E
:10115000D8E73B689B681A7904F01F0343EA4213FF
:101160001F2BC6BF03F01F0352464FF0A04203F5EA
:10117000E073B10742F82380AB680BFA04F24CBF6E
:1011800013439343AB606B69B0064CBF1343934367
:101190006B61AB6971064CBF13439343AB612B6921
:1011A00070074CBF134393432B61EB6931064CBF6F
:1011B0001A4323EA0202EA6121463846FFF7CEFECF
:1011C0000028B8D10134E4B2B2E700BF00030050F8
:1011D000F0B5002685B0CDE90266284D2C685CB1DB
:1011E000274801F058FF0290264801F054FF039071
:1011F0002E602B680093009B234D0022012694460D
:10120000D5F8043306FA02F119421DD0910001F11C
:10121000804101F5C2410B68B3B102F5A27304AF7E
:1012200055F82330C1F800C0C3F3403007EB80000D
:10123000C3F3042350F8087C06FA03F33B4340F859
:10124000083C0B680193019B0132082AD8D102990E
:1012500011B10B4801F00AFF039911B1094801F0DF
:1012600005FF44B1064801F065FF064805B0BDE83A
:10127000F04001F05FBF05B0F0BD00BF7C610040F1
:10128000D4140020E014002000600040024BD3F88A
:101290008004C3F8800470470020004070B54B798B
:1012A000012B26D0032B21D110268B79032B1DD1A6
:1012B000CC792CB1012C19D103689B681B78ABB198
:1012C0000A7912B1022A11D10E220B6847F61225B3
:1012D000AB4262D029D8B3F5965F61D014D8B3F58C
:1012E000167F5FD007D8B3F5967F5ED06FF02200EF
:1012F00052E00026D9E7B3F5966F59D0B3F5166FD3
:10130000F4D14FF41D233BE0B3F5615F53D004D813
:10131000B3F5165FEAD1314B32E0B3F5964F4DD0BD
:10132000B3F5E14FE2D12E4B2AE0B3F5E13F47D0D0
:1013300011D84DF6C025AB4244D004D8B3F5164FB2
:10134000D4D1284B1CE0B3F5614F3ED0B3F5963FA6
:10135000CCD1254B14E0B3F5E12F38D008D8B3F544
:10136000613F36D0214DAB42C0D14FF0806307E0E2
:10137000B3F5612F2FD01E4DAB42B7D14FF0805344
:101380001C4D34432243C5F82435C5F86C258368C9
:1013900003C983E80300002070BD4FF40003EFE7AA
:1013A000154BEDE74FF41C33EAE74FF4A033E7E7C2
:1013B0004FF49E23E4E74FF46C13E1E70F4BDFE7B4
:1013C0000F4BDDE74FF46503DAE70E4BD8E70E4B22
:1013D000D6E70E4BD4E70E4BD2E700BF00502700F4
:1013E00000F0750000509D0000903A0190D003007D
:1013F00040420F000020004000B0130000A04E004B
:1014000000E0D70100F0EB0000705F0700B0AF0311
:1014100000D0BE0E084B1A6882B052B1002018608E
:101420001B680193019B054BD3F818350B7002B074
:1014300070474FF0FF30FAE70821004000200040DD
:10144000094B00221A6082B01A680192019A074A79
:1014500001201060C2F814151A68002AFCD0044B51
:1014600001221A6002B070471C2100400820004091
:101470000C2000404FF0A04373B52022164CC3F857
:101480000825002103220525C3F81427C3F80C17EB
:10149000C4F81425C4F80C55104D4FF48076C5F8E7
:1014A0000865C5F82027C3F81C172823C4F8083599
:1014B0000723C4F810358168FFF7F0FE48B904230C
:1014C000C4F80035064B18601B680193019B01238B
:1014D000236002B070BD00BF002000400003005038
:1014E000082100400A4B1B685A1C05BF094B0A4AD9
:1014F0000A4A10680ABF1B781068C0F30310082B53
:1015000004D103288CBF00200120704700207047C1
:1015100030010010E00F00F0E80F00F0340100107F
:10152000054B1868043B1B68082B06BFB0FA80F017
:1015300040090020704700BF3401001008B5FFF7D4
:10154000D1FF40B14FF080430022C3F80C21C3F813
:101550001021C3F83825FFF7C5FF002846D04FF00B
:101560008052584BD2F80414C3F82015D2F808144E
:10157000C3F82415D2F80C14C3F82815D2F81014A7
:10158000C3F82C15D2F81414C3F83015D2F8181477
:10159000C3F83415D2F81C14C3F84015D2F820143F
:1015A000C3F84415D2F82414C3F84815D2F8281407
:1015B000C3F84C15D2F82C14C3F85015D2F83014D7
:1015C000C3F85415D2F83414C3F86015D2F838149F
:1015D000C3F86415D2F83C14C3F86815D2F8401467
:1015E000C3F86C15D2F84424C3F87025FFF798FFB0
:1015F00010B1354B354A1A60FFF792FF18B1344BE2
:10160000FB22C3F81825FFF78BFF48B13149324B55
:101610000A681B6822F00F0203F00F0313430B60EC
:10162000FFF77EFF18B12D4B4FF400721A60FFF7E1
:1016300059FF48B14FF08043D3F80024D20744BF8C
:101640006FF00102C3F800244FF01023D3F80022FA
:10165000002A03DBD3F80432002B2FDA204B0122BF
:10166000C3F80425D3F80024002AFBD04FF0102241
:101670001221C2F80012D3F80024002AFBD04FF048
:1016800010231222C3F80422154B1A46D3F8001473
:101690000029FBD00021C3F80415D2F80034002B38
:1016A000FBD0BFF34F8F0F490F4BCA6802F4E062C3
:1016B0001343CB60BFF34F8F00BFFDE70B4B0C4ACA
:1016C0001A6008BD00C000408C56004048810300ED
:1016D00000F00040E40E0040580200104096024026
:1016E00000E0014000ED00E00400FA0528140020AD
:1016F0000090D003094B70B553F82040013000260C
:1017000053F82050A54200D870BD236820465B687E
:10171000984700B166600C34F4E700BFF43600006F
:10172000104B70B5104C05461E469C4204D10E4C21
:10173000B44209D1002412E062681AB1226812682A
:10174000AA420CD00C34F0E763680BB90C34EFE715
:1017500023682846196801F0ACFB0028F6D1204622
:1017600070BD00BF041500207414002008B50B4D97
:101770004FF02002EFF3118382F31188BFF36F8FD4
:1017800001F020FE012102280446D8BF084601F0DE
:1017900029FE2C62FFF730F9EAE700BF5C06002063
:1017A0000248034A0021121A01F0B9BB00000020D0
:1017B000B806002008B50648064A0749121A01F083
:1017C00084FB064A06490748BDE8084001F07DBB96
:1017D000F8130020681500207C380000000000008D
:1017E0007C3800000000002008B50C4B01220220CC
:1017F0001A70FFF77FFF0A4A0A490B4801F02AFADC
:101800000320FFF777FF00F071FD01F057F8074A5A
:10181000137B23F00103137308BD00BFB60600203D
:101820006E3800003B38000048380000F00500200A
:1018300080B5364BA2B083F30888354C354E6369CA
:1018400043F4007363610025E02384F82230E577D8
:1018500025766576A576636A43F4E0236362FFF735
:10186000EDF9FFF7C3F84FF0FF33A362E36207AB74
:101870006C222946184601F052FB274C0127A06034
:1018800028468DF82970FFF735FF3846FFF732FFFD
:1018900000F04AFC214B66624FF48062CDE904738C
:1018A000CDE902551E4B1F49CDE90055304600F0E9
:1018B000E5FC737B23F0040213F01B0F727304D159
:1018C000B36913B9304600F019FA174B174D059359
:1018D00001220F23CDE903320023CDE90133009328
:1018E0004FF4A072124B1349284600F0C7FC6B7BE3
:1018F000E56023F004036B730F4B0A490548C4E904
:1019000006334FF48062064BFFF752F8F8130020BD
:1019100000ED00E0F00500205C0600206F380000BC
:10192000E9170000B8060020743800008405002084
:101930006D170000B80A00207406002070B50E4B29
:101940000E4CA34201D3002070BDD3E9030141EA4C
:10195000000212F003020BD19D685A61AA4201D124
:101960001C33EEE75E690E60013259610144F5E710
:101970006FF01500E8E700BF0415002004150020F3
:1019800010B513460C464FF02002EFF3118182F39D
:101990001188BFF36F8F42695AB1226013684361A7
:1019A000836901338361002081F31188BFF36F8F56
:1019B0000DE01BB923606FF00B00F5E70246044809
:1019C00000F02EFB18B9034B9B685B69236010BDC8
:1019D000B70600205C06002070B504460D464FF0A7
:1019E0002003EFF3118683F31188BFF36F8F01F0AB
:1019F00097FC80B12A684261427B0021D206816651
:101A000003D183690BB900F079F931460848BDE884
:101A1000704001F02DBC2B6862691A602B6863610D
:101A2000A369013BA36186F31188BFF36F8F70BD7B
:101A3000B7060020F8B504460F464FF02003EFF339
:101A4000118583F31188BFF36F8FC26830495AB193
:101A500080688E68B04215D0B7B985F31188BFF39E
:101A60006F8F6FF00F000CE08B6893F90E302361DD
:101A700001328B68E260A36085F31188BFF36F8F3A
:101A80000020F8BD2369F2E790F90E3096F90E10A8
:101A90009942A8BF194621EAE17199422BDA00F078
:101AA00001FB06463B46224629461A4800F0B8FA92
:101AB0000028E6D04FF02003EFF3118583F311885F
:101AC000BFF36F8F236821699C4207D033B193F92C
:101AD0000E309942A8BF194621EAE171A06890F939
:101AE0000E30994209D16EB129460A4801F0C0FB77
:101AF0006FF00A00C5E70026D4E700F0D3FA00280B
:101B0000F2D1F0E785F31188BFF36F8FF0E700BFE4
:101B10005C060020B706002038B583680446002B19
:101B20003BD0214A926893423AD1DA7B013ADA7388
:101B3000C368012B05D0013BC36000F0C3F800204F
:101B400038BD4FF02003EFF3118583F31188BFF305
:101B50006F8F0169806890F90E30994201D000F0D2
:101B6000A1FA204601F0DCFBA06080B190F90E20C4
:101B7000226100228266427BD20603D183690BB9BF
:101B800000F0BCF82946094801F072FBD5E7E06097
:101B900085F31188BFF36F8FCFE76FF01500CFE7A4
:101BA0004FF0FF30CCE700BF5C060020B7060020F6
:101BB00010B5084C23685BB1FEF79EFD2368064A0A
:101BC0001844106100211846BDE8104001F00ABC1D
:101BD00010BD00BF940600205C060020F8B50D463D
:101BE0004FF02003EFF3118483F31188BFF36F8F5D
:101BF0000D4B4FF4004140F2E7360027E1FB006750
:101C000000221A6130464FF47A7200233946FEF7FB
:101C100077FA064B1860064B1D60FFF7C9FF84F387
:101C20001188BFF36F8FF8BD5C060020940600207A
:101C3000900600204FF02003EFF3118183F3118809
:101C4000BFF36F8F044B9A68D37B013BD37381F34F
:101C50001188BFF36F8F70475C060020094B03F1BA
:101C60002802824205D19B688B4202D14B7BDB0666
:101C700006D1D1E9003213605A600023C1E9003374
:101C8000704700BF5C06002038B50D4C024604F1D9
:101C9000280001F00EFB054600B9E568A3684AB9C3
:101CA0005A7BD20606D1AA6922B9DA897F2A01D9DC
:101CB000636238BD9D4201D0FFF77AFF6562F8E7A5
:101CC0005C06002010B54FF02003EFF3118483F37E
:101CD0001188BFF36F8F084B9A68D37B0133D3739E
:101CE0000020FFF7D1FF84F31188BFF36F8FBDE8A9
:101CF000104001F0D4BA00BF5C060020F8B54FF0E8
:101D00002003EFF3118483F31188BFF36F8F154A1B
:101D1000114651F8283F8B421DD0E3B1D66A90F9A5
:101D20000E5093F90E70AF4210DD5A68C0E90032D0
:101D300010605860437B63F07F0343730020FFF71C
:101D4000A3FF84F31188BFF36F8FF8BDB34202D0B5
:101D50001B68002BE5D1D36A4360D36A0160186029
:101D6000D062E7E75C060020F8B504464FF0200398
:101D7000EFF3118583F31188BFF36F8F90F90D3066
:101D8000002B03DA01461848FFF768FF174AD2E92B
:101D90000A3002F128018B421FD0F3B194F90E6092
:101DA00093F90E70B74213DD5968C4E900310C6035
:101DB0005C60637B906863F07F036373031B58422E
:101DC0005841FFF761FF85F31188BFF36F8FF8BDAE
:101DD000984202D01B68002BE2D1C4E90010D36AFC
:101DE0001C60D462E5E700BF840600205C0600208A
:101DF000154A164938B50C689368A342144603D1B6
:101E0000BDE83840FFF7D4BE00250D6010490968D1
:101E1000B9B1D9897F2914D80E4993F90E500968B0
:101E20008D420EDB0C498B420BD0996949B911697F
:101E3000814203DC1846FFF797FFE1E7091A1161B9
:101E400038BD00232361FBE75C0600208C060020E0
:101E500094060020900600208405002070B50446FA
:101E6000183001F099FA4FF02003EFF3118683F355
:101E70001188BFF36F8F94F90D30002B07DA2146DC
:101E80000E48FFF7EBFE637B03F07F0363730C4D9B
:101E9000637BA86843F010036373031B58425841E7
:101EA000FFF7F2FE86F31188BFF36F8FAB68A34292
:101EB00003D1BDE8704001F0F2B970BD8406002086
:101EC0005C060020036D70B5044603B1984704F129
:101ED000180001F061FA4FF02003EFF3118583F34E
:101EE0001188BFF36F8F204601F0B9F90646D8B1CB
:101EF00094F90D30002B07DA21461248FFF7AEFEA9
:101F0000637B03F07F0363730F4B9868021B50429F
:101F10005041FFF7B9FE637B43F00803637385F319
:101F20001188BFF36F8F70BD637B9B07F3D521468C
:101F3000A068FFF793FE637BA66023F00203637340
:101F4000E9E700BF840600205C06002038B504469F
:101F50004FF02003EFF3118583F31188BFF36F8FE8
:101F600090F90D30002B07DA01460948FFF776FE9D
:101F7000637B03F07F036373064B9868031B58422F
:101F80005841FFF781FE85F31188BFF36F8F38BD8D
:101F9000840600205C06002070B504460D461646F7
:101FA000FFF7D4FF637B43F0020363737DB12B68BB
:101FB000A5609D4229D043B394F90E2093F90E10E9
:101FC00091421CDD5A68C4E9003214605C60731CE5
:101FD00022D026EAE6764FF4004540F2E7300021B1
:101FE0004FF47A72C5FB06010023FEF789F80B490E
:101FF000421C04F11800BDE8704000F00BBA69689B
:102000008B4202D01B68002BD8D16B6863606B6871
:1020100025601C606C60DAE770BD00BFBF32000055
:1020200010B50C461146064A9068064A10601A46DA
:10203000FFF7B2FF2046BDE81040FEF71BBC00BF13
:102040005C0600208C060020F8B5461C01F0E4F97F
:1020500034184FF02003EFF3118783F31188BFF397
:102060006F8F0D4D0D4BA8681860FFF76FFFA868C4
:102070000B493246183000F0CDF9AA68537B43F083
:10208000100353733846FEF7F5FB01F0C5F9201A2B
:1020900020EAE070F8BD00BF5C0600208C0600203E
:1020A000BF3200002DE9F84304464FF02003EFF360
:1020B000118983F31188BFF36F8F01F0D0F84EB20E
:1020C000804660B3174D05F1280721463846FFF7D3
:1020D000C5FDAB6AA673BB422A4619D0C3B1E96AF3
:1020E00093F90E00B0420EDD5A68C4E90032146064
:1020F0005C600120FFF7C8FD89F31188BFF36F8F83
:102100004046BDE8F883994202D01B68002BE7D116
:10211000D36A6360D36A27601C60D462E9E7A67360
:10212000EAE700BF5C060020044B002103F128020F
:10213000C3E90A220846FFF751BD00BF5C06002034
:10214000F8B5234C234BA2689A4229D04FF02003C4
:10215000EFF3118683F31188BFF36F8F04F1280525
:10216000A1682846FFF77AFDA26AA368AA4228D090
:102170003AB3E06A93F90E1092F90E708F421BDDAC
:102180005168C3E900210B6053605A7B62F07F0203
:102190005A730120FFF778FD86F31188BFF36F8F24
:1021A0004FF02003EFF3118083F31188BFF36F8F9B
:1021B000BDE8F840FEF75EBB824202D01268002AFA
:1021C000DAD1E26A5A60E26A1D601360E362DCE71A
:1021D0005C0600208405002038B5431C044605D168
:1021E000104B986800F062F8204638BD4FF4004567
:1021F00040F2E7300021E5FB04014FF47A7200233E
:10220000FDF77EFF044648B9FFF79AFF4FF47A7056
:1022100084FB0001C40B44EA4144E5E7FFF714FFE7
:102220000446F3E75C060020014B9868704700BF46
:102230005C06002010B54FF02002EFF3118482F30A
:102240001188BFF36F8F427B510704D484F3118848
:10225000BFF36F8F10BD22F0040112F01B0F41730A
:1022600003D183690BB9FFF749FD21460248BDE858
:10227000104000F0FDBF00BFB706002030B587B0AA
:1022800004460E9D04950D9D03950C9D02950B9D96
:1022900001950A9D0095FEF769FB034B9B6803B10E
:1022A0001B6E236607B030BD5C06002038B50546BE
:1022B0004FF02003EFF3118483F31188BFF36F8F86
:1022C000FFF7CCFD074B9B68AB4205D12146064882
:1022D000BDE8384000F0CCBF84F31188BFF36F8FA6
:1022E00038BD00BF5C060020B70600202DE9F04F86
:1022F000284E294D87B0B046B54205F1300410D3C1
:10230000FFF798FC244CDFF894A04FF4004940F20A
:10231000E7360027444521D307B0BDE8F04FFFF76B
:10232000D1BC54F8043C059354F8103C049354F881
:10233000143C039354F8183C029354F81C3C01934A
:1023400054F8203C009354E90A2354E90C01FFF7A8
:1023500095FF54F8303CDD642546CDE7616A4B1C9F
:1023600004D0256821B92846FFF764FF3034D1E74F
:10237000B346BC46E9FB01BC4FF47A7200235846D1
:102380006146FDF7BDFE5146421C05F1180000F004
:1023900041F8EBE70415002004150020BF320000CF
:1023A000034B1B680BB9FEF7A7B90020704700BFAD
:1023B00098060020036840B1074A5268904204D052
:1023C0001BB19A6881680A449A60426813605A6037
:1023D0000023C0E9003370472C1400200B4B10B5CC
:1023E0001C689C4208BF0024FFF7DAFF54B1A368C1
:1023F000181A20EAE070064B1B6913B19842A8BF77
:10240000184610BD6FF00040F5E700BF2C14002007
:102410005C06002070B504461646C1604FF02003EC
:10242000EFF3118583F31188BFF36F8FFFF7B8FFC8
:10243000184B1A68012EACBF801901309A42A06077
:1024400001D05E6832B95A6862605A6823601460CD
:102450005C600AE09068A168884215DD411A9160CD
:102460005168C4E900210C6054601A689A4206D091
:10247000944204D1FFF7B2FF0021FEF7E7F885F39D
:102480001188BFF36F8F70BD091A9642A160DAD030
:102490001268D7E72C1400202DE9F04B0446FFF713
:1024A000A7FC4FF02003EFF3118583F31188BFF3EE
:1024B0006F8F214E214FDFF888903460B846D9F8ED
:1024C000004032684C45D7E900BC05D024B1A36870
:1024D000934214DD9B1AA3601BEB02004CEBE271EC
:1024E0000024C8E900013460FFF778FF2146FEF7B9
:1024F000ADF885F31188BFF36F8FBDE8F08B1BEB50
:1025000003004CEBE371D31A33600023C7E90001E9
:10251000A3602046FFF74EFF85F31188BFF36F8F4E
:10252000E36898474FF02003EFF3118583F3118898
:10253000BFF36F8FC3E700BF9806002000000020A4
:102540002C1400202DE918484FF02003EFF31184DC
:1025500083F31188BFF36F8FFEF7CEF8074BD3E9F3
:10256000002312EB000B43F1000C5846614684F344
:102570001188BFF36F8FBDE8188800BF00000020EE
:1025800038B5074C074DAC4201D3002038BD04F1EB
:1025900014032046C4E9053300F096F91C34F2E731
:1025A000041500200415002010B5094C23681BB148
:1025B00001232360002010BD00F080F80028F7D030
:1025C0000138062896BF034B034853F8200010BD7E
:1025D0009C0600200C370000FE8FFFFFBFF34F8FDB
:1025E0000549064BCA6802F4E0621343CB60BFF3AF
:1025F0004F8F00BFFDE700BF00ED00E00400FA05CB
:10260000014B5B68184700BF34140020D0E900126A
:10261000014BC3E90012704734140020704700BF1B
:1026200010B5044620B1BFF35F8F0020206010BDBD
:102630000348FFF7E5FFBFF35F8F0020206010BD68
:102640004C37000010B5044610B10023236010BDC4
:102650000248FFF7D5FF0023236010BD2837000094
:1026600070B10122BFF35B8F50E8003F40E80021CA
:102670000029F9D1BFF35B8F012BF3D0BFF35F8F3C
:102680000020704770B4D0E90065D0E90242094BE0
:10269000C3E90242C3E90065D1E90240D1E900651E
:1026A000054B0A691A61C3E90065C3E9024070BCC1
:1026B000704700BF3C1400204C14002010B500F0FF
:1026C00033F870B900F03AF880B900F0B5F880B985
:1026D000114B1B681B0EF02B0DD0062400F026F8C2
:1026E00000E0032400F058F8204610BD04242046E2
:1026F00010BD0024F2E7094A094B12689A4201D042
:102700000724EBE7012000F097F80028F1D1054BF2
:1027100004461860E8E700BF28B9025024BA025006
:102720000000E0200CBA02500020704700207047E3
:10273000014B1860704700BF04BA025010B5114831
:1027400000F048F800B110BD0F4800F043F8002831
:10275000F9D10E4C204600F03DF80028F3D10C4B87
:102760000C481C6000F036F801460028EBD100F060
:102770002DF8044608B1204610BD00F03FF8204671
:10278000FAE700BF6C1400206014002068140020D9
:10279000701400206414002008B5084800F024F8E4
:1027A000074800F021F8074800F01EF8064800F03E
:1027B0001BF8BDE8084000F00BB800BF6C14002007
:1027C000601400206814002064140020002070476A
:1027D000704700BF08B5034B02681B681068984734
:1027E000002008BD3C14002008B5034B02685B685C
:1027F00010689847002008BD3C14002070B5094CB3
:10280000094D2069AB68984718B1084B08485B68C8
:102810009847084AEB68206900211160BDE87040C4
:10282000184700BF4C1400203C1400203414002032
:102830006C370000B0060020F8B51A4C1A4D074658
:10284000AB6820699847E8B9184E33687FB93BB93F
:10285000174A18490120C2F800050A68002AFCD16D
:1028600001333360EB68206998470020F8BD002BE6
:10287000F8D0012B08D0013B33602069EB68984702
:102880000020F3E70C48F8BD0A4A1368002BFCD17E
:10289000074A6FF07E40C2F80035FFF749FF336802
:1028A000E9E700BF4C1400203C140020B0060020D3
:1028B00000A0025010B90250E98FFFFF08B542F2A4
:1028C0001070FFF789FCFAE72DE9F04F4668078999
:1028D000016890F80A80FF2306FB07FCC37261447D
:1028E000324600234FF00C09984505DC00231946B9
:1028F0008F4220DCBDE8F08FD0F80CA0BCFBF2F5D5
:1029000009FB03FE0AEB0E0404F1040B202DC4E9BD
:1029100001BB05D8C372920822F003020133E3E73A
:1029200015F11F0448BF05F13E0464114AF80E106A
:1029300001EB8401EFE7C268056802F1040CEC18B2
:1029400045F803C095686560956801312C60334493
:102950009460CDE70020704770B504460D464520D1
:10296000A04729465220A047294623465220BDE8C9
:10297000704018472DE9F04F8BB04FF00008064625
:102980000F4602921C464FF0FF3AC1464546029B55
:10299000187810B90BB0BDE8F08F45B9252800F0C4
:1029A0004B813946B047029B01330293EFE764281D
:1029B0006DD019D839280AD831285FD22D2800F0D7
:1029C000418130284BD0252807D1394632E158289B
:1029D00000F0BB80632800F02A8139462520B047EB
:1029E000029B3946187825E1702800F0A48011D8A0
:1029F00069284CD06C2805D1B8F16C0F2AD14FF062
:102A00004C08D0E76828E8D1B8F1680F22D14FF020
:102A10004808C8E7752872D018D87328DDD154F853
:102A2000045BAB465B461BF8010B002840F0FC80C2
:102A3000B9F1030F40F00C815D1BAAEB0505002DD9
:102A400049DD39462020B047013DF8E778287CD0A1
:102A50007A28C2D1B8F1000FBFD18046A3E7BAF1FE
:102A6000000F0EDAB9F1000F00F0EF80A0F1300A8C
:102A7000B9F1000F08BF4FF0020994E7BAF1000F57
:102A8000F4DB0A2303FB0A0AAAF1300AF0E7B8F1E3
:102A90007A0F02D154F8045B20E0B8F16C0FF9D042
:102AA000B8F14C0FF6D1073424F00704F4E8022300
:102AB00012F10041069143F100010791DDE906BCE6
:102AC00000214FF0FF30614508BF584505D2394617
:102AD0003046FFF741FF002565E71546002D05DA72
:102AE00039462D20B0476D420AF1FF3ACDF800A0DB
:102AF0004B462A4639463046FDF78CFCEBE7B8F1E9
:102B00007A0F02D154F8042B11E0B8F16C0FF9D010
:102B1000B8F14C0FF6D1073424F00704F4E802238F
:102B200000214FF0FF30994208BF9042CFD3CDF83B
:102B300000A04B46DEE739463020B04739467820C2
:102B4000B0474FF0080A4FF00109029B1B78702B29
:102B500004D154F8043B049300230DE0B8F16C0F4A
:102B6000F7D0B8F14C0FF4D1073424F007031C461A
:102B70005B6854F8082B0492002110220391059100
:102B80004FF0400BABF1040B0498CBF1200CABF1F0
:102B9000200120FA0BF003FA0CFC40EA0C0023FAA7
:102BA00001F1084310F00F0006D1059911B9BBF1EE
:102BB000000F22D1302103E009288CBF572130219A
:102BC000084440B2394608930592B047039B059AE2
:102BD00001330393089BBBF1000F23D1B9F1030F1D
:102BE0007FF479AF039BC3EB4A05002D7FF773AFEA
:102BF00039462020B047013DF7E7511E9245089124
:102C000007DBB9F1010F06D1099339463020B047EF
:102C1000099B089AB6E7B9F1020FFAD10993394630
:102C20002020F4E70595ADE73946B047FAE654F8B9
:102C3000040B3946B0474EE7A846A9464FF0FF3A85
:102C40000125B0E64FF00309ADE64FF00109AAE611
:102C50000546A8E60FB407B504A951F8040B019185
:102C6000FDF72AFC03B05DF804EB04B0704704469E
:102C700008B5084611461A46A047FFF7D5FAFDF7F2
:102C8000F1FF70478368C9B20C2202FB01314B7A15
:102C900023B9087AB0FA80F04009704702207047E3
:102CA00038B583680C2404FB0134012305466372A4
:102CB0004FF02003EFF3118183F31188BFF36F8F7F
:102CC00023682BB160681A682260834208BF626083
:102CD00081F31188BFF36F8F03B938BDD3E90121A8
:102CE00028469047E4E70368D0F808C02DE9F04192
:102CF00005469F68CEB24AB10C2373435CF803309B
:102D00009A425CD013B11B68002BF9D14FF020031D
:102D1000EFF3118083F31188BFF36F8F0C217143A0
:102D20000CEB01031C7A0134E4B21C7280F31188AD
:102D3000BFF36F8F32B34FF080404FF0030EC0F8F7
:102D400008E3587AA0B94FF0200EEFF311888EF304
:102D50001188BFF36F8F1060D3F804E0BEF1000F4D
:102D600020D15A604CF8012088F31188BFF36F8F8F
:102D70004FF080430321C3F8041318B1D2E90131A5
:102D800028469847012C0BD10C237343FB586BB991
:102D90000C2303FB06760122B37A03F180431A6009
:102DA00000200EE0CEF800205A60DDE72846984764
:102DB0000028EDD131462846FFF772FFF0E76FF0AB
:102DC0000F00BDE8F0810022FFF78DBF002210B593
:102DD000012104461046FDF7B1FD0020FDF79EFDE0
:102DE0004FF080430122C3F818250322C3F80423BF
:102DF000A3680020C3E90000A368C3E9030010BD75
:102E0000F7B5026886689768CCB24FF02003EFF3FD
:102E1000118583F31188BFF36F8F0C226243B118C1
:102E20000B7A3BB3013BDBB20B7233BBB3503A447A
:102E30004B605368D3B90C2303FB04730121DA7A86
:102E40001B8902F1804203F18043116000221A6065
:102E50001B680193019B0C2101FB0464002060723C
:102E600085F31188BFF36F8F03B0F0BD984700283A
:102E7000E1D1F0E76FF04400F2E70020F0E770479F
:102E80007047FEE7FDF7BEBD00F0B6B90146006829
:102E900000F0B2B908B5FDF7BFFDBDE80840FDF789
:102EA000DBBC07B5002101A8FDF7ACFF03B05DF85E
:102EB00004FB0138013910F8013F11F8012F93424A
:102EC00001D1002BF7D1981A7047F0B581EA0004C0
:102ED000A50703460BD0013B0A4491421AD1F0BD2D
:102EE000002AFCD011F8014B03F8014B013A9C0772
:102EF000F6D19508AC001E1F0F19B94205D16FF02D
:102F0000030606FB05222344E5E751F804CB46F807
:102F100004CFF2E711F8014B03F8014FDDE770B57C
:102F2000C9B203469C0710D141EA012444EA044592
:102F3000940803EB8406B3420DD16FF0030505FB43
:102F400004241C44A34209D170BD002AFCD003F81C
:102F5000011B013AE6E743F8045BECE703F8011BC9
:102F6000F0E74FF0FF307047FEF7E8BAF8B50546D6
:102F70000C4601EB420663782278B3FA83F35B09CF
:102F8000696828464F680021B847014608B1207893
:102F9000F8BD22786B6828461F680123B8470028CF
:102FA000F5D10234B442E6D1F2E710B50468806886
:102FB000A468C0692468012904D15840C4F80405F4
:102FC000002010BD003320FA02F04FF0010118BFBD
:102FD000012300F001009140834214BFC4F808159A
:102FE000C4F80C15ECE770B504688068A468C06983
:102FF0002568D5F81465D5F81045D5F80455604016
:103000006C403440604001291CBFD04000F00100FA
:103010001860002070BD8368186830B558B100246E
:10302000814213D108685CB95C681860A14200D184
:1030300058600020086072B9002030BD2846EFE7D4
:1030400020605868814208BF5C60F2E7056804466A
:10305000002DF3D13AB11A680A6058681960002847
:10306000EAD15960E9E76FF01500E6E7F8B5856841
:103070000F462968064669B10C68EB688A683B40D0
:10308000134203D04B683A463046984714B1214664
:103090002468F2E7F8BD836802682DE9F041D2F8B0
:1030A0000880DD69D3E902241440D3E905210A43ED
:1030B00024EA0204D8F800201B69D2F810255D40EC
:1030C000554024EA05050126002714B92846BDE825
:1030D000F08134420AD098F8043007F01F00002134
:1030E00040EA4310FDF726FF24EA06040137760084
:1030F000EBE701292DE9F04118BFD4B287680646F5
:1031000012BF25461F2500244FF00108AC4202D90A
:103110000020BDE8F081FB6808FA04F223EA02030C
:10312000FB6021463046FDF719FF0028F1D101343C
:10313000E4B2EBE72DE9F041036885689E68D5E9C4
:1031400002341C40D5E90532134324EA03044FF04E
:10315000010800270CB9BDE8F08118EA040F12D06D
:103160002B69EA6996F804C05340FB4013F0010F45
:1031700007F01F000CBF0321022140EA4C10FDF7AD
:10318000D9FE24EA080401374FEA4808E2E701299A
:103190002DE9F04118BFD4B28768064612BF254614
:1031A0001F2500244FF00108AC4202D90020BDE8E1
:1031B000F081FB6808FA04F21343FB6021463046B5
:1031C000FDF7CCFE0028F2D10134E4B2ECE78268CE
:1031D0000B4692E8030083E803000020704708B51F
:1031E0000020FDF743FE08B5FDF7A0FAFDF71EFB32
:1031F000BDE80840FFF7D8B970B505460E46FFF7A1
:1032000013F8314604462846FFF7E9FF2046BDE89B
:103210007040FDF727BDFFF733BE30B50024846151
:1032200041EA020414F00304C0E9023201610CD146
:103230004461A34203D1C0E90000002030BD4569CC
:103240000D60013441611144F3E76FF01500F5E7BB
:1032500003460020C3E90200C3E900337047437B03
:10326000DB0603BF8069B0FA80F040090020704798
:1032700021B9EFF3058008B9FDF7FCBA81F3118895
:10328000BFF36F8F7047034620B9EFF305820AB989
:10329000FDF7F0BA83F31188BFF36F8F70474FF0DB
:1032A0002003EFF3118083F31188BFF36F8FFFF7D3
:1032B000EABF0368984214BF18460020704750F8D0
:1032C000103C70B50446A0F11805CBB14FF02003B7
:1032D000EFF3118683F31188BFF36F8F294650F8FF
:1032E000100CFEF7BBFC14F80B3C23F0020304F8AF
:1032F0000B3C86F31188BFF36F8F002344F8103C1A
:1033000014F80B3C23F0140304F80B3C2846FFF799
:10331000A6FF20B12846BDE87040FEF7EFBC70BDA7
:1033200038B54FF02003EFF3118283F31188BFF318
:103330006F8FFFF7BEFF044682F31188BFF36F8FD4
:10334000C8B14FF02003EFF3118583F31188BFF369
:103350006F8F01468068FEF781FC637B23F00203D8
:10336000637385F31188BFF36F8F0023A36004F1AB
:10337000180000F011F8204638BD10B5029C047307
:103380008373042400234473C373C0E90633C0E984
:103390001333C0E9161210BD10B54FF02002EFF341
:1033A000118482F31188BFF36F8F03683BB1FFF77D
:1033B00001F8002084F31188BFF36F8F10BD6FF008
:1033C0001500F7E710B54FF02003EFF3118483F3F6
:1033D0001188BFF36F8FFFF701F884F31188BFF3F3
:1033E0006F8F10BD70B504460E464FF02003EFF30B
:1033F000118583F31188BFF36F8FFEF7EFFF01286C
:1034000005DDA04203DD31462046FDF71FF985F3B7
:103410001188BFF36F8F70BD08B5FFF793F808BD33
:023420007047F3
:02342200FFFFAA
:083424000CCDFF7F0100000048
:10342C00000000003105000000000000852E0000A7
:10343C0000000000852E000000000000852E00001A
:10344C0000000000852E000000000000852E00000A
:10345C0000000000D111000000000000852E0000CB
:10346C0000000000852E000000000000852E0000EA
:10347C0000000000852E000000000000852E0000DA
:10348C0000000000852E000000000000852E0000CA
:10349C0000000000852E000000000000852E0000BA
:1034AC0000000000852E00000000000099050000BF
:1034BC0000000000852E000000000000852E00009A
:1034CC0000000000852E000000000000852E00008A
:1034DC0000000000852E000000000000852E00007A
:1034EC0000000000852E000000000000852E00006A
:1034FC0000000000852E000000000000852E00005A
:10350C0000000000852E000000000000852E000049
:10351C0000000000852E000000000000852E000039
:10352C0000000000852E000000000000852E000029
:10353C0000000000852E000000000000852E000019
:10354C0000000000852E000000000000852E000009
:10355C0000000000852E000000000000852E0000F9
:10356C0000000000852E000000000000852E0000E9
:10357C0000000000852E000000000000852E0000D9
:10358C0000000000852E000000000000852E0000C9
:10359C0000000000852E000000000000852E0000B9
:1035AC006E38000015050000000000009337000085
:1035BC00CD2D00005036000099370000D9050000D1
:1035CC00000000006E380000950D000000000000A7
:1035DC006E3800003D0E0000000000006E38000048
:1035EC00990E0000000000000C380000050F0000D0
:1035FC00D836000005380000050F0000D03600005A
:10360C008C370000751400002F3800003038000093
:10361C00E7310000000000006E3800003D1900008A
:10362C00000000006E380000812500000000000042
:10363C00C72D0000012E0000E72C00000000000048
:10364C00852C0000000000000000000000010004B8
:10365C0000000000000000000401080C0000000045
:10366C00832E00009907000059070000FD07000099
:10367C003907000014140020FC1300200C14002047
:10368C000000000004140020020000009C36000022
:10369C0000000000F63700002600020700000020A2
:1036AC00FE37000022000B11A9100000AB2F000008
:1036BC00E72F0000173000008F310000F3300000BE
:1036CC00000000000000005000000000000300504B
:1036DC000100000015140000411400008D120000C0
:1036EC009D120000CF31000074140020C81400207B
:1036FC00D41400200415002004150020F5FFFFFF52
:10370C00FF8FFFFFFF8FFFFFFE8FFFFFFE8FFFFF7F
:10371C00FD8FFFFFFC8FFFFFFC8FFFFF43616E27C8
:10372C007420696E697469616C697A65206D757451
:10373C0065782C20776173204E554C4C0D0A000097
:10374C0043616E277420756E6C6F636B206D75749E
:10375C0065782C20776173204E554C4C0D0A000077
:10376C00436F756C64206E6F74206C6F636B20708C
:10377C006F7765722073617665206D75746578005E
:10378C00554152545F3000434C4F434B0073797397
:10379C005F636C6F636B006D757465785F696E69E0
:1037AC00742063616C6C65642077697468204E5575
:1037BC004C4C20706172616D6574657200436F755D
:1037CC006C64206E6F7420616C6C6F636174652027
:1037DC006D75746578206265666F726520696E69B7
:1037EC007469616C697A696E6700464C4153485F35
:1037FC0030005352414D5F30004750494F5F30000D
:10380C004750494F5F31000D0118010C0006011A99
:10381C000108010A010E010C000501070101010359
:10382C000109010148575F43433331305F30007663
:10383C00322E312E39392D6E637331002A2A2A200B
:10384C00426F6F74696E67205A6570687972204F89
:10385C0053206275696C64202573202573202A2AF5
:10386C002A0A006D61696E0069646C6500000000D5
:10387C005529000018150020010000002C1500200F
:10388C00010000004015002001000000541500202C
:10389C0001000000632F000000C2010000010300C2
:1038AC000090D0032C1400202C14002000000000E9
:1038BC00DD250000452600001D26000061260000C5
:1038CC0021260000AC060020A0060020A80600203F
:1038DC0000000000A4060020501400205C140020FE
:0C38EC00541400204C140020681400202C
:1038F800DC35000000000000000000002436000055
:103908000000000000000000303600000000000049
:1039180000000000D035000000000000000000009A
:10392800B83500003C3600000C0000200C360000C2
:10393800E036000020140020AC3500000000000034
:1039480000000000C4350000000000000000000076
:1039580000360000B436000044050020F4350000AD
:10396800B43600006405002018360000000000008E
:1039780000000000E8350000000000000000000022
:1039880004150020041500200000000000000000BD
:103998000F00000018150020181500200000000076
:1039A800000000000F0000002C1500202C1500203E
:1039B80000000000000000000F000000401500207B
:1039C8004015002000000000000000000F0000006B
:1039D80054150020541500200000000000000000CD
:0439E8000F000000CC
:0400000300000A8D62
:00000001FF
