:020000040003F7
:100000003DB8F396000000000002000018F7010060
:1000100000000000000000000000000000000000E0
:10002000FFFFFFFFFFFFFFFFFFFFFFFFFFFFFFFFE0
:10003000FFFFFFFFFFFFFFFFFFFFFFFFFFFFFFFFD0
:10004000FFFFFFFFFFFFFFFFFFFFFFFFFFFFFFFFC0
:10005000FFFFFFFFFFFFFFFFFFFFFFFFFFFFFFFFB0
:10006000FFFFFFFFFFFFFFFFFFFFFFFFFFFFFFFFA0
:10007000FFFFFFFFFFFFFFFFFFFFFFFFFFFFFFFF90
:10008000FFFFFFFFFFFFFFFFFFFFFFFFFFFFFFFF80
:10009000FFFFFFFFFFFFFFFFFFFFFFFFFFFFFFFF70
:1000A000FFFFFFFFFFFFFFFFFFFFFFFFFFFFFFFF60
:1000B000FFFFFFFFFFFFFFFFFFFFFFFFFFFFFFFF50
:1000C000FFFFFFFFFFFFFFFFFFFFFFFFFFFFFFFF40
:1000D000FFFFFFFFFFFFFFFFFFFFFFFFFFFFFFFF30
:1000E000FFFFFFFFFFFFFFFFFFFFFFFFFFFFFFFF20
:1000F000FFFFFFFFFFFFFFFFFFFFFFFFFFFFFFFF10
:10010000FFFFFFFFFFFFFFFFFFFFFFFFFFFFFFFFFF
:10011000FFFFFFFFFFFFFFFFFFFFFFFFFFFFFFFFEF
:10012000FFFFFFFFFFFFFFFFFFFFFFFFFFFFFFFFDF
:10013000FFFFFFFFFFFFFFFFFFFFFFFFFFFFFFFFCF
:10014000FFFFFFFFFFFFFFFFFFFFFFFFFFFFFFFFBF
:10015000FFFFFFFFFFFFFFFFFFFFFFFFFFFFFFFFAF
:10016000FFFFFFFFFFFFFFFFFFFFFFFFFFFFFFFF9F
:10017000FFFFFFFFFFFFFFFFFFFFFFFFFFFFFFFF8F
:10018000FFFFFFFFFFFFFFFFFFFFFFFFFFFFFFFF7F
:10019000FFFFFFFFFFFFFFFFFFFFFFFFFFFFFFFF6F
:1001A000FFFFFFFFFFFFFFFFFFFFFFFFFFFFFFFF5F
:1001B000FFFFFFFFFFFFFFFFFFFFFFFFFFFFFFFF4F
:1001C000FFFFFFFFFFFFFFFFFFFFFFFFFFFFFFFF3F
:1001D000FFFFFFFFFFFFFFFFFFFFFFFFFFFFFFFF2F
:1001E000FFFFFFFFFFFFFFFFFFFFFFFFFFFFFFFF1F
:1001F000FFFFFFFFFFFFFFFFFFFFFFFFFFFFFFFF0F
:10020000F80B0020490B03001D0C0300E55D030003
:10021000055E0300255E0300655E0300455E030086
:100220000000000000000000000000004131030059
:100230001D0C0300000000001D0C03001D0C03003A
:1002400000000000000000000000000089390300E9
:10025000000000001D0C0300000000000000000072
:100260001D0C03001D0C03001D0C03001D0C0300DE
:10027000000000001D0C03001D0C03001D0C0300FA
:100280001D0C03001D0C0300000000000000000016
:100290001D0C03001D0C0300000000000000000006
:1002A0001D0C030000000000000000001D0C0300F6
:1002B0001D0C03001D0C03001D0C03001D0C03008E
:1002C0001D0C03001D0C03001D0C03001D0C03007E
:1002D0001D0C0300000000001D0C030000000000C6
:1002E0001D0C0300000000001D0C030000000000B6
:1002F0001D0C0300000000000000000000000000D2
:10030000000000001D0C03000000000000000000C1
:1003100000000000000000000000000000000000DD
:10032000000000001D0C03000000000000000000A1
:1003300000000000000000000000000000000000BD
:100340001D0C030000015F5F02000000FE0B0000B7
:10035000D131030080060000000000000000000012
:100360000000000000000000000000000100FFC3CA
:10037000000000C4201200200000000001015F5FA7
:10038000030100001F010000B90603000000000087
:10039000000000000100000001000000000000005B
:1003A000000000000000000000000000000000004D
:1003B0000000000070000000AC620300800000003C
:1003C000000F0000010000004104030001015F5F15
:1003D000040100001F0100002F08030000000000BE
:1003E000000000000000000001000000000000000C
:1003F00000000000000000000000000000000000FD
:1004000000000000B7620300400000000507000084
:10041000010000001B070300FFFFFFFFFFFFFFFFBE
:1004200038B50025054C29462046D4F80024C4F8E8
:10043000045405F080FDC4F8005438BD200C0020A1
:100440002DE9F04F04680546A5B0002C40F0088166
:100450002022214604A805F06EFD14AF202221467B
:100460000CA805F068FD40222146384605F063FDE2
:10047000EA6905F11C039846B2B10424EA6A05F161
:100480002C03EAB10426ECB96FF08304204625B0B2
:10049000BDE8F08F002CF1D053F8041D2246013C3A
:1004A0000029F7D01446E9E70324F5E7002EEAD047
:1004B00053F8041D3246013E0029F7D01646E2E704
:1004C0000326F5E740233A460021686805F070FDF1
:1004D0004028D9D1CDE904700127DFF88CA10DF1B6
:1004E000100905F1100BBC422DD10CAF3C46002089
:1004F0005D4A4146D2F8003408EB8608884540D171
:1005000008B1C2F800340023CDE90233059BA96885
:10051000402BC2F80414049A40F09380138D180AFB
:1005200003285AD0012800F081801268831ECDE98B
:100530000221082B00F28880DFE803F0404F545A74
:1005400060666C727D005BF8043F1A1D21D8DAF8F2
:100550000004D91C21F00301C0F58062914218D833
:10056000014400EB0A02CAF8001468683946019297
:1005700005F01EFD019AC9F80C00013749F8082F53
:10058000B1E751F804EF1EF1040F07D908B1C2F822
:100590000034FFF745FF6FF08C0477E70EF1030C92
:1005A0002CF0030CC3F58069CC4504F10804EDD8A8
:1005B000D01844E9020E634401209FE702AA0CA967
:1005C00004A800F09CF804464FF00008464507F1E7
:1005D00008073CD1FFF724FF58E70CA904A800F056
:1005E0007CF8F0E702AA0CA904A800F079F8EAE781
:1005F00002AA0CA904A800F06DF8E4E702AA0CA96D
:1006000004A800F070F8DEE702AA0CA904A800F024
:100610006DF8D8E702AA0CA904A800F06AF8D2E79E
:1006200002AA0CA904A800F067F8CCE70CA904A85A
:1006300000F068F8C7E702AA0CA904A800F06AF85D
:10064000C1E76FF08004BFE76FF08504BCE7414667
:1006500057E90223686805F0C0FC08F10108B5E716
:100660006FF0850412E700BF200C002008B5282297
:100670000021024805F05FFC002008BD2810002082
:1006800010B5044C0F222046034905F02FFC2046EC
:1006900010BD00BF511000203208030008B5012131
:1006A000034800F0FBF9034803F0F8FB002008BD05
:1006B000501000200D07030008B5FFF7D7FF40B921
:1006C000FFF7DEFFFFF7EAFF18B9BDE8084003F0C7
:1006D00033BC08BD6FF0850070476FF08500704730
:1006E0006FF0850070476FF0850070476FF08500F0
:1006F00070476FF0850070476FF0850070476FF0AE
:1007000085007047D1E9000103F0DABB0FB4002087
:1007100004B070476FF085007047F0B50368054678
:10072000B3F57D7FA7B007D040F2F532934207D0F2
:100730006FF0850027B0F0BD01F080FE0020F9E7E2
:1007400000243C22214607A8CDE90244CDE9044417
:10075000069405F0F0FB3C22214617A8169405F0FC
:10076000EAFBEA69019405F11C0302B30426EA6A74
:1007700005F12C033AB30424731E012B52D8012C2B
:1007800050D80423002168680DEB030205F010FC2B
:1007900004281AD06FF08000CCE7002EE7D053F881
:1007A000041D3246013E0029F7D01646DFE7032636
:1007B000F5E7002CE0D053F8041D2246013C002947
:1007C000F7D01446D8E70324F5E7022E16D16E6958
:1007D000402E29D806AF33463A460121686805F015
:1007E000E7FB8642D6D1CDE9027602A944B922467A
:1007F000019801F035FE044620469BE70021F5E70D
:100800002B6A402BC6D816AACDE90423019804AA66
:1008100001F026FEDDE9042304460021686805F0A6
:10082000DCFBE9E7012085E76FF0890082E7002023
:1008300070474D62656420544C5320332E362E345D
:100840000000000001680E4A0346914215D1C169BB
:10085000A2F11022A2F1EF1291420ED18268012A78
:100860000BD8C26812B101698A4206D0586928B112
:100870009B691B1A5842584170470120704700BFBE
:1008800055AA00FF0D4B70B59E68A6B13046FFF724
:10089000D9FF044678B9F3686BB935690DB92046BC
:1008A00070BD2846FFF7CEFF28B9EB68B34202D1EE
:1008B0002E462D69F2E70124F1E700BF6410002005
:1008C0002DE9F041394E3468F368D4B1B468C4B14D
:1008D000002861D000295FD001FB00F5B5FBF0F0E6
:1008E000884259D1291D57D8AA070DD025F00302F7
:1008F00004321C4603E0616891424FD2A469002C87
:10090000F9D12046BDE8F0812A46F2E7891A232969
:1009100004F12007D4E9050C1AD80123A360A0B183
:10092000C0F818C0A36903B158610023C4E90533B6
:100930003369DB0702D5FFF7A5FFA0BB2A460021DC
:1009400038463C4605F0F7FADBE7C6F80CC0E9E7A5
:1009500002F1200804EB08032039C3E9011E2169D4
:10096000DFF84CE0DC60196144F808E0AEF1102ECD
:10097000AEF1EF1EC3F81CE001B1CB60C3E9050C7A
:1009800040B18361996901B14B6101212361C4E9DF
:100990000121CAE7F360F5E70024B2E7D4F808E0E4
:1009A000BEF1000FB2D0012005F0DCF96410002088
:1009B00055AA00FFF8B5054600283AD0364E3368F0
:1009C000002B36D0B268002A33D0834203D8726835
:1009D0001344984202D3012005F0C4F9A0F1200489
:1009E0002046FFF72FFF0028F5D155F8183C012BC2
:1009F000F1D145F8180C55E90570DFB1BB68CBB9EA
:100A000055F81C2C7B68203213447B60386100B1A0
:100A1000C76020220021204605F08DFA386908B110
:100A200083682BB333699B0703D5FFF72BFF00289F
:100A3000D1D1F8BD40B3836833BB426863681344C7
:100A4000203363600369D4E90521236192B9B9B900
:100A5000426981696261A161A2B19461A26902B136
:100A6000546103B1DC602022002105F064FAD9E76B
:100A70003C46E2E79161A1690029E9D04A61E7E7D4
:100A8000F160F8E7F460E9E7F36845F8083C03B182
:100A90005C61F460C6E700BF6410002038B50D4605
:100AA000142200210446124805F045FA1149124863
:100AB00003F0EAF9232D1AD914F003031FBF043DF4
:100AC000ED18C3F10403E4182A460021204605F07E
:100AD00032FA074B094AC3E900459C602260A2F143
:100AE0001022203DA2F1EF126560E261DC6038BDAA
:100AF00064100020B5090300C108030055AA00FFD7
:100B00000832000001000000E93C0300C13C030082
:100B1000407C03008010002048000000407C03005F
:100B2000200C002000000000407C0300000C00208E
:100B300000000000200C002018010000000C002024
:100B40000800000002F04EBD08B572B6002383F322
:100B50001488BFF36F8F83F30A8883F30B88BFF386
:100B60005F8F254B5A6A22F480325A62D3F8942060
:100B700022F00102C3F89420BFF34F8FBFF36F8FB1
:100B80001E4A9A6000F058F81D4B83F309881D4BEC
:100B900083F30A8883F30B881B4B15A1D1E900016D
:100BA000C3E9000100F0EEF8184B19498B4212D34B
:100BB0000020184B18498B4218D303F0A9F8186885
:100BC00050F82240586840F822400132986882422A
:100BD000F5D30C33EAE70022F8E71C6844F822005A
:100BE00001325C68A242F8D30833E4E70022F8E758
:100BF000A5EDF5FEA5EDF5FE00ED00E00002030019
:100C0000F80B002000040020F80B0020100B03005C
:100C1000340B0300340B0300440B0300EFF3088094
:100C2000EFF309812DE9F00F6B46724600F094F95D
:100C300008B0FFF787FFFEE738B572B6002383F3ED
:100C4000138883F311884FF0FF30274A03F1200106
:100C50000133102B42F82100F8D100234FF0FF346C
:100C6000214A03F160010133102B42F82140F8D1F1
:100C7000012200251D4B29465A60C3F84843C3F89A
:100C8000084303F580535A60C3F84843C3F8084348
:100C9000A3F55043C3F800558022C3F80843144815
:100CA00005F049F929468022124805F044F9124B13
:100CB0002946C3F800558022C3F808430F4805F0C1
:100CC0003AF9802229460E4805F035F90D4BC3F854
:100CD00008454FF05023C3F8084362B6BFF34F8F67
:100CE000BFF36F8F38BD00BF00E100E0004001504E
:100CF0008080005080810050009000508090005013
:100D0000809100500070015008B5EFF31083012B63
:100D10000C4A07D1126ABFF34F8F511C4A424A4115
:100D2000104608BD01F082FC00B172B6126ABFF332
:100D30004F8F531C5A425A4101F078FC0028EFD0E3
:100D400062B6EDE70080FF0008B5EFF31083012BDA
:100D50000B4A06D1D269BFF34F8F02F00102104651
:100D600008BD01F063FC00B172B6D269BFF34F8FCA
:100D700002F0010201F05AFC0028F0D062B6EEE762
:100D80000080FF00694A10B5D2F8D03043F002036A
:100D9000C2F8D03001F04AFC30B14FF050230022AD
:100DA000C3F81421C3F8182101F04FFC28B1012227
:100DB0005F4BC3F8382AC3F878254FF47F02D2F886
:100DC0003031D2F83421BFF34F8FC3F30B03092B1B
:100DD00005D1012A1EBF0122554BC3F8782501F029
:100DE00034FC18B10E22534BC3F8E42E01F01EFC64
:100DF00030B100224E4BC3F80C270122C3F8102754
:100E00000022D30003F57F03D3F80013BFF34F8F05
:100E1000013108D0D3F800130132D3F80433B2F50E
:100E2000807F0B60EDD1EFF31084FFF78DFF00287A
:100E30004DD0BFF34F8F404BD3F80024012AFBD194
:100E4000C3F80425D3F80024012AFBD1012C03D0D8
:100E500001F0ECFB00B172B6FFF776FF58B1374AEC
:100E6000D36923F00103D361BFF34F8F324AD2F825
:100E70000034012BFBD1FFF747FF68B12F4A136AFB
:100E800023F0FF0343F020031362BFF34F8F2A4A7E
:100E9000D2F80034012BFBD1012C03D001F0C6FBAA
:100EA00000B162B60022244BC3F80425D3F8002415
:100EB000012AFBD1BFF34F8F1C49214BCA6802F4B2
:100EC000E0621343CB60BFF34F8F00BFFDE7FFF736
:100ED0001BFF0028ADD1154AD2F88C3043F4406393
:100EE000C2F88C304FF47F03D3F83021D3F834317B
:100EF000BFF34F8FC2F30B02092A16D1013B022B1D
:100F000002D8104AD35C83B10C480F4903680A4ADF
:100F10008B420CBF5A230023C2F8103EC36A8B4297
:100F20000CBF5A230023C2F8003E10BD00ED00E0C4
:100F30000040005000A00350009003500080FF00CC
:100F40000400FA05C6390300FA50FA507C22014920
:100F500004F0CCBFBC18002038B51D46394B3A4CC4
:100F60005B68C3F308032360EFF3038363655306F1
:100F7000C4E90120E16039D502F00C020C2A08BF57
:100F80000846014620612022304804F0AFFF25B119
:100F9000202229462E4804F0A9FF2A4B9A6AA2650E
:100FA000D96AE165986B206602F400406066586B70
:100FB000A06602F08000E0669A62D962D3F8E4206D
:100FC00024482267D3F8E810616702F04001A16766
:100FD000C3F8E4200E2101F04AFB2268D31E042B43
:100FE00025D8DFE803F00F181B1E2100EFF39483D0
:100FF000990704D5130702D5EFF38980C1E7EFF312
:101000008880BEE70C21144801F031FBEFF38883A0
:10101000EFF3898338BD12211048F5E70B21104802
:10102000F2E70D210F48EFE70E210F48ECE70F2AFA
:1010300095BF142125210D480D4888BF103A01F0B5
:101040006DFCE3E700ED00E0BC180020D0180020A4
:10105000F0180020C9390300D7390300E339030031
:10106000F5390300003A03000D3A03001B3A030070
:101070002F3A030037B5084C6369984748B9E56AC9
:10108000A847C307FCD4236A019303B0BDE83040EE
:101090001847002003B030BD543A030010B50B4C84
:1010A0000020A368984778B902202369984758B967
:1010B0000120A46A0649A04730B901211520A047A4
:1010C00010B90122034B1A7010BD00BF543A03003F
:1010D00040420F008C280020064B82B01868002385
:1010E00082B262F30F03000C60F31F43184602B094
:1010F000704700BF943A0300014B1869704700BF66
:1011000080100020014B5869704700BF80100020FC
:1011100010B5044C204600F02DFF002084F820007C
:1011200010BD00BF8010002038B50C4D0C4695F85E
:10113000203013B94FF0FF3038BD0A46014628462B
:1011400000F0AAFF064B984205D00B3B9842F1D124
:1011500000206C61F0E76FF00100EDE780100020E7
:101160000B00AD0BF0B51B4E054696F820300C4633
:1011700091B01BB94FF0FF3011B0F0BD00F06043EB
:10118000B3F1005F21D100230A460146304600F04A
:1011900013FC114B98421AD00B3B9842EAD13461B0
:1011A00011E0A71B402F28BF4027A9193A466846DF
:1011B00004F09CFE39466846FFF7D4FF0028DBD1D7
:1011C0004036B442EDD80020D6E70026F9E76FF0AC
:1011D0000100D1E7801000200B00AD0B10B5C4B2A8
:1011E000012C17D0A4F11503012B00F2B5800029C2
:1011F00040F08380604B1B68D3F80025082A4FF02D
:10120000FF3200F09D80162C0CBFC3F81425C3F8E4
:101210000C2572E04DF6C023994270D028D8B1F564
:10122000615F6FD011D8B1F5965F6DD008D8B1F578
:10123000966F6BD0B1F5166F6BD06FF007005DE065
:10124000B1F5165FF9D14D4B33E047F612239942C1
:1012500062D007D8B1F5964F61D0B1F5E14FECD12E
:10126000474B26E0B1F5164FE7D14FF41D0320E0C0
:10127000444B994255D011D8B1F5E13F54D007D82D
:10128000B1F5614F53D0B1F5963FD6D13E4B10E04A
:10129000B1F5613FD1D14FF06C730AE0B1F5612F28
:1012A00048D03A4B994248D0B1F5E12FC5D14FF023
:1012B000E86310F4E06F52D110F4404103D0B1F56F
:1012C000804F4FD1102110F4405203D0B2F5805F0F
:1012D0004BD10E2210F4403003D0B0F5403F47D13F
:1012E0000120254C20766276E361A1760A432468CA
:1012F0001043C4F82435C4F86C05002010BD4FF429
:101300006503D6E7224BD4E7224BD2E74FF49E2366
:10131000CFE74FF41D23CCE74FF40003C9E71E4B82
:10132000C7E74FF08063C4E74FF0EB73C1E74FF4BA
:101330006B03BEE74FF07063BBE74FF08053B8E735
:10134000162CC3F800150CBFC3F81425C3F80C25E0
:101350000822C3F80025D0E76FF00300CEE76FF056
:101360000800CBE76FF00A00C8E76FF00900C5E797
:101370006FF00B00C2E700BF801000200050270074
:1013800000C0750090D0030000903A0140420F0069
:1013900000F03A0000B0130000A04E0010B58EB06F
:1013A0002422002105A804F0C6FD4FF0FF33CDE94B
:1013B0000133CDE903334FF0EB730B930723104C4C
:1013C00001A8D4E902128DF8363001F066F9014621
:1013D0000022204600F03AFA0A4B98420DD10C9BAD
:1013E000002023831B0CA3760B9BC4E90400E3615C
:1013F000012384F820300EB010BD6FF00100FAE731
:10140000801000200000AD0B7FB500250C46C0F811
:1014100008511646D0F80821D0F8002222F0200208
:10142000C0F80022104AC0F8082301F087F9A5602F
:10143000256104F14C03D3E8EF1F21F47F0121F46F
:101440007041C3E8E21F002AF5D110222946684600
:1014500004F071FD042368468DF800300196D4E94C
:101460000013984704B070BD10020A0000F01F037B
:10147000400909D1074A02EB8303D3F80012064A58
:101480000A40C3F8002270470022803352F823300C
:10149000FFDE00BF00258450F0F8FCFF2DE9F04F7F
:1014A000804690F804A05020664F0E4600FB0A705C
:1014B000416885B049B113F0020304D0836B002B5F
:1014C00000F0B2800123009300E000914FF050093A
:1014D00009FB0A73DB6CD90600F1A6804FF0010B03
:1014E000B3180293029BB34200F0A78006F060435A
:1014F000039398F80450D8F8004009FB05739A6BE1
:101500009AB9039BB3F1005F40F09980019200F01B
:1015100005FE09FB0572D16C204601F0010101F0C6
:10152000DBF828B900F002FEE3E701230193EEE7C0
:10153000516C33460029BCBFD4F84C155164019A54
:1015400042B109FB05713078D1E90E23D054D1E9BD
:101550000E3213441BB1C4F84435C4F848B5002218
:10156000C4F82021D4F82011C4F85821D4F8581117
:10157000C4F85021D4F850210822C4F80025009A5C
:10158000E2B14FF48003C4F80433C4F808B000F0AB
:10159000CDFD502303FB0A72516800294BD1D26C58
:1015A000120748D503FB0A734C33D3E8EF1F21F031
:1015B0000801C3E8E21F002A36D0F6E7C4F808B0F5
:1015C000019300F0B3FD09FB0572D16C019B01F0A2
:1015D00001012046019301F07FF88446019BD4F875
:1015E0004C05D4F84425BCF1000F0DD19342F0D046
:1015F00005EB850507EB0515D1B100F08FFD2946F8
:10160000204601F0ADF8C2E705EB8505934207EBF4
:101610000515F1D10028EFD100F080FD29462046C4
:1016200001F09EF800F082FD074805B0BDE8F08F9C
:10163000C4F80CB0E1E7013654E70448F5E7044884
:10164000F3E700BF381900200800AD0B0000AD0B18
:101650000400AD0B430904D10123034A8340936086
:10166000704700239B60FFDE0025845000F01F03BD
:1016700040090BD1084A02EB8302D2F80012074B53
:101680000B4043F00303C2F800327047002280335E
:1016900052F82330FFDE00BF00258450F0F8FCFF35
:1016A0002DE9F84391F8303005460C4690F8048057
:1016B0000F6853BB5023DFF85091781C03FB08934D
:1016C000DE6C46F00072DA6404D03846FFF7C2FFE1
:1016D000FFF7CCFF6068411C01D0FFF7C7FE94F80C
:1016E0002C30012B11D1502303FB0893E06846F006
:1016F0002066421CDE6401D0FFF7B8FEA068431CE0
:1017000003D0FFF7A7FFFFF7B1FF94F82F0038B918
:1017100050223D4B02FB0833DA6C42F08072DA64EF
:1017200094F82CC094F82D1094F82E202B68D4F83F
:1017300028E041EA0C010A43E668D4E90198C3F8BD
:1017400024E5C3F86C2550B9BCF1010FC3F80C7542
:10175000C3F8149504BFC3F80885C3F81065D3F81F
:10176000682503F26458012A08BFDA60D3F86425BB
:10177000012A13D1082149F64046244FC3F8001529
:1017800047F001075A60D8F800309BBB2B68D3F8AC
:101790008024C3F880240022C3F8002500212B6890
:1017A00094F83220C3F81011D3F81001C3F82011B7
:1017B000D3F82001C3F82411D3F82401C3F844114D
:1017C000D3F84401C3F85811D3F8581143F3073341
:1017D0005201002BD2B212DB0D49C81880F8002349
:1017E0000122580903F01F0302FA03F341F82030E5
:1017F000BDE8F8834020B847013EC4D1C6E705499B
:1018000003F00F03CA54F3E738190020A03A03008D
:1018100000E100E014ED00E000F01F0340090BD1EF
:10182000084A02EB8302D2F80012074B0B4043F048
:101830000203C2F8003270470022803352F823308E
:10184000FFDE00BF00258450F0F8FCFF2DE9F347D0
:101850009046502290F80490514C02FB09FA04EB98
:101860000A070D4697F848100646002940F0858083
:1018700009EB890004EB001004F05DFB2B69AA69F9
:1018800044F80A306B69BB6302B1013A502303FB91
:101890000943DA632A6A042A81BFEA699A6100224D
:1018A000DA6195F83130B8F1000F37D083F00107D5
:1018B0003F0233B1502303FB0943DA6C42F00102CB
:1018C000DA64502303FB09440123C4F8048084F83C
:1018D00048303468D4F84C2112BB29463046FFF713
:1018E000DFFE0822002334688DF80730C4F8002595
:1018F0000DF10702C4F84425C4F8483501230A2530
:10190000A360E360D4F85831002B38D1254B402038
:1019100043F001039847013DF4D128E04746C8E76A
:1019200008224FF06409C4F8002563601D4B43F0A2
:10193000010AD4F84431F3B9D4F82431DBB94FF4B7
:101940002070D047B9F10109F3D14B460022C4F809
:101950004C21D4F84C11C4F81021D4F81011C4F85B
:101960004421D4F84411C4F80025002BB5D10E4809
:1019700002B0BDE8F0870123E8E70C48F8E7002350
:10198000C4F820319845D4F82021C4F80035084B1C
:1019900008BF00231F4333680648C3F80473E7E712
:1019A00038190020A03A03000100AD0B0C00AD0B6C
:1019B00010020A000000AD0B2DE9F04784460F46E7
:1019C0009E4616460579002A51D04FF0500ADFF89E
:1019D000AC80D0F800900AFB058ADAF8044074B9AC
:1019E0006BB9DAF82C50002D43D1CAF82C20FFF740
:1019F00055FD0446CAF82C502046BDE8F0871EF07D
:101A0000030F07D0734632463946BDE8F0476046BB
:101A1000FFF744BD07F06043B3F1005F4FF050049F
:101A200014D104FB058400F079FBE26A1AB1144C6E
:101A300000F07CFBE0E7C4E90A7605EB8505484643
:101A400008EB051100F097FE0E4CF1E704FB05844E
:101A5000A36B83B100F062FBE36A002BE7D1E36C78
:101A6000012243F00203C4E90A76E364E5E7064C89
:101A7000C2E7034CC0E7054CBEE700BF38190020A1
:101A80000B00AD0B0000AD0B0600AD0B0A00AD0B5B
:101A90002DE9F84350230679284D046803FB0653CB
:101AA000D4F80473DA6AC4F8087322B92448C4F875
:101AB0000473BDE8F88306EB860005F14C024FEA9B
:101AC000001802EB0012D2E8EFCF4CF0080CC2E88D
:101AD000E0CF0028F7D10122E26031B3D96C01EAEE
:101AE00002094946204600F0F7FD0028FAD000F030
:101AF00015FBB9F1000F1CD1D4F8203153B10123EB
:101B0000E360D4F85831002BFBD0204605EB0801E8
:101B100000F026FE00F00AFB0023C4F82031D4F8C0
:101B20002021502202FB0655EB620648C4F80473DC
:101B3000BFE7D4F85831002BE7D1EBE73819002084
:101B40000500AD0B0000AD0B2DE9F84390F80480C3
:101B50004A4E08EB88073F0107F14C0504683544FD
:101B6000D5E8EF3F43F48052C5E8E02F0028F7D1D5
:101B7000DA047FD44B0705D5502303FB08639B6928
:101B8000002B79D03E4B3744C4F808330823C4F8FF
:101B900000350023C4F81031D4F81021C4F84C31BA
:101BA000D4F84C21C4F844310A03D4F844318B03EF
:101BB00003F4804302F400524903134301F400414B
:101BC0000B43D5E8EF2F1A43C5E8E12F0029F8D1E0
:101BD0004FF0500909FB0869D9F80830EBB9D9F87A
:101BE000043093B9502303FB0863DB6CD8043FD562
:101BF000D5E8EF3F23F47F0323F47043C5E8E23FC9
:101C0000002AF5D11F48BDE8F8830321384600F0CB
:101C100070FDD9F80830002BE4D0D4F8043359070C
:101C200013D5502303FB08635A6872B1DB6C1A03A7
:101C30000BD5D5E8EF3F23F40023C5E8E23F002AA7
:101C4000F7D10621384600F054FD502303FB08630A
:101C5000DB6CDB040CD5D4F84C310BB901232360C9
:101C6000502303FB0866736813B1054BC4F80433B3
:101C70000548C8E70548C6E70548C4E73819002005
:101C800010020A000200AD0B0000AD0B0B00AD0B03
:101C90000800AD0B2DE9F84F502390F804905B4EEF
:101CA000046803FB09631746DA6CD4F804A35003F5
:101CB0008846C4F808A300F1A38001F06041B1F1A7
:101CC000005F40F09F80996859B15B68002B40F03D
:101CD0008380D4F8101100297ED0C4F81031D4F8D4
:101CE0001031502505FB0965EA6909EB890BC5E947
:101CF00002874FEA0B1B002A49D0974235D84FF094
:101D000000093A46A9694046C5E9029904F0EEF88F
:101D1000EA69A869D21BC119EA6104F0B1F86B68DD
:101D200023B93B48C4F804A3BDE8F88FEB6C5E44CC
:101D3000990414D5374B5B44D3E8EF1F41F480215D
:101D4000C3E8E21F002AF7D13A464146304600F088
:101D5000E1FC4A4631462046FFF756FBE1E73A46AA
:101D60004146304600F0D6FCDBE74046A96904F066
:101D7000BDF8EB696B620023EB61264B5B44D3E853
:101D8000EF1F41F40021C3E8E21F002AF7D15023DE
:101D900003FB0963586ADA689968DB6C121A01441C
:101DA000C4F83415C4F83825DA04BAD5194B5B44A5
:101DB000D3E8EF1F21F48021C3E8E21F002AF7D106
:101DC00001232360D4F84431002BAAD00023C4F8A7
:101DD0004431D4F84431A4E7502303FB0966336946
:101DE00093B95304C4F83485C6E90487C4F8387538
:101DF00097D5D4F8003243F02003C4F8003290E7BE
:101E000005488FE705488DE705488BE7381900201E
:101E10000000AD0B841900200500AD0B0A00AD0BCE
:101E20000B00AD0B50232DE9F0414E4D90F804808E
:101E3000046803FB0853D86CD4F8007200F48220C5
:101E4000B0F5805F05D009B10022DA614648BDE8EF
:101E5000F081D4F80463C4F8086309B9BB0652D40E
:101E60004FF4A111D4F8003223F02003C4F800325B
:101E7000502303FB08574C37D7E8EF0F0843C7E858
:101E8000EC0FBCF1000FF7D122B903FB08535B68DC
:101E9000002B63D1354BC4F8083301236360D4F8B9
:101EA0004431002BFBD00023C4F84C31D4F84C2132
:101EB000C4F81031D4F81021C4F84431D4F84421C6
:101EC000502202FB0852D16C11F400411ED1D161A5
:101ED000204600F033FC502303FB08550023AB6081
:101EE0002B61D7E8EF3F23F47F0323F47043C7E867
:101EF000E23F002AF5D126F4202626F404761C4879
:101F0000C4F80463A3E74FF48031B1E79269C4F8E1
:101F10004C31D4F84C11C4F834250522C4F83825C6
:101F2000C4F81031D4F810310123E362D4F8103131
:101F3000002BFBD00023C4F81031D4F81031D4F8B2
:101F40004C210AB1D4F83C25502303FB0853DA6135
:101F50000023C4F84C31D4F84C31B9E70123636055
:101F6000CDE700BF381900200500AD0B10020A00B4
:101F70000000AD0B2DE9F8432F4A03680679C3F83A
:101F8000082343F30733002B04460DDB01215A09D4
:101F900003F01F03994002F12003284A42F823105E
:101FA000BFF34F8FBFF36F8F012220461146FFF71B
:101FB00039FF01212046FFF76BFD50212279204D8A
:101FC000236801FB0252D46CD3F80C05E201D3F86C
:101FD0001495D3F80875D3F8108509D54FF0FF3262
:101FE000C3F80C25C3F81425C3F80825C3F8102539
:101FF000A30116D5411C01D0FFF70EFCB9F1FF3F3C
:1020000002D04846FFF708FC22010AD5B8F1FF3F8D
:1020100002D04046FFF700FC7B1C02D03846FFF799
:10202000FBFB5023002203FB0653DA6483F84820AD
:102030005A60BDE8F88300BF10034A0000E100E0E9
:102040003819002010B5502402790E4B04FB0233DE
:102050005B689BB90368D3F80025082A05D011B145
:10206000D3F83C350B60084810BDD3F810213AB1C5
:1020700011B1D3F83C350B600448F5E70448F3E7A9
:102080000448F1E7381900200C00AD0B0000AD0B3F
:102090000800AD0B0B00AD0B2DE9F34105461646CC
:1020A000FFF7F8FD184B0446984226D10321284635
:1020B00095F80480FFF748FD144FB84201D0A042C4
:1020C0001FD15022124B02FB08335B68ABB901935E
:1020D000284601A9FFF7B6FFB842F9D00D4B984248
:1020E0000AD0019BB34207D301222846114602B011
:1020F000BDE8F041FFF796BE074C204602B0BDE8B0
:10210000F0810446F9E700BF0000AD0B0B00AD0BFA
:10211000381900200C00AD0B0800AD0B72B6024A56
:10212000136801331360704788190020034A13684D
:10213000013B136003B962B6704700BF88190020E5
:10214000003A18BF0122003918BF01210368890035
:10215000074841EA4201186359605A6842F0010297
:102160005A60BFF34F8FBFF36F8F0020704700BFDF
:1021700004AAFF000722024BC3F80423704700BFE4
:1021800000300050084BD3F80801D3F80021003884
:1021900018BF012080000AB140F00100D3F80431DB
:1021A0000BB140F002007047003000500022074B96
:1021B000C3F80021D3F80011C3F80421D3F80411A7
:1021C000C3F80821D3F80831704700BF0030005031
:1021D000002317200C49052B03F1010201D81346F7
:1021E000F9E703F5C073202A41F823001346F2D122
:1021F00000231720044A03F5E0710133202B42F835
:102200002100F8D1704700BF0030005010B59DF894
:102210000840C00B43EA0423064CC90B43EA0213EF
:10222000884200D910BDC2B202F5C07244F8223013
:102230000130F5E70030005010B59DF8084000F17E
:10224000604043EA042301F16041074C400B490B15
:1022500043EA0213884200D910BDC2B202F5E0720F
:1022600044F822300130F5E700300050C0F30E038F
:10227000C3F50043B3FA83F3C3F11B03064AC0F36B
:10228000C730DBB240F4807043F48073C2F80005BD
:10229000C2F80435704700BF0030005043030148C6
:1022A00018447047FF1FF81F054BC0F307300902A1
:1022B00041F0300100F5007043F82010704700BF76
:1022C00000300050044BC0F30730090200F50070E5
:1022D00043F82010704700BF0030005008B5FFF7EA
:1022E00051FF044B162118600348BDE8084000F078
:1022F000BEB900BFC01F0020A63A03000C2201494E
:1023000003F0F4BDC01F002010B501F022FB04460D
:1023100090B901F071FE044680B90A4A2E21D368B3
:10232000094823F008031B041B0C43F0BF6343F46C
:102330000033D36000F09BF9204610BD45F22354D2
:10234000FAE700BF00ED00E0BC3A0300024B186062
:10235000024B002019607047D01F0020CC1F0020C6
:102360001FB5274C426923685A6282699A62C26922
:10237000DA62026A1A63426A5A63826A9A63C26ABA
:10238000DA63026B1A64426B5A60826B9A60C26BAA
:10239000DA60026C1A61426C5A61826C9A61C26C9A
:1023A000DA61026D1A62826D5A65C26D9A65026FBA
:1023B000DA65026E1A66826E5A66426F9A66EFF3AB
:1023C00088825A64EFF389829A644268DA64EFF390
:1023D00094821A65026801A81A67FFF78FFF2368C5
:1023E000019ADA6601221A70064B1C6864086400C0
:1023F000204621462246234603F071FE04B010BD5C
:10240000D01F0020CC1F002000B5A1B001A8FEF70E
:102410009DFD029B63B15B060AD4019B23F002037E
:10242000052B05D1044B1B6813B101A8FFF798FFDA
:1024300021B05DF804FB00BFCC1F0020BFF34F8F1D
:102440000549064BCA6802F4E0621343CB60BFF350
:102450004F8F00BFFDE700BF00ED00E00400FA056C
:1024600003462DE9F04F084687B01146042B78D873
:10247000DFE803F00308770D510007B0BDE8F04F27
:1024800000F076B807B0BDE8F04F00F030BA43680E
:10249000082B03D0022007B0BDE8F08F4B68042B57
:1024A000F8D14FF0FF33D0F80080D1F800A0D8F871
:1024B0000410CAF800300029ECD026233C22012069
:1024C00001F099F904460028E4D1D8F80030DFF88B
:1024D00098B0DFF8989003AF5BF8045B99E80700C9
:1024E0001D4487E807000C2239462846019303F073
:1024F000E2FD019B064600B91DB90134072CEBD162
:10250000C8E73C222946D8F8040003F0EFFCCAF8DB
:1025100000600020BFE74368082BBBD14E68042E43
:10252000B8D14FF0FF3304680D6821682B60002993
:10253000B0D06368002BADD026237422012001F0B7
:102540005AF90028A6D1232332460120616801F000
:1025500052F900289ED1D4E90001FFF7F7FE286068
:10256000D7E7032097E700BFEC3A0300083B0300DE
:10257000F8B543680C2B01D00220F8BD4B68042B42
:10258000FAD14FF0FF3304680D6821682B600029F1
:10259000F2D0A268002AEFD00623012001F02BF927
:1025A0000028E9D161681F4ED6E90037994230D33F
:1025B000A2681F4401EB020CBC452AD803F17F43FB
:1025C00003F50043B3F5805F20681FD20A439307E9
:1025D00025D1154B9C4522D8091AA2680B1812B9AF
:1025E00000202860C9E7EFF31082012A08D11B6898
:1025F000BFF34F8F40F8043BA368043BA360ECE7B4
:1026000072B61B68BFF34F8F62B6F3E703F06EFC40
:10261000E6E70130042806F10806C5D1ACE703203F
:10262000ABE700BF143B03000090FF004FF47F03B3
:10263000D3F83001D3F83431BFF34F8FC0F30B0020
:10264000A0F109035842584170474FF47F02D2F875
:102650003031D2F83401BFF34F8FC3F30B03092B92
:1026600003D1431E58425841704700207047FEF77F
:1026700001BD012070476FF00300704700207047D4
:102680006FF00300704700207047022814BF6FF0FE
:10269000030000207047FEF765BD70B540F2FF15DE
:1026A00001EB8202914200D170BD51F8044BC4F39A
:1026B0000803640CAB4208BF4FF0FF33032CF1D882
:1026C000DFE804F0020406080360EBE74360E9E793
:1026D0008360E7E7C360E5E70346D0F8580130B907
:1026E00031B9D3F82001003818BF0120704701200C
:1026F000704730B504460D4685B01022002168466B
:1027000003F019FCD4E9001368468DF8005098478F
:1027100005B030BD7FB504460E4615460021102297
:10272000684603F008FC012368468DF80030CDE9C7
:102730000165D4E90013984704B070BD10B5044694
:10274000FFF7ECFCD4F8583133B1D4F8043313F468
:10275000800308BFC4F80035BDE81040FFF7E6BCB1
:10276000D0F8583133B1CB6CC3F30032DB0458BF1F
:10277000C0F80025704770B5CE6C0D4606F001011B
:102780000446FFF7A9FF38B94FF4800346F004066A
:10279000EE64C4F8043370BDD5E90A365AB1296C29
:1027A000EA6B761A964228BF164619443246A86B41
:1027B00003F09CFBAB6B4FF0FF326A641BB1C4F8B3
:1027C0004435C4F848650023C4F82031D4F82021EA
:1027D000C4F85831D4F85821C4F85031D4F85031E5
:1027E0000823C4F800354FF48003C4F804330123F0
:1027F000A360D0E74B6830B513F01F052DD10268F8
:102800000C681068C0F30720844226D250685560D7
:1028100094600C7C23F01F0304F001041C438B7CA8
:10282000DB0003F018031C434B7C5B0003F0060342
:102830002343D3608B68013B23F01F04CB685B000C
:1028400003F00E03234343F0010313615060BFF311
:102850004F8FBFF36F8F284630BD0120FCE7036820
:1028600000205A68C9B258609960D86018615A60EF
:10287000704770B50546002403681E68C6F3072636
:10288000B44201D1002070BD21462846FFF7E7FF82
:102890000134F5E7C0037047C00300F5FF407F3007
:1028A0007047002070471F2070474FF4004070476A
:1028B00000F57F40C03040037047402070475F20E4
:1028C00070474FF4005070470020704708B5FFF77D
:1028D0009BFD72B620BFFDE7034610B100201870C3
:1028E00070474AF2C5307047002070477047436810
:1028F0000C2B01D0022070474B68042BFAD10B68D7
:1029000001210268196011680131F3D10221906838
:1029100019600028EED118607047000030B50C46F1
:10292000154685B038B139B1FFF7A1FE041E03DAB0
:10293000204605B030BD044640F60D23ADF80E30FC
:1029400009230B4901A805F00F028A5C2D091A54CE
:10295000013B012BF7D147F630030C21ADF80430D1
:10296000FFF785FE0028B4BF04462418E0E700BF47
:10297000343B030007B51A4B83F30A88194800F06B
:10298000D3FF48B100F02EFE00F00EFC00F0D2F8AC
:10299000002003B05DF804FBFFF7B6FC0028F1D17E
:1029A00021211148FFF763FEFFF78EFF0028E9D1D0
:1029B0000DF10700FFF790FF0028E3D19DF80730E5
:1029C0001BB1FFF791FF0028DCD1FFF78FFF00F06C
:1029D00011FF35210548FFF74AFE00F09FFDD3E7C0
:1029E000000400208C190020443B0300653B0300D9
:1029F00030B5094C024661680023084640B10568BD
:102A00006D68954205D11BB1826860609A608160F3
:102A100030BD03468068F1E7101A002038B504463F
:102A20002AB10B689B68DB0512D5002038BD0B4B23
:102A30001D680DB900F0D6FD00222B68996934336A
:102A40008A4203D053F8040FA04204D19142ECD142
:102A50006FF0FC00EAE70132F2E700BF181A00202D
:102A600070B504460E461546002130220C3003F0A6
:102A700062FA064B20461B68A6606360656100F041
:102A80009DFE00232061236070BD00BF181A002046
:102A9000034B186810B1006800B14068704700BF70
:102AA000181A0020064B10B51C680CB900F09AFDEE
:102AB00023689B6813F4406F14BF0120002010BDF1
:102AC000181A00202DE9F041074690460C4621B91E
:102AD0006FF080042046BDE8F0814B00F8D5144B20
:102AE00001F01F0253F82250002DF1D02B685E68D0
:102AF000FFF7D8FF294602463046FFF78FFF88B917
:102B0000C4F30721284600F06FFD04460028DFD1FA
:102B100000F061FE064640B142462946FFF7A0FF9D
:102B20003E60D7E76FF08104D4E76FF08204D1E70D
:102B3000901900202DE9F04100F04CFE0023134EC7
:102B4000134F73607B6000F0EFFADFF84880304687
:102B500000F022F80446A0B139468023424600F036
:102B6000ABF80546204600F075FD2068211D00F0F9
:102B700047FB08B100F036FD2946204600F080FAF8
:102B8000E5E7BDE8F04100F091BA00BF1C1A002053
:102B9000101A002090190020F8B5054608B900F079
:102BA00021FD404E346814F1310F78D83E4B19683E
:102BB00004F130038B4272D2E369A26903EB830311
:102BC0000E321344226A02EB42021344626AC2EBE1
:102BD000C20213449B00E31801D2994201D200F0D3
:102BE00001FD2368314A1B0C1B04934201D000F005
:102BF000F9FC2388B3F5817F01D300F0F3FC63680F
:102C0000002B01DA00F0EEFCD4E90A239A4201DD40
:102C100000F0E8FCA36813F4406F22D1244A17683F
:102C200007F120031360234A1268934201D900F090
:102C3000D9FCE369A26903EB83030E321344226AD1
:102C40003C6002EB42021344626AC2EBC2021344CC
:102C5000326802EB83026B683260FB616F6038465A
:102C6000F8BDA26A002A04DAE36A002B01DA9A426C
:102C700001DD00F0B7FC6F68002FCFD03B689A6889
:102C800012F4406F09D0E16A9A6A914205DBA26AA8
:102C9000DB6A9A4201DC00F0A5FCFF69ECE7002743
:102CA000DDE700BFAC100020A43B030000005F5F25
:102CB000A8100020A03B03002DE9F74F0F469046D7
:102CC0000646009300B109B900F08CFCD6F800A0CC
:102CD000DAF818200AF1380303EB820BDAF81C400B
:102CE000204B1D6854B10C2202FB04541C601E4B87
:102CF0001B689C4201D900F075FC2C4625464FF01C
:102D00000009DAF81C204A4500D91CB9002003B09C
:102D1000BDE8F08F142303FB09B20023C5E90026A8
:102D20009268AB60930516D5B8F1000F02D0009BF6
:102D3000802B03D0019200F055FC019A12F0E00FB5
:102D4000D0B202D158F820201AB1019000F04AFC0C
:102D5000019848F820507A6809F10109AA607D605D
:102D60000C35CEE7A41000209C3B03002DE9F04F6A
:102D700093B000935E4B0746D3F800B00BB2002B24
:102D80000D461646C1F30269C1F3024A04DA6FF038
:102D9000800013B0BDE8F08F8B42C36001D10020EA
:102DA000F7E709EB0A03042BF1D8CC0F64014FEAD3
:102DB000C90831464246DBF8040044F0020300F043
:102DC0001AFD01460028E2D1202202A803F0B3F840
:102DD0004246314602A84FEACA0603F087F8324657
:102DE0000099DBF8040044F0060300F004FD80467F
:102DF0000028CCD1014620220AA803F09CF83246D4
:102E000000990AA802AE03F071F8334608F10108F0
:102E1000C14514D91A46C4460DE0D2F808E0D1687D
:102E200018687144884203D2596808448645AED375
:102E30000CF1010C0832CC45EFD10833E6E715F070
:102E4000006F18BF20241022002107F11C0003F09E
:102E500072F807F118081022002107F12C0003F086
:102E60006AF808EB890944F00203C84512D1202C06
:102E700027D1002D02DBC5F3C0456C0107F1280501
:102E80000AAE05EB8A0A44F0060455451BD1009BA7
:102E9000FB6784E77268DBF8040056F8081B0193AF
:102EA00000F0A9FC00287FF472AF56F8042C019BB7
:102EB00048F8042F56F8082CC8F83000C8F820202D
:102EC000D3E70024DAE77268234656F8081BDBF8DC
:102ED000040000F090FC00287FF459AF56F8043C41
:102EE00045F8043F56F8083C28642B63CDE700BF43
:102EF000181A00202DE9F0411F461A4B0D461646C0
:102F0000D3F8008000F082FB044608B900F06AFBA9
:102F1000E368002B01DA00F065FB032D01D900F016
:102F200061FB04EB8504E569E36CED1A16D006231A
:102F30003A463146D8F8040000F05DFC08B100F0D4
:102F400051FBBD4228BF3D46E36CE16B2A46194464
:102F5000304602F0CBFFE36C2B44E3642846BDE827
:102F6000F08100BF181A00202DE9F0411D461A4BD0
:102F70000F461646D3F8008000F048FB044608B917
:102F800000F030FBE368002B01DA00F02BFB032F8D
:102F900001D900F027FB04EB8704E36AE26E9B1A79
:102FA000AB4201D200F01EFB02232A463146D8F87C
:102FB000040000F020FC08B100F014FBE36EE06DAB
:102FC0002A463146184402F091FFE36E00202B445C
:102FD000E366BDE8F08100BF181A00202DE9F0413A
:102FE00005464FF001080E4E0E4B37685C681CB961
:102FF00028463760BDE8F0812268936813F40070BA
:103000000CD16369012B09D0D368346023B1984790
:10301000002801DA00F0E6FAC4F81480E469E6E773
:10302000181A00201C1A002070B50446D0B183681D
:10303000C3B11A68B2B15D68A5B10C4BA8616869EB
:103040001D6020B92B68DB684BB901236B61A36855
:1030500004F10C001B68BDE870401B6918479847D5
:103060000028F2DA6FF0800070BD00BF181A00204F
:103070004268024B08461A60704700BF181A0020C9
:103080000022036810B5C0E905229A68044612F4CC
:10309000406F07D0120503D5D3E90A0100F034F8D8
:1030A000014B1C6010BD00BF181A002038B5124B30
:1030B0001B681C68A36813F4406F01D100F092FAFA
:1030C00000F05EF9226B23690C49134423F00703D7
:1030D000A3F1080543E9021185F30988073222F0BC
:1030E000070282F30B88BFF36F8F054BE268054937
:1030F00000F05DFC002038BD181A0020A5EDF5FE9B
:10310000F80B0020DD2F0300014BC3E900017047DD
:10311000241A0020034BD3E900308342C8BF0020AB
:10312000704700BF241A002008B500F01DF9034BBA
:10313000986000F01FF980F3888808BD00ED02E078
:10314000EFF308807146EFF30982EFF30B830CB4C1
:1031500006B400F003FA8646009900F0080001F07A
:103160000801401A02DC12DB04B070471EF0200395
:103170001CBF2DE9F00FBDF1080D0A4C254626466F
:103180002746A046A146A246A34630B4704704B0E5
:1031900030BC1EF020031CBF1DF1080DBDE8F00F70
:1031A00004B07047A5EDF5FE084BDA6882F07F4267
:1031B00082F47F0242F48042DA6000221A765A7664
:1031C000DA76DA77602283F82220704700ED00E09B
:1031D000009A0A4B9A420FD10122904301460246BF
:1031E0000346044605460646074680468146824613
:1031F0008346844686460447FEE70000A5EDF5FEBB
:103200002DE9F041044618B943F6DA30BDE8F08103
:103210000029F9D08368002513F4406F14BF0123FF
:103220000023134F43F00203DFF848800B6000F1E6
:103230003806236AAB4201D80020E7E71421A369CE
:10324000E26906EB830301FB02330C226A439918FF
:103250008968090709D59B58BB4201D04345D3D1A2
:10326000186810B10121FFF71FF80135E1E700BF31
:10327000BC100020B410002070B5324C86B032482B
:10328000FFF7F7FA236801255A1C01932F4B2260A0
:10329000DA681B694FF44076039300232A4801A99A
:1032A00002920495ADF814608DF81630FFF7A2FA7B
:1032B00018B143F6DA3006B070BD23688DF81600F9
:1032C0005A1C0193224B20480293224B01A9CDE9BD
:1032D00003352260ADF81460FFF78CFA0028E8D1BE
:1032E00023688DF816005A1C01931B4B1648029355
:1032F0001A4B01A9CDE903352260ADF81460FFF740
:1033000079FA0028D5D123688DF816005A1C01934C
:10331000134B0D480293134B01A90393022304930B
:1033200040F201132260ADF81430FFF763FA04464F
:103330000028BED12A4629460348FEF701FF204651
:10334000B9E700BF2C1A0020B0100020A83B0300F2
:10335000803C0300E0620300000B0300000B03004D
:10336000000C0020200C0020014B1868704700BFA3
:10337000A83B0300014B1B6818687047A83B03007B
:10338000014B1B6858687047A83B030008B5FEF75F
:10339000A5FFFEF70BFF0A4B5A68103AD3B212068C
:1033A00009D401215A0903F01F03994002F1600377
:1033B000044A42F82310BDE8084000F013B900BFEA
:1033C00000ED00E000E100E00020034BD8765A6AEF
:1033D00042F470225A62704700ED00E00349044B4A
:1033E000CA68002092B21343CB60704700ED00E042
:1033F0000800FA05064BD3F8D02022F00102C3F8EA
:10340000D020D3F8D02042F00202C3F8D020704779
:1034100000ED00E037B50124FEF7DAFE124D22463A
:103420000523124912480094FEF7F0FE22460723B6
:103430004FF000500F490094FEF7FEFED5E9010160
:10344000072300220094FEF7E1FE072300220A4929
:103450000A480094FEF7F0FE2969E8680139FEF792
:1034600005FF002003B030BDA83B0300FF7F030031
:1034700000020300FF3F0020FFFF03200040002068
:1034800038B500240D4D002155F8040B0134FEF72A
:1034900019FF1D2CF7D100200122094BC3F880042D
:1034A000C3F88424C3F8C004C3F8C42440F2011252
:1034B00003F55833C3F8402538BD00BFBC3B0300BB
:1034C0000030005000224FF0FF300D4B02F1A00100
:1034D0000132102A43F82100F8D1D3F880220020CD
:1034E00022F00802C3F88022D3F88022D3F8802289
:1034F00022F40072C3F88022D3F88032704700BFF4
:1035000000E100E008B5FEF735FE0822024BC3F8E3
:1035100080211A60002008BD00E100E00122014B7B
:103520001A607047301A002010B50446094B2289F2
:10353000186861680623406800F05DF928B9064BF9
:103540001B68012B01D1FFF7A3FA6FF086032360FC
:1035500010BD00BF181A0020301A002001F00C0323
:1035600070B50C2B0CBF154605464A060C461ED5F9
:103570008B0658BF2835AB6913F8026C84F008033A
:10358000C3F3C003C6F38012934201D000F02AF8BF
:1035900016F0A00F1CD176B1032E15D032461C2197
:1035A0000D48FFF7BBF96FF083032B600AE000F0D2
:1035B00019F82026E2E7FFF7BDFA0446014607485E
:1035C00000F0F1F9204670BD2846FFF7ADFFF9E79E
:1035D00032461F210248E4E7303C0300F80B00208C
:1035E0004C3C0300FFF772B903689A68DB6812F479
:1035F000806F05D18B422CBF00206FF0FA0070471E
:103600008B420CBF00206FF0FA00704710B500F03D
:10361000D8F8044600F0E6F850B9FFF739FAA36885
:103620005B681B685B68834218BF0024204610BD9E
:103630000024FBE738B5054648B1FFF76BFDB5EB55
:10364000D07F044601D0FFF7CDFF204638BDFFF7FD
:103650001FFAF4E770478230012808B506D8FFF753
:1036600021FA18B9BDE80840FFF7BCBF08BDF8B59E
:1036700005460E46FFF7CAFF044608B9FFF7B2FF3A
:10368000A7680FB9FFF7AEFFE368991C4BD05A1C2F
:1036900026D1002E44D016F1820F19D10223012524
:1036A0002360EFF3108772B631462046FFF7E0FC47
:1036B000064687F310882368022B1CBF0023236073
:1036C00025B100232046236000F08EF83046F8BD77
:1036D00016F1830FE2D0FFF785FF00250026E0E713
:1036E000002BF8DB002304F1280252F8041F19B163
:1036F000E16F106C194448600833202BF5D13B680A
:103700009D6815F4007502D002230125236016F18F
:10371000810FC6D16369002BC3DBFFF763FFC0E7EE
:103720002E460025F3E70125D8E708B5FFF7CEF8C8
:103730006FF0830008BD2DE9F3410E461746984609
:103740000546FFF7AFF9FFF775FF2946024601A8C6
:10375000FFF7B8F9044660B943463A463146019846
:10376000FFF704FB044640B16B0002D5019800F05E
:103770003BF8204602B0BDE8F0810198FFF754FC09
:103780000122019B04461A60F3E740F201107047E2
:1037900070B50546FFF786F906462846FFF728F973
:1037A000044608B9002070BD014632462846FFF79E
:1037B00035F90028F6D12368D868F4E74FF4805033
:1037C0007047B0F5805F03D1EFF30B80803870470E
:1037D000002070477047EFF30B8000F1800383F304
:1037E0000B88704700207047EFF30B83803B83F317
:1037F0000B88704770472DE9F0410F461546002AA7
:103800005BD0002900F08D8003F00602062A57D015
:103810009A0740F1868008249B0648BF44F01204B2
:10382000860758BF44F00404C00709D5EFF394831A
:10383000D9074CBF44F0040424F0040444F01204FB
:1038400022462946384602F029FAB0BB47E800F282
:1038500005EB0708110E120208F1FF3646E800F3E7
:103860004FEA13605AD51B0258D5884256D047E814
:1038700000F546E800F6FFF714F82D0E85424FEAF2
:10388000166628D3FFF70FF8864224D82846FFF79C
:1038900003F82246C7F101010144384602F0FEF95F
:1038A000E0B30135AE420DD83046FEF7F3FF2246B5
:1038B000A8EB000102F0F2F980B30020BDE8F0812E
:1038C0000124A9E72846FEF7E5FF0746FEF7EDFFCE
:1038D00022460146E1E7FEF7F0FF85421ED3FEF7E0
:1038E000EEFF86421AD82846FEF7D8FC2246C7F1DA
:1038F00001010144384602F0D1F978B10135AE42F8
:1039000003D83046FEF7D4FFD1E72846FEF7D0FFB4
:103910000746FEF7D6FF22460146EBE76FF07F0031
:10392000CCE74CF2DA20C9E710B50446FFF762FD98
:10393000FFF770FD10B143F6DA3010BDFFF7A0FDC0
:103940000028F8D1FFF798FC0028F4D10223236067
:10395000F3E708B5FFF738FD10B143F6DA3008BDDC
:10396000FFF73CFD0028F8D100F01CF80028F4D146
:1039700062B6FDF793FBFFF7A5FD0028EDD1FFF739
:10398000C1FD0028EBD0E8E7EFF30880EFF30981F1
:103990002DE9F00F6B467246FDF7DEFA08B0FFF72F
:1039A000F5FCFEE7704704460D46A546284783F31D
:1039B000088896460222EFF31483134383F3148896
:1039C000BFF36F8F0847000001464154414C20452A
:1039D00052524F523A2000486172644661756C74CD
:1039E0000D0A004D656D4D616E61676520666175FC
:1039F0006C740D0A004275734661756C740D0A0093
:103A000055736167654661756C740D0A0053656393
:103A10007572654661756C740D0A00526573657246
:103A200076656420457863657074696F6E20005018
:103A30006C6174666F726D2065787465726E616C0E
:103A400020696E7465727275707420284952516EC7
:103A5000293A2000D9100300732603009D130300A8
:103A6000111103008B260300972603002911030080
:103A700077260300F910030005110300DD11030090
:103A80007D26030081260300872603000500000031
:103A90000400000104020202000000000000000017
:103AA0000338FDD87047506C6174666F726D2045A5
:103AB0007863657074696F6E3A0D0A00416C6C2012
:103AC00070696E732068617665206265656E20633B
:103AD0006F6E66696775726564206173206E6F6EC4
:103AE0002D7365637572650D0A000000000000000B
:103AF00000020000000400000006000000080000B2
:103B0000000E000000100000DEE61E284CBBCE8F29
:103B1000025B000000000300000200000002FF0042
:103B20002C0000003001FF00080000000881FF00A9
:103B3000F8020000303132333435363738394142FB
:103B4000434445461B5B313B33346D426F6F7469B0
:103B50006E672054462D4D2076322E322E301B5B60
:103B6000306D0D0A001B5B313B33346D5B53656375
:103B7000205468726561645D2053656375726520C9
:103B8000696D61676520696E697469616C697A69DC
:103B90006E67211B5B306D0D0A00000018120020BB
:103BA00000120020180403000080030000800300BE
:103BB000FFFF0F00007C0300008003000040005066
:103BC000005000500080005000A0005000B0005095
:103BD00000E0005000F000500000015000100150C3
:103BE0000040015000500150007001500080015011
:103BF00000B0015000C0015000D0015000E0015061
:103C000000F001500000025000100250002002504D
:103C1000003002500040025000600250008002500C
:103C200000A00250009003500025845000A00350D3
:103C3000556E6B6E6F776E2053504D205356432058
:103C40007265717565737465643A2000556E6B6EAC
:103C50006F776E20535643206E756D6265722072C9
:103C600065717565737465643A2000FFFFFFFFFF9F
:103C7000FFFFFFFFFFFFFFFFFFFFFFFFFFFFFFFF54
:103C80000348044B834202D0034B03B118477047EB
:103C9000A0110020A0110020000000000548064BE4
:103CA0001B1AD90F01EBA301491002D0034B03B13A
:103CB00018477047A0110020A0110020000000004C
:103CC00010B5064C237843B9FFF7DAFF044B13B164
:103CD0000448AFF300800123237010BDA01800201A
:103CE00000000000CC62030008B5044B1BB104497E
:103CF0000448AFF30080BDE80840CFE700000000B3
:103D0000A4180020CC620300A3F5803A704700BFDE
:103D1000174B002B08BF134B9D46FFF7F5FF002103
:103D20008B460F461348144A121A02F004F90E4B40
:103D3000002B00D098470D4B002B00D09847002057
:103D4000002104000D000D48002802D00C48AFF3FC
:103D5000008002F01BF820002900FEF70BFE02F0A5
:103D600001F800BF00000800000000000000000093
:103D7000F80B0020A0110020902800200000000077
:103D800000000000009A074B9A4208D110B502F0DB
:103D9000F5F802F021F806BC96460C46744702F08E
:103DA00031F90000A5EDF5FE009A074B9A4208D1C3
:103DB00010B502F0EFF802F00FF806BC96460C467C
:103DC000744702F01FF90000A5EDF5FE0CB4029A4D
:103DD000084B9A420CD14FF0004319430CBC10B56C
:103DE00000F022F801F0F8FF06BC96460C46744736
:103DF00002F008F9A5EDF5FE009A044B9A4202D1B3
:103E000003490868744702F0FDF80000A5EDF5FECF
:103E100030610300009A034B9A4200D1744702F0CC
:103E2000F1F80000A5EDF5FE2DE9F84304460D4636
:103E300016461F46EFF30583C3F308030BB1FFF7E4
:103E4000D1FBDFF834903B46204632462946D9F86C
:103E50000080FFF770FCD9F800300446984506D082
:103E60009B6901461869BDE8F843FFF700BCFFF7FE
:103E7000F2FB2046BDE8F883181A0020014B1B68AE
:103E8000184700BFC8100020024B1860024B0020EA
:103E900019607047CC100020C8100020014B18603A
:103EA00000207047C410002010B50A46044619B11E
:103EB000024B00211B68984710BD00BFD0100020A6
:103EC000074B0A465978022906D11978072903D1E8
:103ED0000146181D02F0DCB86FF08800704700BF83
:103EE000341A002010B5124C2378590744BF23F030
:103EF0000403237023789A0705D500F063F823782C
:103F000023F002032370637813B10A4802F0D1F85A
:103F10000023042107486370FFF7C6FF2378DB07FF
:103F200005D502F0B2F8237823F00103237010BD09
:103F3000341A0020381A002038B51C4D6A782B78C6
:103F4000022A01D1072B12D0D80713D52B78990755
:103F500007D400F02FF82B78044643F002032B70AF
:103F600088B96A782B788AB12B785A0719D500243A
:103F7000204638BD02F087F82B78044643F0010351
:103F80002B700028E2D0FFF7ADFFF1E7DB07EBD5A0
:103F9000074802F07BF8022304466B700028F2D138
:103FA000E2E743F004032B70E1E700BF341A00207E
:103FB000381A00200122024B002083F88025704728
:103FC0003C1A00202DE9F0410A4C002526464FF00E
:103FD000010803272046C4F820802777013502F026
:103FE00035F8202D04F12C04F4D1002386F8803517
:103FF000BDE8F0813C1A002010B50C4C236813B1C9
:104000000B4B1B682BB900F089FC30B90122084B1F
:104010001A6001232360002010BD0138062801D951
:10402000044810BD044B53F8200010BDD81F0020D9
:10403000D41F0020FE8FFFFF34610300144B2DE9D5
:10404000F043002814BF04461C46124F236883B077
:10405000BB4219D016460D4620464FF4147104F1A8
:10406000040900F047F804F58E78484600F0CEF8D1
:10407000404600F019FA2B464A464046064900964B
:1040800000F034FB08B92760002003B0BDE8F083DE
:10409000DC1F0020A5BCC95A9142030070B50D4C2D
:1040A0001D46002814BF064626460B4B306882B0DA
:1040B00098420DD106F58E700026334600961446C0
:1040C00000F03EFB002818BF34462C6002B070BDE3
:1040D0000248FBE7DC1F0020A5BCC95AE88FFFFFA0
:1040E00038B131B1002201440346013081421A70D7
:1040F000FAD1704738B131B1002201440346013092
:1041000088421A70FAD170472DE9F043202B1D46E2
:104110000646884691468BB026D8DBB202AF8DF8B2
:104120000480B04658F8041B8DF8053021B940468C
:1041300001F038F9044640B90123022240463360B9
:1041400001A901F043F9044638B138462021FFF7B0
:10415000D1FF20460BB0BDE8F0832A4649464046D1
:1041600001F034F90446F0E702AF19461046002387
:104170003A4601F0B1FA04460028E6D12023B946B8
:104180001D46CCE72DE9F041D0F8F830A6B0002B61
:10419000D8BF02AE31DD05460027D0F80C4102AE93
:1041A000A4F101089022D5F8FC403146D0F8000176
:1041B00001AB0197B8FA88F8A0474FEA58180446AF
:1041C00020B9019B53B9B8F1000F16D030469021A9
:1041D000FFF790FF204626B0BDE8F0810146324649
:1041E0002846FFF791FF58B9D5F80431019A1344D6
:1041F000C5F80431B8F1000FE8D16FF03C04E5E7F1
:104200000446204626B0BDE8F08100BF70B5002509
:104210000446142204F588762946C0F8F850FC308C
:1042200001F089FE08222946304601F084FE144B35
:1042300030461B689847204640F8045B01F098F828
:10424000104B30461B689847C8B9D4F8F830AB42D9
:104250000FDC03EB830204EB82022021C2F8000191
:104260000120C2E9421008490133C2F8FC10C4F829
:10427000F830064B3046BDE870401B68184770BDEB
:10428000F0100020EC10002075520300E810002010
:104290002DE9F047202A88B07AD83F4B00F588797D
:1042A00004461B6848461746884698470546F8B9AD
:1042B00040F20116D4F8F830002B65D02046FFF705
:1042C00061FF054638B9D4F8F830002B14DC013E04
:1042D000F2D16FF03B056E4620213046FFF70AFF12
:1042E0002E4B48461B689847002818BF6FF01D05E5
:1042F000284608B0BDE8F087D4E94132934203D3A1
:10430000D4F80C21012A02D0013ED7D1E1E71F2BBE
:10431000FAD96E4601462022304604F1040A01F023
:104320000AFE3146504601F07BF805460028D3D1FD
:10433000504601F031F8504601F01AF8294650462F
:1043400001F030F805460028C6D1504620223146FB
:1043500001F03CF805460028BED103463246202134
:10436000304601F0B9F905460028B5D1D4F8F83047
:104370003A46002BC8BF002340463146C8BFC4F8A8
:10438000043101F0B3FDA7E76FF03F056E46A3E7E8
:104390006FF03B05ACE700BFEC100020E8100020F8
:1043A00070B590B000287AD03E4C0D4640223621A0
:1043B0000646204601F0BFFD40225C21A01801F016
:1043C000BAFD2B1DA34203D904F144039D4252D3ED
:1043D0002B682268534023602B68226C534023646F
:1043E0006B686268534063606B68626C53406364DF
:1043F000AB68A2685340A360AB68A26C5340A3644F
:10440000EB68E2685340E360EB68E26C5340E364BE
:104410002B69226953402361226D2B695340236528
:1044200062696B69534063616B69626D5340636598
:10443000AB69A2695340A361AB69A26D5340A36508
:10444000EB69E2695340E361EB69E26D5340E36578
:104450000021304600F0A6FF044628B9402230462D
:10446000104900F0B3FF044640216846FFF742FEC2
:10447000204610B070BD631E04F13F01013D1F34A2
:1044800015F8010F13F8012F42401A7011F8012F8F
:104490002878A34282EA00020A70F1D1D8E76FF0CF
:1044A0007304E5E72C22002010B54FF49A72002126
:1044B000044601F040FD42F21072044BC4F8202182
:1044C00004F596701B68BDE810401847F0100020F6
:1044D0002DE9F04F04468846914695B0002900F03A
:1044E000A780002A0CBF0126022600238DF80C307D
:1044F000002C00F09F80DFF844A104AF0AF1400BCC
:104500000021204600F04EFF034648B138462021E6
:104510000193FFF7EFFD019B184615B0BDE8F08F42
:1045200040225146204600F051FF03460028EDD1BD
:1045300004F1F40520222946204600F047FF0346F7
:104540000028E3D10122204603A900F03FFF0346E3
:104550000028DBD1022E62D020460CA900F060FFBB
:1045600003460028D2D10146204600F01BFF034637
:104570000028CBD140225946204600F027FF0346B1
:104580000028C3D1202220460CA900F01FFF0346BB
:104590000028BBD13946204600F042FF03460028E0
:1045A000B4D139462046FFF7FBFE03460028ADD1C3
:1045B00020222946204600F009FF03460028A5D105
:1045C00020460CA900F02CFF034600289ED101468E
:1045D000204600F0E7FE0346002897D140225946C6
:1045E000204600F0F3FE034600288FD1202220460B
:1045F0000CA900F0EBFE0346002887D1294620468F
:1046000000F00EFF0346002880D19DF80C200132F7
:10461000D2B2B2428DF80C20FFF472AF76E74A4670
:104620004146204600F0D2FE0346002894D06DE7B4
:1046300001265AE76FF0730304AF67E72C220020CE
:104640002DE9F0410446884615461F46D0F818016A
:10465000E0B013B100EB40004008B5F5807F3ED8D4
:104660002844B0F5C07F3AD84FF4C07200216846A4
:1046700001F061FC6946D4F82431D4F81821D4F84B
:104680002801984770BBD4F8186157B1D4E9493074
:1046900072080DEB0601984720BBD4F8183106EBE1
:1046A0005306B8F1000F00D08DB932466946204656
:1046B000FFF70EFF054610B90123C4F81431314647
:1046C0006846FFF717FD284660B0BDE8F0810DEBA6
:1046D000060041462A462E4401F008FCE5E76FF04B
:1046E0000405F0E76FF00805EDE700BF2DE9F0479E
:1046F000044604F1F4050F4691461E46DDF820807D
:1047000000F036FE29462046FFF74AFE08B1BDE814
:10471000F08728462022012101F00DFCD4F8183141
:10472000C4F82471C4F8289113B92023C4F81831AF
:10473000424631462046BDE8F0470123FFF780BFDF
:10474000B2F5806F00F295802DE9F04F89B09A465E
:10475000129BB3F5807F00F29080D0F8243116468A
:1047600004460F464BB3D0F81C31012B05D0D0F8CE
:104770001421D0F820319A421FDD514600232046F3
:10478000129AFFF75DFF014698B900231293002E9D
:104790005ED0DFF8EC9009F1400B0021204600F0DC
:1047A00001FE202E3546014628BF202504F1F408DD
:1047B00090B1084609B0BDE8F08FBAF1000FE6D01D
:1047C000129B002BE1D051461A462046FFF780FE8F
:1047D00001460028DBD0ECE749464022204600F0A5
:1047E000F5FD01460028E4D141462022204600F094
:1047F000EDFD01460028DCD16946204600F010FEA0
:1048000001460028D5D1204600F0CCFD0146002805
:10481000CFD159464022204600F0D8FD014600285D
:10482000C7D169462022204600F0D0FD014600286D
:10483000BFD14146204600F0F3FD01460028B8D123
:1048400038462A46414601F051FB761B2F44A4D13D
:1048500051462046129AFFF73BFE01460028A8D198
:104860000846D4F814310133C4F8143109B0BDE856
:10487000F08F6FF00201084670476FF0040198E76F
:104880002C220020002130B58DB0282202A80191F1
:1048900001F051FB02A800F047FF044610B120468A
:1048A0000DB030BD174D4FF0FF31286800F042F9D0
:1048B000044620B1144800F0D3F9012C18D0002090
:1048C00000F068F9D0B9114A02A901A800F0C4FCAF
:1048D0000446012000F05EF960B9286800F032F962
:1048E0000028DCD00A4800F0BBF920460DB030BDEE
:1048F0000524F2E7074800F0B3F9EEE7064800F0B8
:10490000AFF9E0E7D410002050610300AC22002092
:10491000A8610300886103006861030030B583B0BB
:1049200000F05CF828B100F0ABF80324204603B097
:1049300030BD00F077F8D8B900F02CF9E0B9224C7E
:10494000D4F828391B0EF02B0AD1D4F8242A1F4B97
:104950009A4231D000F044F8072400F091F8E5E7DE
:10496000062400F03DF800F08BF8204603B030BD7F
:104970000424204603B030BD00F032F800F080F887
:10498000FFF780FF044698B9114D2B68002BCDD15D
:1049900002460146FFF752FB50B968220D4901ABB0
:1049A000FFF77CFB20B920460B4B2B6003B030BDDA
:1049B0000524204603B030BD012000F0EBF80028AC
:1049C000DAD1C4F80C0ADBE7001084500000E020C4
:1049D000CC240020D02400205AEA5A5A00207047E4
:1049E00000207047430504D54FF0FF32034BC3F856
:1049F0000821024BC3F8080A704700BF001084501A
:104A0000014BC3F8040A70470010845008B100F04D
:104A10006BB84FF47500704708B100F04FB84FF411
:104A20007500704710B5114800F070F800B110BD66
:104A30000F4800F06BF80028F9D10E4C204600F02A
:104A400065F80028F3D10C4B0C481C6000F05EF8B0
:104A500001460028EBD100F02DF8044608B12046AD
:104A600010BD00F079F82046FAE700BFE4100020FE
:104A7000E0100020DC100020D4100020D81000200E
:104A800008B5084800F04CF8074800F049F8074816
:104A900000F046F8064800F043F8BDE8084000F092
:104AA0000BB800BFE4100020E0100020DC10002054
:104AB000D810002000207047704700BF024610B495
:104AC000084CD4F8003A1342FBD021B1D4F8043199
:104AD0000B60C4F80831034B0020C3F8082A10BC4F
:104AE000704700BF00108450044AD2F8003A1842C0
:104AF000FBD0C2F8080A0020704700BF00108450A5
:104B000001F0BEB90A46002101F015BA08B5034B01
:104B100002681B6810689847002008BD101100202B
:104B200008B5034B02685B6810689847002008BD11
:104B300010110020024B02689B681068184700BFE4
:104B40001011002008B5034B0268DB681068984715
:104B5000002008BD1011002070B5094C094D2069D6
:104B6000AB68984718B1084B08485B689847002124
:104B7000074AEB6811602069BDE87040184700BF24
:104B8000FC10002010110020F4100020C061030070
:104B900038250020F8B51A4D1A4E0446B268286927
:104BA0009047E8B9184F3B684CB1A3B1012B19D01D
:104BB000013B3B602869F36898470020F8BD43B982
:104BC0000121124AC2F800151149D1F81029002A12
:104BD000FBD101333B60F368286998470020F8BD9A
:104BE0000C48F8BD0A4AD2F81039002BFBD1074A0D
:104BF0006FF07E40C2F80035FFF702FF3B68D7E751
:104C0000FC100020101100203825002000008450E6
:104C100000108450E98FFFFF014B1B68184700BF4D
:104C200010110020014B9B68184700BF1011002095
:104C3000014BDB68184700BF10110020BFF34F8FF6
:104C40000549064BCA6802F4E0621343CB60BFF328
:104C50004F8F00BFFDE700BF00ED00E00400FA0544
:104C600030B44FF0FE320025074B084C0849496824
:104C7000C3F80024C3F80424C3F80824C3F80C24A0
:104C8000C4F8005530BC0847001084500000845020
:104C9000F410002010B5044650B1636813F0685F4B
:104CA00005D0064A934202D000236260236010BD03
:104CB000034B04485B689847EFE700BF2C5F5CA993
:104CC000F4100020E0610300C8B143680D4A93422C
:104CD00013D013F0685F0ED0012350E8002F19465F
:104CE00040E8001C9CF0000FF7D1012AF5D0BFF37B
:104CF0005F8F0020704704487047044870476FF486
:104D0000E04070472C5F5CA9E98FFFFFEA8FFFFF4F
:104D1000034680B1426809498A420AD012F0685FAE
:104D200005D0BFF35F8F002210461A607047044819
:104D30007047044870476FF4E04070472C5F5CA9EF
:104D4000E98FFFFFEA8FFFFF10B5044620B1002373
:104D5000034A2360626010BD0248FFF781FFF6E757
:104D60003A00003A086203002DE9F047002878D0A5
:104D70000C46002975D01D46002B72D007461AB18B
:104D8000012200232A6003602B68002B64D029468F
:104D9000204600F0B7FD804600285FD121462868F4
:104DA00000F096FD8046002858D12B68082B6CD067
:104DB000042B6DD0A3F10209B9FA89F94FEA591908
:104DC0000121354EC6F8C411C6F84011C6F8C41109
:104DD000636AC6F83031D6F830219342F6D14FF0ED
:104DE000000A4FF0FF30C6F82CA1FFF7FBFD6FF073
:104DF0001B035046C6F80031FFF702FEC6F80C91BF
:104E0000D6F8040A40F48060FFF7FAFD0A23C6F8DA
:104E10003831089B012B29D02369204AA2FB0323A8
:104E20001B09626A404602FB03F303EB43031A4A81
:104E3000DB039B09C2F8D8310123C2F82C313B684F
:104E40002A6823F07F4343EA02633B602A6843EA0F
:104E500002233B60BDE8F087DFF844804046BDE8B0
:104E6000F087DFF840804046BDE8F0874FF47F03CD
:104E7000D3F80C2C013206D0D3F80C3C074AA2FB25
:104E800003231B09CDE71623CBE74FF0030997E770
:104E90004FF0020994E700BF00108450ABAAAAAA01
:104EA000310CF100350CF10058B34B1EB3F5047F03
:104EB00027D230B54FF0000ECD00744671464B0935
:104EC00001F01F0C50F82330BCF11F0F23FA0CF334
:104ED00006D003F0010319B901211C468E46EEE706
:104EE0009C4201F1010106D01C464FF0010EA9427F
:104EF000E5D1002030BD0EF1010E9645F7D10248F4
:104F000030BD0148704700BF360CF100C0B32DE939
:104F1000F0434C1EB4F5047F1DD2E3B1DAB1002595
:104F20002E46A8462C46CF0003F1FF394FEA541C09
:104F300004F01F0E50F82C10BEF11F0F21FA0EFCCA
:104F40000CD00CF0010C4CB90126E0463446354635
:104F5000ECE7964216D90C48BDE8F083AB420BD083
:104F6000C44508BF0136A945F3D001350134BC4220
:104F7000DCD10020BDE8F0830125E0462E46F5E7B0
:104F8000014870471D46F1E7370CF1002DE9F04F5D
:104F900091B08346DDE91B460D46002E6ED10F69A8
:104FA0001C6000231A990B60002A00F02F819D4B92
:104FB0006A6AD3F83811D3F830319A4269D10A2994
:104FC00067D19BF80330089304F108030793042387
:104FD0000593954B934CA3FB07239B0803EB4303DB
:104FE000A7EB4303039306971A9B069E1E60002EB1
:104FF00000F0EA8000F096FC00230993BBF1000F5B
:1050000000F0D58098464FF0010ADDF81C90002D85
:1050100000F0CD80089B002B3DD0284608A900F069
:1050200071FC002839D0814B984220D0089B082B76
:1050300000F0E48000225B000893294608AB584644
:105040000092FFF791FE7A4B984200F0D38070B93E
:10505000DBF80020130A03F47F03134323F07F439C
:10506000CBF80030059B013B0593BDD10020039098
:1050700000F058FC039811B0BDE8F08F4FF47F01A9
:10508000D1F80C0C01300CBF4FF40477D1F80C7C34
:1050900086E76848EBE76648C5E72946089800F0C8
:1050A00017FC0028BFD1089B082B00F0A980042B17
:1050B00000F0A980A3F10203B3FA83F35B09049320
:1050C000C4F8C4A1C4F840A1C4F8C4A16B6AC4F870
:1050D0003031D4F830219342F6D100234FF0FF3025
:1050E000C4F82C31FFF77EFC002318466FF01B0339
:1050F000C4F80031FFF784FC049B4B4FC4F80C311B
:10510000D4F8040A40F48060FFF77AFC0A23C4F85C
:1051100038312B6909A8A7FB03236A6A1B0902FB24
:1051200003F303EB4303DB039B09C4F8D831C4F852
:105130002CA1DBF80030089923F07F420B0243EAF0
:1051400001631343CBF8003000F0B2FB099B03F07E
:105150001A0303437FF46AAFA7FB0637D4F8143170
:10516000B8EB970F0A93D4F818310B93D4F81C318D
:105170000C93D4F820310D93D4F824310E93D4F845
:1051800028310F9301D1039B9BB9484618220AA9E5
:10519000183EFFF7B5FC09F1180908F101089EB1A6
:1051A00000F0C0FB00230993002D7FF433AF2248A9
:1051B00039E748461A46F61A0AA9994408F101083F
:1051C000FFF79EFC002EEBD1069F079E6A693946C9
:1051D0003046FFF769FEAA6940B94FF4806339464B
:1051E0003046FFF793FE00283FF440AF00231A9AA1
:1051F000136018E72B6A002B3FF439AF0F4836E7EE
:10520000032304935CE70223049359E70122294610
:105210005846009608ABFFF7A7FD00283FF4D4AE30
:1052200025E700BF00108450ABAAAAAA020CF10027
:10523000310CF100300CF100350CF100320CF100B2
:1052400010B4DDE9013401940024DDF80CC0CDE98F
:1052500002C410BCFFF79ABE30B51546012487B0D2
:1052600005AB00930022CDE9015404ABFFF78EFE9D
:1052700007B030BDF0B587B0002966D01E46002BC0
:1052800063D01446002A60D0314F0D4638684FF085
:10529000FF31FFF74FFC00284DD10020FFF77AFCCB
:1052A000002844D12B4800F03FFAD8B101204FF03C
:1052B000FF35FFF76FFC002835D14FF40871264801
:1052C000FEF70EFF04212548FEF70AFF214828219A
:1052D000FEF706FF3868FFF735FC00282FD1284677
:1052E00007B0F0BD1C4A0346029205AA019204AA27
:1052F00003900092174902461848FFF7A1FF0346A2
:105300000028D3D128461D46059B22469C4228BF33
:105310001A46049932600831FFF7F2FB0120FFF7CB
:1053200039FC0028C9D00E48FFF79AFCC5E70D48A4
:10533000FFF796FCB6E70C48FFF792FCADE70B4889
:10534000FFF78EFC284607B0F0BD4FF0FF35C6E7EB
:10535000D410002050250020782500204C25002066
:105360008861030068610300506103002C62030040
:1053700010B5044628B12046BDE81040F421FFF7DF
:10538000C1BB0448FFF76CFC2046BDE81040F42187
:10539000FFF7B8BB4462030010B1F421FEF7A0BED2
:1053A000704700BF08B521B1012908D06FF0360061
:1053B00008BD012100F058F80028F7D108BD0221EE
:1053C00000F052F80028F9D0F0E700BF30B50546EC
:1053D0008818B0F5801F0B461446A1B001D8802A6A
:1053E0000CD9B3F5801F17D922461946284600F07C
:1053F0007DF8044684B9204621B030BD6846FFF7E9
:105400007FFB22466946284600F070F8802104465A
:105410006846FFF777FBEDE76FF03604EBE700BF78
:1054200070B5E8B10E46D9B1044600F031F8054632
:10543000B0B92368012B0BD0022B01D0284670BDD8
:105440001C22304604F10801FFF75AFB284670BDC4
:105450002022304604F10801FFF752FB284670BDB8
:105460006FF03605EAE700BF78B138B50D46F02198
:105470000446FFF747FB402320462560E36500F024
:1054800091FA003818BF012038BD0120704700BFD5
:10549000F0B5056EA5B0044604AEE5B900230127BA
:1054A000019330466760294602AA009300F046FA4D
:1054B00010B1012025B0F0BD2A46204602A900F017
:1054C00099FA0028F5D1204600F0AAFB0028F0D177
:1054D000206625B0F0BD802D2A46304628BF8022A8
:1054E00004F16401FFF70CFB256ED7E7002800F0FC
:1054F000AE802DE9F04F1446A5B0002A3DD00F46EE
:10550000002949D0B2F5803F0546006E20D34FF602
:10551000FF7805F1640AEB6D1A1AB2FBF3F103FB95
:105520001122002A65D18342B9464FF6FF7672D028
:10553000B6FBF3FB03FB0BFBBBF1000F30D1002EDE
:1055400045D1A4F57F44FF3CB4F5803F4744E2D207
:10555000EA6D161AB6FBF2F302FB1366A64228BFE9
:105560002646002E75D1824200F08D80B4FBF2F603
:1055700002FB06F62EB9002C79D1002025B0BDE83B
:10558000F08F002331463846CDE9003302AA00F0FF
:10559000D5F9002800F09580012025B0BDE8F08FF6
:1055A000002359464846CDE9003302AA00F0C6F967
:1055B0000028F1D15A46284602A900F01BFA00281B
:1055C000EAD1A6EB0B06286ED944002EB9D01930CB
:1055D0004946324605EB8000FFF792FAA4F57F4476
:1055E000286EFF3C3044B4F5803F4744286692D291
:1055F000AEE7424528BF4246164639465044FFF7BB
:105600007FFA286EEB6D3044834207EB060928666B
:10561000A8EB06068CD1802B28BF802351461A4662
:1056200004A8FFF76DFA0023E96D02AACDE9003363
:1056300004A800F083F90028AED12846EA6D02A93B
:1056400000F0D8F90028A7D1EB6D286670E701209B
:10565000704705F16403394632461844FFF750FAA3
:10566000286EEA6D3044A41B374428667BE72B6E16
:105670002246193305EB83003946FFF741FA2B6EBA
:1056800023442B6679E7802A28BF802205F1640134
:1056900004A8FFF735FA0023E96D04A8CDE900332B
:1056A00002AA00F04BF900287FF476AF2846EA6D95
:1056B00002A900F09FF900287FF46EAFEA6D28661A
:1056C00054E73246284602A900F094F900287FF4F6
:1056D00063AF3744A41B4EE7F8B51C460546114896
:1056E00016460F46FFF744FE21460E48FFF75AFEC6
:1056F000044620B10B48FFF74FFE2046F8BD3A465E
:1057000029460848FFF762FE04460028F2D13146D8
:105710000448FFF785FE04460248FFF73DFE204699
:10572000F8BD00BF982700201C2370B582B001A9E6
:105730000546019300F032F8044638B9019B1C2B52
:1057400007D0144C1C212846FFF7DCF9204602B094
:1057500070BDD5E90112131E18BF0123003918BF0F
:105760000121012628689B00EA6843EA41030028DA
:1057700018BF43F00103EE612AB9C5E90834002BD4
:10578000E4D1054CDEE7204643F00803C5E90834C0
:1057900002B070BD370CF0000E0CF000034600287C
:1057A00066D0002964D00A681C2A61D14FF47F02B8
:1057B0003B49D2F8100C88425CD0D2F8101C013161
:1057C00058D0D2F8101C4FF47F021960D2F8140C94
:1057D0003449884260D0D2F8141C01315CD0D2F830
:1057E000141C4FF47F025960D2F8181C11F5947FF5
:1057F0004FD0D2F8181C01314BD0D2F8181C4FF4FE
:105800007F029960D2F81C0C274988423ED0D2F81A
:105810001C1C01313AD0D2F81C1C4FF47F02D96015
:10582000D2F8001C70312FD0D2F8001C01312BD0DF
:10583000D2F8001C4FF47F021961D2F8041CAF317A
:1058400020D0D2F8041C01311CD0D2F8041C4FF433
:105850007F025961D2F8080C144988420DD0D2F861
:10586000081C013109D0D2F8082C00209A61704739
:105870000120704740F6FC01A5E740F237320020D6
:105880009A6170475121E2E79021D3E742F6041173
:10589000C3E740F6D861B2E742F2D001A1E700BF0A
:1058A000FCF8FFFFD020FFFF0429FFFF37F3FFFFC5
:1058B000014608B54FF48060FFF7AEF80022034BB5
:1058C000C3F8C821C3F82C2108BD00BF00108450C4
:1058D0000138072805D8DFE800F0100E040A040498
:1058E000040607487047CB6800204B6270478B68FE
:1058F00000204B6270474B68F6E70B68F4E700BF87
:10590000310CF1000B6802E0082B0B6006D8026A2C
:1059100013424FEA4303F7D0002070470048704716
:10592000310CF1000022044B4FF48060C3F82C21AD
:10593000C3F8C421FFF756B800108450F0B5002416
:1059400083B0B0F1005F8DF8074025D38C468444C6
:10595000BCF1804F04461FD817461D4601220DF1A9
:10596000070300F097F90646B0B99DF80730099A89
:105970003C603B7192B14DB10246089928460DF149
:10598000070300F087F938B99DF807303046099AC7
:105990001560137103B0F0BD4FF47506304603B0C7
:1059A000F0BD00BFD8B108B50368012B04D0022BAD
:1059B0000FD043B10B4808BD20220B490830FFF738
:1059C0009FF8002008BD142208490830FFF798F816
:1059D000F7E7202206490830FFF792F8F1E74FF485
:1059E000730070470100F3005462030094620300E7
:1059F000746203002DE9F843002900F0F9800446A1
:105A0000002800F0F98003680F469046002B00F054
:105A1000C380013B012B00F2D7804FF0FF31784863
:105A20004FF00209FFF786F8002840F0BF80002001
:105A3000FFF7B0F80646002840F0C280714AD2F85D
:105A40001C39002BFBD16F4DD5F8203C002BFBD12E
:105A50004FF0FF30FEF7C6FFD5F8040A20F04000F3
:105A6000FEF7CEFF01230722C5F81838C5F8002934
:105A7000C5F8C437A36CC5F8CC37E36CC5F8D0378C
:105A8000C5F8C09723685BB1013B012B18D8636A46
:105A9000C5F85C36236AC5F85836E369C5F854364C
:105AA000A269584BC3F850266269C3F84C26226994
:105AB000C3F84826E268C3F84426A268C3F8402623
:105AC000504AD2F81039002BFBD1B8F1000F5FD04B
:105AD00063684020012B08BFC2F884363A68494BFE
