:020000040000FA
:10000000606D0020052D000071660000F12C0000DD
:10001000F12C0000F12C0000F12C0000F12C00006C
:10002000000000000000000000000000CD2D0000D6
:10003000F12C000000000000F12C0000F12C000069
:10004000152F0000152F0000152F0000152F0000A0
:10005000152F0000152F0000152F0000152F000090
:10006000152F0000152F0000152F0000152F000080
:10007000152F0000152F0000152F0000152F000070
:10008000152F0000152F0000152F0000152F000060
:10009000152F0000152F0000152F0000152F000050
:1000A000152F0000152F0000152F0000152F000040
:1000B000152F0000152F0000152F0000152F000030
:1000C000152F0000152F0000152F0000152F000020
:1000D000152F0000152F0000152F0000152F000010
:1000E000152F0000152F0000152F0000152F000000
:1000F000152F0000152F0000152F0000152F0000F0
:10010000152F0000152F0000152F0000152F0000DF
:10011000152F0000152F0000152F0000152F0000CF
:10012000152F0000152F0000152F0000152F0000BF
:10013000152F0000152F0000152F0000152F0000AF
:10014000152F000053B94AB9002908BF00281CBF69
:100150004FF0FF314FF0FF3000F00CB8ADF1080C5C
:100160006DE904CE00F008F8DDF804E0DDE90223D3
:1001700004B07047704700BF2DE9F04786468C46B3
:100180000846089E154674461946002B40F0C1806B
:100190008542B2FA82F245D94AB1C2F1200300FA8F
:1001A00002FC954094402EFA03F343EA0C0C4FEA0C
:1001B000154EA8B2230CBCFBFEF80EFB18CC08FBB6
:1001C00000F943EA0C43994528D9EB1808F1FF37A9
:1001D00004D2994502D9A8F102072B44A3EB0903E5
:1001E000A4B2B3FBFEFC0EFB1C330CFB00F044EA94
:1001F0000344A04214D92C190CF1FF3304D2A042BD
:1002000002D9ACF102032C44241A43EA07401EB180
:10021000D440002334607360BDE8F0874746DDE7D3
:100220006346F1E792BB431B01214FEA154EAFB283
:10023000200CB3FBFEFC0EFB1C330CFB07F840EA62
:100240000343984561D9EB180CF1FF3004D298456F
:1002500002D9ACF102002B44A3EB0803A4B2B3FB18
:10026000FEFC0EFB1C330CFB07F744EA0344A742D9
:100270004DD92C190CF1FF3304D2A74202D9ACF1AD
:1002800002032C44E41B43EA0040C0E7C2F1200310
:100290009540944020FA03F12EFA03F34FEA154EED
:1002A0009040AFB20343B1FBFEFC0EFB1C10190CD7
:1002B0000CFB07F841EA0041884522D969180CF186
:1002C000FF3004D2884502D9ACF102002944A1EBE9
:1002D00008019BB2B1FBFEFC0EFB1C110CFB07F7E7
:1002E00043EA01439F420ED9EB180CF1FF3104D2CF
:1002F0009F4202D9ACF102012B44DB1B41EA0041D1
:1003000093E76046E3E76146F7E76046A4E76346A4
:10031000B8E7834206D916B9002108467CE7C6E94A
:1003200000E0F9E7B3FA83F78FB9834201D372454E
:1003300008D8BEEB020460EB030301209C461EB903
:10034000002169E73846FAE7C6E9004CF8E7C7F14B
:10035000200CBB400EFA07F522FA0CF42EFA0CF131
:10036000BA401C4320FA0CF3B8404FEA1449014349
:100370001FFA84FEB3FBF9F809FB18300B0C08FBDD
:100380000EFA43EA00439A4540D9E31808F1FF30DA
:1003900004D29A4502D9A8F102002344A3EB0A0330
:1003A00089B2B3FBF9F809FB183308FB0EFE41EAEA
:1003B00003418E452CD9611808F1FF3304D28E45D4
:1003C00002D9A8F10203214443EA0040A1EB0E0147
:1003D000A0FB02984145CE46434602D306D14D4587
:1003E00004D20138B9EB020E68EB0403002EA7D04B
:1003F000B5EB0E0261EB030101FA0CFC22FA07F3E4
:10040000F9404CEA0303C6E9003199E74046C5E7E5
:100410004346D9E77FB5384B384A4921C3F800260F
:100420003748C3F80426C3F80826C3F80C26C3F8D7
:100430001026C3F81426C3F81826C3F81C2606F0A5
:1004400028F800F0B3F800F06BF878B14FF05023C3
:10045000D3F800340BB1DB0708D54921294806F051
:1004600018F801F0F3FE284802F096FA00F032FB8B
:10047000054601A800F0D8FD0446284600F03AFBE6
:10048000224B1B68A34205D04521214806F001F804
:1004900005F06FFD039A49211E4805F0FAFF492136
:1004A0001D4805F0F6FF69469DF8080000F05CF86D
:1004B000009B039C1C44019B1D8903F027FC6619CB
:1004C00001F0E2F801F0B2F801F0CCF8002383F378
:1004D0000B8883F30A88625982F3088883F31488AF
:1004E000BFF36F8FBFF36F8F7368984745210B4839
:1004F00005F0CFFFFEE700BF008001503546526E89
:10050000A28F0000BB8F0000988B00000800002025
:10051000DF8F000002900000319000005690000034
:1005200073B50F4C204608F088F9B8B12569A66864
:100530002B681A2143F080632B6020463368094AF8
:1005400098472046736801A9984720B92B680198FD
:100550005840C0F38060003818BF012002B070BD61
:100560003089000011000100024608B538B1054885
:100570000023452105F08DFF6FF0150008BD0860D0
:10058000FCE700BF7990000021B1012906D06FF08F
:1005900015007047044B53F830007047024B03EBD3
:1005A000C0035868704700BFA08B00004FF4C051D3
:1005B000014804F001B900BFBA1B00202DE9F04F3B
:1005C000DFF81492F9B038A8DDE9848A17461D4691
:1005D000869CD9F8006007F0EBFB002138A804F0F6
:1005E00021FAB8F1000F07D0BAF1000F04DD52462E
:1005F000414638A807F0E5FB4FF000083B897A89AF
:10060000D7F80CB013449B44C34562D80DA938A851
:1006100007F016FC38A807F0CFFB24B120222046B3
:100620000DA906F08AF800232A46009339464FF6B2
:10063000FF7307A805F0C8FB8046002859D128465B
:100640000C9C00F031FA844253D84FF0FF34DFF8AD
:100650008CA10DF1160305AA06A907A805F002FC56
:10066000002846DB40F0AF80069907A805F046FC5D
:1006700050B94FF6FF71BDF81600594A32F8023BE7
:100680008B4236D09842F9D1BDF81670102F3AD06F
:10069000202F74D0012FDCD1BDF81430202B28D8A6
:1006A0002846069938AA05F002FF044608BB9DF8C3
:1006B00014B0BBF1200F09D8DAF80030494F03938A
:1006C000039B1DA89C423DDB07F076FB4FF0FF34F7
:1006D000BFE7839BABEB080A9A4528BF9A46414681
:1006E00053462846829A05F0E2FE28B138A807F062
:1006F00063FBD9F8006069E05246829938A807F098
:1007000060FBD04480E7BDF81470202FF1D13B4648
:100710002846069938AA05F0CAFE0028E9D100F05B
:10072000D9F93A46804638A90DA800F06BF907467A
:10073000404600F0DFF92C4B1B68BB42D9D14FF08B
:10074000010886E707F034FB00211DA804F06AF9D0
:100750007A681DA8126857F8081B07F032FB15A924
:100760001DA807F06DFB5A4638A915A805F0BEFF75
:1007700018B91DA807F020FB6BE70134A0E7631C44
:100780003FF467AFDAF80030A3429FDDBDF81430C4
:10079000B3F5807FADD12846069938AA05F087FECB
:1007A0000028A6D100F096F9E4B283463946BDF898
:1007B000143038AA00940DA800F018F806465846E0
:1007C00000F098F982E7B8F1000F92D000F08AF9B2
:1007D000304679B0BDE8F08F04000020A88B0000FF
:1007E000748F0000AC8B0000080000202DE9F04F52
:1007F000DFF804B2ADF5417D80462AA81E469DF87B
:1008000028738A469146DBF8005007F08AFA0922DD
:1008100001212AA804F082F8784B80AA53F83740C7
:1008200003EBC7035B6805941B6805A81C442146BD
:10083000302306F061FB002840F0D380059B809AAE
:1008400013449C4240F0CD8021462CAA05A806F016
:1008500067FB002840F0C5802EAF3A46214605A828
:1008600006F05EFB0390002840F0BB802CA806F049
:1008700005FF059A2B90944240F0B380039B0197AB
:100880001A4600932CA92AA807F008FA002840F07D
:10089000A8802AA804F058F8002840F0A2802CA8CC
:1008A00006F0ECFE2B902AA807F045FA864240F0AD
:1008B000988000F00FF9B6F5807F0746DBF800500E
:1008C00040F08A80BAF1200F40F08680494680AA25
:1008D0002AA804F05FF8044600287DD19DF8FF3275
:1008E000BC2B79D1DF2606900DF5907A0FA807F082
:1008F0005FFA00210FA804F095F820220DF2DF2105
:100900000FA807F05EFA042206A90FA807F059FA0B
:1009100007A90FA807F094FA202EB146A8BF4FF000
:1009200020099DF81B30504601334A4607A9A6EB23
:1009300009068DF81B3005F000FF002ECA44D5DCF7
:100940000FA807F039FA48AA1046002180AB0678B4
:1009500013F801CB013186EA0C06DF2900F8016BA0
:10096000F5D19DF8203103F07F038DF8203112F886
:10097000016B8EBB0134BE2CF9D19DF8DE31012B09
:100980002AD10FA807F014FA31460FA804F04AF84C
:1009900008221B490FA807F014FA414620220FA88D
:1009A00007F00FFA20220DF2DF110FA807F009FA65
:1009B00007A90FA807F044FA0FA807F0FDF900F007
:1009C00089F8202204460DF2DF2107A800F01AF86A
:1009D0000546204600F08EF800F084F8384600F016
:1009E00089F82AA807F0A9F900F07CF828460DF547
:1009F000417DBDE8F08F00BF04000020AC8B0000FB
:100A00009F90000070B5094B04461D680023934277
:100A100005D1074B1D6800F065F8284670BDE65CFF
:100A2000C85C8642F7D10133F1E700BF0400002023
:100A300008000020094A40000B7852F820108B4231
:100A400009D0013052F82000834214BF4FF0FF302C
:100A50004FF4407070474FF440707047B48B000003
:100A60001FB50F4B0C4613F8300001F0D3FA50B904
:100A70002068102381686A46103905F018FD28B1F6
:100A8000206805F013FD4FF0FF3006E010226846A5
:100A9000044905F02BFE0028F2D104B010BD00BFC0
:100AA000B48B0000928F000013B5044605F039FAAC
:100AB0006A460146204605F06EF930B104484521EA
:100AC00005F0E7FC002002B010BD0098FBE700BF76
:100AD000A7900000024B1868421C1A60704700BFC4
:100AE000C8010020024A1368013B1360704700BF31
:100AF000C8010020034B1B68834201D005F039BABE
:100B0000704700BFC80100202DE9F043434F89B072
:100B1000064600200D463C68FFF736FD06A9C0B228
:100B200001F078FA28B1FFF7DDFF204609B0BDE8F3
:100B3000F0832946FFF728FD2C2407A9C0B204FB47
:100B4000056401F067FA90B12C236B43F218116928
:100B5000DDF818C0C8061AD51DB13046069905F053
:100B6000DEFA2F4B1C68069805F0A0FCDBE707981F
:100B700005F0E6FC8046079805F098FC631EE21C31
:100B800013F8011F4145DFD19342F9D1E4E7F05852
:100B9000244B98423ED1D06813891B183AD252890F
:100BA000D21837D2DCF808309A4233D240F60C63C0
:100BB00011EA03062ED1FFF78DFFDDF818900746E6
:100BC000FFF788FF4FF480730193174B224680464E
:100BD0003146009330464B46CDE903660296FFF757
:100BE000EDFC04464046FFF785FFFFF77BFF3846E4
:100BF000FFF780FF0D4B1B68A342B4D065B1069888
:100C00000021826805F07DFC094A4521094805F06C
:100C100040FCA6E73C68EDE7074AF6E70400002041
:100C2000000000203DB8F396BA33002008000020F1
:100C3000EA900000F4900000E29000007FB50D46BD
:100C4000002104462846CDE9021105F027FA28B311
:100C50002368194EB34203D1204603AA05F0B2F926
:100C6000E36AB34204D10121204602AA05F0AAF9A1
:100C7000DDE90232934288BF0393039BAB60039A82
:100C80002946204600F0DAFB0C4B1A68002A03DDE7
:100C900057210B4805F0FDFB04B070BD01A9FFF71B
:100CA000DFFE019805F1080105F046F9AB680198EF
:100CB000039305F0FBFBE2E73DB8F3962C1600200A
:100CC0001C9100002DE9F84F884691469A4600266F
:100CD000DFF868B01A4C1B4D0B9B9E4201D30020DD
:100CE0000FE00B9B40469F1BB7F5806F28BF4FF46A
:100CF0008067124A3B4606EB0A0105F0D8FB10B1AB
:100D00000120BDE8F88F0A993B465A4648467118BB
:100D100005F0E2FB0028F3D1C4F800563E44C4F8C5
:100D20000456C4F80856C4F80C56C4F81056C4F853
:100D30001456C4F81856C4F81C56CDE7CC01002050
:100D4000008001503546526E2DE9F0410E460021DB
:100D5000AC4B0446436203F5006388B00365084664
:100D6000FFF712FC04F120010546C0B201F052F970
:100D700048B100232A46452101900093A24805F07E
:100D800088FB05F0F6F801210020FFF7FDFB04F1D8
:100D90004C010546C0B201F03DF950B101232A468D
:100DA0004521019000939848002305F072FB05F05F
:100DB000E0F8204605F047F9054668B900222046CC
:100DC000114605F0E9F8054608B3002257218F487F
:100DD00005F05FFB01239FE04FF4807257218C48A0
:100DE00005F057FB01239D4284F85830E6D194F872
:100DF0005830042B8DF8173000F29180012B00F24F
:100E0000958000F0A880FF2384F85830A3E02046A6
:100E100000F026FA0028DDD004A805F036F90146D6
:100E2000204605F0D1F918B12A4657217948CFE775
:100E300004A805F033F980F0010104AA2046C9B2E4
:100E400005F0AAF802460028BFD104A805F026F94B
:100E5000054660BB204604A9FFF7F0FE9DF8173059
:100E600084F85830033B012B06D8284600F00CF9D3
:100E700010B1FF2384F858309DF81730023B022B45
:100E80000BD8002000F0EAF838B1FF2384F858307E
:100E90004521614805F0FDFAFEE794F85830FF2B34
:100EA000F6D00021204604AA05F076F892E79DF8D6
:100EB0001770012F1ED1104602F0B6FF831E022BC1
:100EC000054614D8FFF706FE394680462046FFF750
:100ED0001BFE07464046FFF70DFE504B1B689F4226
:100EE00005D04F4B1D68AF4214BF0525012584F87E
:100EF00058507CE7FFF7EEFD012107462046FFF73B
:100F000003FE05463846FFF7F5FD444B1B689D423E
:100F100014BF05239DF8173084F8583067E7052B78
:100F20007FF471AF002000F0AFF811E0204604A973
:100F3000FFF784FE94F85830DA1E012A34D80020D6
:100F400000F0A2F800287FF45EAF002000F086F8E1
:100F500000287FF458AF94F85830FF2B05D1452175
:100F60002D4805F096FA05F004F8002294F8583060
:100F70002C4F012B03921AD01146204605F00CF895
:100F8000A8B13D68102200210DEB020005F0E0FB46
:100F9000E06C05F08BFA206A05F088FAFFF7A2FDF5
:100FA000284608B0BDE8F081022BD4D1CDE7FFF789
:100FB00091FD002180462046FFF7A6FD05464046EC
:100FC000FFF798FDDFF85480D8F800309D42D8D163
:100FD0003B689D42D5D0124B1B689D42D1D0039BEC
:100FE00001330393039B012B01D004F0C2FF206A5D
:100FF00004F0CFFE3071236A5B683460D8F800508B
:10100000B360BFE7CC0500204B910000DA910000EF
:101010009891000006920000309200000800002025
:10102000000000200400002070B50B4E0446602232
:101030000021304605F08CFBFFF74CFD21460546AC
:101040003046FFF781FE04462846FFF753FDFFF7C1
:1010500049FD204670BD00BFCC15002013B5094BDB
:1010600001A913F8300000F0D5FF48B9019805F048
:1010700007FF0446019805F019FA204602B010BD9A
:101080000124FAE7BC8B00001FB50F4B01A913F830
:10109000300000F0BFFFA8B9019802A902F06EFE6F
:1010A000044668B99DF80B30032B03D1019805F075
:1010B000B5FE0446019805F0F9F9204604B010BDCC
:1010C0000124F7E70124F8E7BC8B00002DE9F34188
:1010D00006460C4617461D460BB9002628E0184662
:1010E00004F0DCFF0028F8D16946FFF7B9FC00984E
:1010F00038B90124009805F0D9F9204602B0BDE8BE
:10110000F08101A904F018FF0028F2D1009805F041
:10111000CDF93046019905F0A4F8736A5E686B79E1
:10112000012B21D1002CD8D12B68834298BF0026F7
:1011300021460020FFF728FA6946C0B200F06AFF96
:101140000028D6D120233A463146009805F0AFF961
:1011500004460028CDD1002DCCD03C680D4BE41ABC
:1011600018BF4FF0FF34C5E7022BB6D12B68012B17
:1011700005D98342B1D8B4FA84F46409ADE7ACD19F
:10118000002CD5D0012CA8D12C79023C18BF012409
:10119000A3E700BF3DB8F3962DE9F04F07460C4694
:1011A00085B0014600201646FFF744FC051E51DBC2
:1011B0003846E46D04F0B5FE5FFA84F94FF0000A9A
:1011C0004FF0010B4FF0FF346B1E09FB03089DB974
:1011D000BAF1010F03DD4521204805F05AF9631CDF
:1011E00006D0FF2C2ADC40F2011301343460B380B6
:1011F000284605B0BDE8F08F6B1E009341460123E1
:1012000038460DF10F0205F052F9031E019323DB5E
:10121000012238460DF10F0105F09BFD019B40B105
:101220005B4501D00AF1010A9B46009DA8EB090825
:10123000CDE7B4F1FF3F08BF2C46F5E70223A4F544
:1012400080747371631004F001040133013433605E
:101250003471CDE70725CBE70125C9E73C920000B3
:1012600070B5866A456D044604F0EAFFAE420AD0C6
:101270006B1CB34207D0834205D05721134805F0B9
:1012800008F9002070BDB6F5807F1CD957211048A1
:10129000F5E7626A216D02EBC30201EBC3015268FC
:1012A0004968914202D057210A48E8E701339D423C
:1012B000EFD1AE4205D9636A03EBC5035B68934285
:1012C000F1D10120DEE700231A46F0E75F9200002B
:1012D00097920000C692000000B589B0022004A9D0
:1012E00005F0A9FD9DF81020012A41D0254B264983
:1012F000032A08BF0B469DF81320492102929DF84E
:101300001220224801929DF811200092204A05F0F7
:10131000C0F8082006A905F08EFD9DF81820012AC6
:1013200028D0184B1849032A08BF0B469DF81B20EC
:10133000492102929DF81A20144801929DF8192023
:101340000092144A05F0A5F89DF81030012B13D136
:101350009DF81230032B0FD19DF81830012B0BD0C4
:101360000D48492105F095F8022009B05DF804FB0D
:101370000A4BC0E7094BD9E70948492105F089F82C
:101380000020F2E7F2920000FB9200000F930000B1
:10139000019300005093000060930000F69200005B
:1013A0007F93000070B54B6814461E4A03F0FF237C
:1013B000934206460D4686B02FD10B68012B2CD1E7
:1013C000204604A902F0DAFC9DF81020012A26D05C
:1013D000154B1649032A08BF0B469DF813204921D7
:1013E00002929DF81220124801929DF8112000925D
:1013F000104A05F04EF89DF81030032B0DD1214610
:10140000304604F08CFE204605F008FD2046A96811
:1014100004F0A0FD204602F091FC06B070BD064B22
:10142000DBE700BF00010004F2920000FB92000025
:101430000F93000050930000F69200002DE9F04F4A
:101440001646054689B00C467448492105F021F836
:101450003146284604F005FF6B6A824620465E68E6
:1014600004F01CFEE8B1E86D04F056FD0023AF6AFD
:10147000013F3344834201D2013FFAE7BA4510D31A
:101480005721674805F005F807FB06F357210AFBCB
:101490000662644804F0FDFF0123E37109B0BDE872
:1014A000F08F06A9022000F0B5FD07A9082000F082
:1014B000B1FD21462846079AFFF774FF6379012B97
:1014C0004BD15746DFF860B141E02268C2F1010319
:1014D00053449F423AD86B6A012A196853F837007F
:1014E00003EBC70353F8083CA0EB0109A3EB01038E
:1014F000049311D1079B0393E368022B08D0414664
:10150000284604F00CFE22464146284604F03DFEE3
:101510002846039904F003FE32464946404604F04B
:10152000FCFD049B424641462846CDE90096FFF764
:10153000C9FB2146284604F0BEFD23680133236021
:1015400020B1DBF800300133CBF80030013FDDF88B
:101550001880002FB9D10123236002230127637172
:10156000BA45DDF8189006D2484604F09FFF079868
:1015700004F09CFF92E723689F424DD36A6AFB0008
:1015800052F83710083B04911168DDF81CB0039144
:10159000D1582A6DD0581368A0EB03082379012B8A
:1015A00038D1039B3246C91A4846059104F0B5FD6F
:1015B000059943464A460091284659460196FFF749
:1015C00081FB2146284604F076FD0223237118B1E1
:1015D000154A13680133136032464146584604F0F9
:1015E0009CFDDDE9032349469B1A28465A46CDE96E
:1015F0000086FFF767FB2146284604F05CFD236860
:10160000013323600123237130B1074A136801338A
:10161000136001E0022BDFD00137A1E796930000B1
:10162000BF930000EE9300002C160020BFF36F8FD5
:1016300072B600234FF0FF30094A03F12001013355
:10164000102B42F82100F8D100234FF0FF30044A5C
:1016500003F160010133102B42F82100F8D17047EB
:1016600000E100E0002318460649D1F89020C2F3BB
:101670000722934200DB7047C1F89830C1F8A00000
:101680000133F6E700ED00E02DE9F8434FF0FF35B8
:1016900001274FF00008204BDFF880905F60C3F80F
:1016A0004853C3F8085303F580535F60C3F84853A9
:1016B000C3F8085359F8044B002644F30730C4F824
:1016C000085301F0A1FB80226760C4F84C61D4F894
:1016D0004C31C4F81061D4F81031C4F8446131467B
:1016E000D4F84431A018C4F8006505F031F8802220
:1016F000314604F5C07005F02BF8B8F1000F08D0A2
:10170000074BC3F808554FF05023C3F80853BDE802
:10171000F8834FF00108CDE700400150C88B00006E
:1017200000700150014B1B68184700BF0C000020DF
:1017300007B50B46002102460091034800F006F869
:1017400003B05DF804FB00BF251700002DE9F04F42
:1017500082464FF000098DB01D46531E0191039340
:10176000039B58785C1C252819D100204FF0FF38C6
:101770001E464446034602360290317803963929C4
:1017800055D81F2914D8002900F0EF810199252090
:10179000D04701993078D04709F10209E0E70028E5
:1017A00000F0E3810199D04709F101090394D7E7DB
:1017B000A1F12002192AE9D801A757F822F000BFA9
:1017C000291800008D1700008D170000291800004F
:1017D0008D170000A91800008D1700008D1700005C
:1017E0008D1700008D170000F51800002918000063
:1017F0008D17000009190000B51800008D170000B2
:10180000C3180000E3180000E3180000E31800000C
:10181000E3180000E3180000E3180000E3180000DC
:10182000E3180000E318000008460136A5E7582930
:1018300000F0EB80A1F16302D7B2172FA6D8172AC8
:10184000A4D801A757F822F0B11A00002F19000000
:101850008D1700008D1700008D1700000F19000074
:101860002F1900008D1700008D1700000F190000C0
:101870008D1700008D1700008D170000E51900007E
:101880008D1700008D170000851A00008D170000CD
:101890002F1900008D1700008D170000E5190000BA
:1018A0008D1700000F19000025200199D04709F17C
:1018B000010955E7029A4FF0000802F0FE02029279
:1018C000B3E7002C0DDAB8F1000F0DDA029A002A06
:1018D00000F043810A2224EAE47402FB0414303C41
:1018E000A3E7B8F1000FF5DB0A2202FB0812A2F110
:1018F00030089AE7B8F1000F55F8042B80F22F81D9
:10190000002A80F22E815442022202928DE7682939
:1019100003D1682B06D1482387E76C2902D16C2BB1
:1019200000F02181002B7FF431AF0B467DE77A2B4D
:1019300006D1752955F8046B14D14FF0000B0CE05B
:101940006C2BF6D04C2BF4D1073525F00703752905
:1019500003F10805D3E9006B06D120283BD1854F60
:10196000013C09E04FEAE67BBBF1000FF5DA764275
:10197000814F6BEB4B0B013C0DF12D0305930023C5
:101980000493304659460A220023FEF7DBFB059BF1
:10199000B446303203F8012D5A460593049BBCF13E
:1019A0000A0F8B4672F1000203F1FF3106460491E3
:1019B000E7D2C3F1010B30330DEB0306B8F1000F92
:1019C000A6F104066DDA029BD9077DD4A8EB0B03C0
:1019D000A4EB0B0413E02B280ABF684F684F04F1F7
:1019E000FF34C9E770290FD155F8042B0023FAB949
:1019F0006FF004034FF0050B614F624E053C029AF5
:101A0000920770D4A04666E078216C2B03D10023A6
:101A100055F8042B08E04C2BF9D1073525F00703C6
:101A20001D465B6855F8082B232825D1880621D54B
:101A3000554F023C002601F06001A1F1390B0DF178
:101A40002D0E02F00F01092988BF594430310EF8DC
:101A5000011D102A4FEA121141EA03714FEA131CCB
:101A600073F1000306F1FF3008D2C6F1010B06F155
:101A70003003A1E7454FDCE7414FDBE706460A4666
:101A80006346DEE755F8046B304604F028FEB8F1F3
:101A9000000F834602DB4045A8BFC3464FF0000855
:101AA000374FA8EB0B03002B92DDA4EB0804A6E74D
:101AB00055F8043B4FF0010B8DF81830304F4FF0C4
:101AC000FF33013C06AE9AE7A046EAE702932020E6
:101AD0000199D047029BB8F10108F7D524EAE472D6
:101AE000013C9144A41AB84606E00493029201997D
:101AF000D047029A049B9046424612F8010B0028F8
:101B0000F3D11A46013A15D5002BACBFC7EB03073A
:101B10007F425B46013B15D5BBF1000FA8BF5F4478
:101B200026464F44013E14D5002CA8BF3F1907EBB1
:101B3000080915E60493029230200199D047049BCE
:101B4000029ADFE70293019916F8010BD047029B36
:101B5000E0E701992020D047E4E70122D5E690464E
:101B600063E6144661E64C235FE648460DB0BDE8E7
:101B7000F08F00BF2F9500002D95000031950000DB
:101B8000E896000039950000339500003695000076
:101B9000044608B5EFF31183202383F31288BFF3C3
:101BA0006F8F02F0B3F8204601F0DCF8024804F031
:101BB0008BFB04F078FDFCE73F9500002DE9F04336
:101BC000079D15B91560002012E00324B5FBF4F45D
:101BD00004EB4407BD4218BF0134B4F1804F09D271
:101BE000A40001348C4200D838B96FF00B001460A7
:101BF000BDE8F0834FF0FF34F7E704460021DFF83B
:101C0000B4E0B94203F1030C04F104062BD3A9425A
:101C1000274623D201F1010CAC451F7828BF0023D1
:101C200024494FEAA70E38BF5B7811F80EE0AC45A7
:101C300084F800E001EB131E2EBF3D239B0003F050
:101C40003C034FEA071738BFCB5C07F030071EF89C
:101C50000770A3703D2367703746E3700023381A7E
:101C600010603B70AFE71CF8034C1CF8023C4FEAD5
:101C7000A4091EF8099024011CF8018C04F030041A
:101C800006F8049C0EEB131919F804409B0006F8A3
:101C9000034C03F03C030EEB9814E35C08F03F08A0
:101CA00006F8023C1EF80830344606F8013C0331C1
:101CB0006346A6E7E89500002DE9F04300273C467F
:101CC0003D46DDF81CE0DFF8288175451FD3E4BBF5
:101CD00000201460BDE8F0830136764533D013F858
:101CE00006C0BCF1200FF7D0AEEB0609B9F1010F29
:101CF000A6EB05050DD0BCF10D0F0AD103EB0609CB
:101D000099F80190B9F10A0F6ED1751CDDE72E46E6
:101D1000E3E7BCF10A0FF8D02DB9BCF13D0F05D1B6
:101D20000137022F0DD96FF01500D3E71CF0800F9B
:101D3000F9D118F80C507F2DF5D03F2D01D8002F88
:101D4000F1D10134E1E73546C1E74FF0060C04F06C
:101D50000706E4080CFB06F60CFB04F40736E41B4C
:101D600004EBD60470B18C420CD800270146032640
:101D70003C46DFF87CE0DFF87C801D449D4205D1C5
:101D80000C1AA5E76FF00B001460A3E713F8019B92
:101D9000A9F10A0C5FFA8CFCBCF1160F04D848FAC2
:101DA0000CFC1CF0010FE9D01EF809C00134BCF195
:101DB000400F08BF013E0CF03F0C042C4CEA871783
:101DC000DCD17EB13C0C012E0C7002D1013100241B
:101DD000D4E7022E4FEA17244C7016BF8F700231E1
:101DE0000331F4E73446C9E7002DA2D09BE700BFDA
:101DF00068950000F6FFBFFF2DE9F047058B04460C
:101E00002807904611D4022905F0070540F0CC8040
:101E1000204604F066FA78B10138218B042811D8E5
:101E2000DFE800F0C2106D85950001290CBF45F078
:101E3000100545F02005258388F31188BFF36F8FC7
:101E4000BDE8F08701F0070AAA4500F0A580002749
:101E5000B9463E46A368002B00F0BC8041F0080163
:101E6000218388F31188BFF36F8FA168002900F0E8
:101E7000BA800D68002900F0B680334652462046ED
:101E8000D1F80480C047002D76D02B6829461D4626
:101E9000F0E701F007035A1F012A1BD8002221F0A6
:101EA0000701062B276889B2C4E9002209D13B4605
:101EB00003E0628B013262831B68002BF9D141F091
:101EC00002012046218304F00CFA00287AD041F068
:101ED000200176E0042B0AD121F0070189B22046C7
:101EE000218304F0FEF910B141F020012183218B00
:101EF00001F0070AAA454FD00027B946AAE723698F
:101F000021F0070141F00601062DD3F8009021834E
:101F10002DD1B9F1000F3FD041F00801218388F3A2
:101F20001188BFF36F8F20463949C84729E021F057
:101F30000701236941F0040189B2042DD3F804900C
:101F40002183E6D000274FF0040A3E4682E721F0C5
:101F50000701236941F0050189B2052DD3F80890E6
:101F60002183D6D000274FF0050A3E4672E70027AE
:101F70004FF0060A3E466DE72B4687E7B9F1000FA2
:101F8000D1D1EFF31188202383F31288BFF36F8F31
:101F9000238B23F008032383258BEA062ED525F017
:101FA0001003238305F007056669218B002EBFF619
:101FB00070AF00232768C4E9003321F0070141F026
:101FC00001012183218B4FF0000901F0070AAA4586
:101FD0007FF440AF002F9CD041F00801218388F3AB
:101FE0001188BFF36F8F002FC8D03D683946334644
:101FF0005246204604F0A1F92F46F4E7AB067FF5E0
:102000001BAF25F02003238305F0070500E700BF81
:102010006763000070B5114B0D461C68DCB1104BB6
:10202000196800238B4202DB6FF0010070BD22466D
:1020300012F8106B864202D014460133F2E7E068D2
:1020400010B96FF01200F1E706F0F7FB0028F8D0A6
:1020500000202C60EAE76FF00C00E7E7100000209A
:10206000D08B000070B588B005460C46C0B26946FA
:102070001646FFF7CFFF00281BDB0098C8B1436866
:102080002268029383680195CDE903360023CDE9E8
:1020900006230593C56804F009FA6DB1284608497E
:1020A00001AA04F065FC079808B9059B236008B0F5
:1020B00070BD6FF01500FAE76FF01200F7E700BF90
:1020C0004F65000008B5054804F0FEF8044804F028
:1020D000FBF8BDE80840034804F0F6B82896000075
:1020E000599600008C960000014803F0E3BC00BF45
:1020F000A48C0000F7B5254E30688368DB6B03B114
:10210000984730688368DB6A002B31D1204C214D21
:10211000306883681B69002B2DD001220DF1070167
:102120009847012827D1236843B92B682BB36968E6
:102130001A688B422A6000D16A602360164A9DF8B3
:10214000070011887F2904D823684F1C0B4417808F
:1021500018720A28DCD100202368118818605960A1
:102160000E494D6875B9C1E9003310802060CEE793
:1021700098470028CAD103B0F0BD4521084804F0B3
:1021800088F9F8E72B604B60EFE700BF881A002062
:102190003016002040160020B81B00203816002002
:1021A000BA96000010B5044B044618688368E1B283
:1021B0005B689847204610BD881A0020F8B5054690
:1021C00016460846EFF31187202383F31288BFF3E6
:1021D0006F8F1B490B684BB11A4C62689A4205D04D
:1021E00000221A60626862B9C4E90033164A1368B3
:1021F00053B987F31188BFF36F8F18460B603360B4
:10220000F8BD13606360F1E7D2F804C01C68634551
:10221000146008BF546087F31188BFF36F8F5C6848
:102220000B60A042D8BF00F1FF3403F10801224641
:10223000284604F082FA0023601C2B550123DEE7B8
:10224000341600204016002038160020002313B555
:102250001C462049204AC1E90033C2E900331F4A25
:102260004868146020BBC1E900220133082B02F149
:102270008802F5D11A4C1B48206006F0DEFA28B31C
:102280002068836823B11B6C13B10022164998475C
:1022900020688368DB6A0BB1984760B12068836867
:1022A0001B69002BFAD001220DF107019847F4E7D2
:1022B00002604A60D9E700220C4B20681A808368CC
:1022C0001B6A03B19847002002B010BD4FF0FF30E9
:1022D000FAE700BF401600203816002048160020FC
:1022E000881A002044890000F5200000B81B002057
:1022F00041F204432DE9F043DBB0ADF80C3040F679
:1023000006130025ADF81030DFF80891424BD9F8DC
:1023100000101B68414E4D70A3EB06080B78284651
:102320005A1C62F302030B7098FA98F34B808B8867
:1023300008225BBA8B8003F0B1FF31464246ADF80C
:10234000140003F0ABFF02271FFA88F440BA04F12F
:102350000A035BBA0222ADF814000DF1160107A8BA
:10236000ADF8163004F0E9F90822D9F800100DF1A3
:102370001E00ADF8167004F0E0F9BDF8160007ABCA
:10238000083080B231464246ADF81600184404F0D9
:10239000D4F9BDF816303A461C44A0B22C4607AB1F
:1023A000ADF8160005A9184404F0C7F9BDF81630B9
:1023B000BD213B449BB2ADF81630009306AA07AB93
:1023C0002AA8FFF7FBFB069B154E164FADF81630FB
:1023D000BDF81630A34202DC5BB0BDE8F083336881
:1023E00002215B68A4B904A89847BDF81650336869
:1023F0002D1B7C2DA8BF7C252AAA101929465B68B5
:1024000098473368012138465B682C449847DFE7DA
:1024100003A8E9E7EC1A0020A41A0020BA3400202F
:10242000F01A0020E796000038B505460A4C0A214C
:10243000204606F0E9F902222046084906F0D7F9BD
:102440002946204606F0BCF920460A2106F0E4F9A8
:10245000BDE83840FFF74CBFA41A0020F8960000F2
:1024600073B583680C469A420646114613D29442CD
:1024700013DC6A4603F08FFC68B9DDE900351D44C2
:102480002A1B2146304604F03CF8024640B1452163
:10249000044803F0FEFF6FF01504204602B070BD43
:1024A0002C46FAE7FB9600002DE9F0474FF0FF3489
:1024B000D4B00B46059406940794012100240246EB
:1024C000CDE90144009130A80421CDE9084405F08C
:1024D000ABFE2146402220A804F03AF98D4B03219F
:1024E0001C93052304221D938B4B0DF11808CDE995
:1024F0001E388A4B8A4821938A4B05AE23938A4B18
:1025000007AD2693894BCDE92B01CDE92835CDE9DF
:102510002D360AAC279109AB1CA930A8229224942D
:1025200004F04AF820B303240A21814806F06CF92C
:10253000804902227E4806F05AF921467C4806F07E
:102540003FF94CB976490322794806F050F97A4BA5
:102550007748196806F03EF90A21754806F05CF9DB
:10256000FFF7C6FE089803F0A1FF54B0BDE8F0875E
:102570003368D4E900745A1CD5D0002FD3D06F4AE9
:1025800033B9D8F80010B1F1FF3F18BF0B46136004
:1025900000211068FDF7F8FF08A9C0B2FFF73AFD67
:1025A0000028C0D13368644E002B4ED1DDF8208066
:1025B00033604046D8F8089003F0B3FC604A014607
:1025C000404603F0E8FB28B145215E4803F061FF77
:1025D0000124A9E72B684B45A5D85B4A10605B4AEC
:1025E00013603268584D224429680898013AFFF771
:1025F00037FF0028286096DB089803F09AFFB4FBA9
:10260000F0F303FB1040DFF844913368C5B2651B5B
:102610001C44D9F800309C4238BF00205FFA80FA91
:10262000089803F086FF012805D9089803F081FF78
:10263000013807424DD12B463A463168089803F0DD
:102640004BFF00287FF46FAF30E03268934201D037
:10265000002469E73D4A234412689342C1D962E7E6
:10266000A845089888BF5FFA85F803F069FF402203
:1026700001460CA804F06CF8424639460CA804F058
:102680005CF84346316808980CAA03F025FF04461D
:1026900000287FF449AF3368474443443360A5EBD7
:1026A0000805089803F045FFA842D9D9BAF1000FF0
:1026B00012D13368D9F8002053442B44934233603D
:1026C000C6D11F4B08981A681146FFF7C9FEC40F00
:1026D0002AE74FF04008E4E7089803F031FF0822AA
:1026E00001460CA804F034F8524679190CA804F0FD
:1026F00024F8089F316838466C1803F01AFF214609
:1027000003460CAA384603F0E7FE00287FF40BAF1F
:10271000CFE700BF5A930000178500001D97000007
:102720002697000021850000229700001D850000EB
:10273000A41A0020F89600009C1A0020A01A00207D
:10274000941A0020A7900000901A00208C1A0020F4
:10275000F0B50C68164F85B002380D46C4F580619F
:102760000090144B381903AA0131FFF7A5FA04466B
:10277000D0B92B68039A1344022B2B6011D93E88E1
:10278000023B76BAB6B29E420BD13246B91C03F078
:1027900085FD30B9022E04D92B689A1E2A60FC549C
:1027A0000124204605B0F0BD4FF0FF34F9E700BF2B
:1027B0003B3500203E390020002307B5022100935D
:1027C000034A8023034806F029F803B05DF804FBB0
:1027D000BA340020A41A002070B507290446A0B01E
:1027E0006DD9037813F0050F69D14388A1F108056D
:1027F0005BBA9BB2AB4262D35C4B186083885BBA16
:102800008380FFF7D9FFA088012840F09D80E379FD
:1028100043B1012B00F09080082020B0BDE870404B
:10282000FFF702BE217811F00704F5D101465048A8
:1028300005F0EAFF06224F494D4805F0D8FF052173
:102840004B4805F0DDFF4C4B214620461D68FDF747
:102850009BFE07A9C0B2FFF7DDFB044628BB20237F
:1028600001460DEB0302079803F021FE434B089A43
:102870009A4213D1FEF72EF9402301936B4406468A
:102880002146009308AA079B2046CDE90344029401
:10289000FDF794FE05463046FEF72CF9384B0798B5
:1028A0001B68AB420DD003F001FE0521304805F056
:1028B000AFFF01212E4805F0AFFFFFF719FD20B053
:1028C00070BD03F0F3FD1421294805F09DFF04229B
:1028D0002C49274805F08BFF0021254805F07AFF99
:1028E00007222949224805F082FF4021BDF83630F1
:1028F000264A01939DF835300DEB010000939DF8B9
:10290000343000F019FB0E9B4BB1421E3E2A06D814
:1029100010ACC0F140011E4A204400F00DFB10A88D
:1029200003F0DDFE10A90246114805F060FF1421F6
:102930000F4805F071FFB8E7294604F1080020B000
:10294000BDE87040FFF7B0BD00287FF465AFE379C4
:10295000012B3FF462AF052B7FF45EAFFFF764FD00
:102960000C4805F065FF0120FFF712F9EC1A002072
:10297000A41A00202A970000040000203DB8F39616
:102980000800002031970000369700003E970000B5
:102990004A97000090D0030001232DE9F74300245B
:1029A00007462D4E2D4D33702D4BDFF8B880009427
:1029B000186003F078FEDFF8B090C9F80056C4F54F
:1029C0008061C9F80456C9F80856C9F80C56C9F808
:1029D0001056C9F81456C9F81856C9F81C563B6861
:1029E00001AA013108EB040098470028019B00DC94
:1029F0006BB3044453B940F201439C4223D1337872
:102A000013B903B0BDE8F0830024D6E798F800308E
:102A1000062B0AD198F80130092B0CD10023009322
:102A20006946A01EFFF794FE05E0042B03D198F839
:102A30000130142BF4D00128E1D100990B48023960
:102A4000FFF7CAFEDBE73378002BB6D1D9E733783E
:102A5000002BAED1D5E700BF3A3500203546526E87
:102A6000F01A00203C390020008001503D35002044
:102A700030BFFFF7FDBF00BF154B9A6A12F0007F11
:102A80009A6A14BF1E201D2012F0807F9A6A18BF18
:102A90001F2012F4801F9A6A18BF022012F4002F20
:102AA0009A6A18BF212012F4802F9A6A18BF222038
:102AB00012F4003F9A6A18BF232012F4803F9A6AEA
:102AC00018BF24206FEA02426FEA12429A627047EE
:102AD00000ED00E010B5194B0246986A9C6A10F4AC
:102AE000805F14BF1720162014F4006F9C6A18BF73
:102AF0001820A40509D5986B986A000404D51AB16A
:102B00009A6A22F400429A6219200C4B9A6A12F4D3
:102B1000806F9A6A18BF1A20D2050CD49B6A13F4EE
:102B2000005F18BF1C20054A936A43F47F439362F9
:102B300000230B7010BD1B20F5E700BF00ED00E087
:102B400010B51C4B0246986A9C6A10F0100F14BF17
:102B50001120102014F0080F9C6A18BF1220A4073F
:102B600009D5586B986A000604D51AB19A6A22F002
:102B700080029A6213200F4B9A6A12F0010F9A6A30
:102B800018BF142012F0200F9A6A18BF1520D4061F
:102B900058BF9B6A074B9A6A920642BF5A6A22F450
:102BA00000525A629A6A42F0FF029A6200230B7046
:102BB00010BD00BF00ED00E070B5444B06465B68F9
:102BC00000258AB0C3F3080385F31188BFF36F8F24
:102BD00002F07F40B0F17F4F11D102F00C000828C5
:102BE0000DD010074CBF0E4601250022033B8DF887
:102BF0000720032B05D8DFE803F01E5C60592E4642
:102C0000F3E700249DF807309BB92022314602A843
:102C100003F093FD099B002D53D0C3F3080222B9A2
:102C20006FEA53236FEA43230993204602A903F076
:102C300015FD0AB070BD254BDA6A9107E1D4DA6A56
:102C4000002ADEDBDA6A5200DBD55A69B16942F448
:102C500080725A61BFF34F8FBFF36F8F5A6931F89B
:102C6000021C22F480725A61BFF34F8FBFF36F8F43
:102C70004DF60272914209D09A6AD2B242B1012055
:102C80000DF10701FFF75CFF0446BBE73468B9E7C5
:102C90009A6A12F47F4F05D001200DF10701FFF76A
:102CA00019FFF1E79B6AB3F5803FAAD3FFF7E4FE73
:102CB000EAE700200DF10701E4E700200DF107012C
:102CC000EDE723F4FF7323F00103ADE700ED00E02F
:102CD000064B5A6942F010025A615A6942F4806206
:102CE0005A615A6922F008025A61704700ED00E00B
:102CF000EFF30880EFF3098101B57246FFF75CFF3F
:102D000001BD00BF002080F31488BFF36F8F002047
:102D100080F30A8880F30B8801F0C0FF00200E4981
:102D20000860BFF34F8F0D4880F3088800F02CF83F
:102D3000202080F311880A484FF40061401880F386
:102D40000988EFF314800221084380F31488BFF34D
:102D50006F8F00F091F8000094ED00E0606D0020AE
:102D6000603D0020BFF34F8F0549064BCA6802F44F
:102D7000E0621343CB60BFF34F8F00BFFDE700BF9E
:102D800000ED00E00400FA0572B6002383F3138817
:102D90004FF0FF300C4A03F120010133102B42F8B1
:102DA0002100F8D100234FF0FF30074A03F1600102
:102DB0000133102B42F82100F8D162B6BFF34F8FD8
:102DC000BFF36F8F704700BF00E100E01EF0040FFB
:102DD0000CBFEFF30880EFF30980816911F8021C42
:102DE0000229FFD001B503F03FFC01BD40B200282D
:102DF00007DB01234109034A00F01F00834042F82A
:102E00002130704700E100E040B200280CDB0122D5
:102E10000649430900F01F008240203341F8232077
:102E2000BFF34F8FBFF36F8F704700BF00E100E02B
:102E3000054B420953F82220012300F01F0003FA3A
:102E400000F01040704700BF00E100E040B20028F1
:102E500001F10101ACBF00F16040064B4FEA4111A6
:102E6000C9B2ABBF00F5614000F00F0080F800135D
:102E70001954704714ED00E00B4A08B50B4B22F0D3
:102E80007F029A60BFF34F8FBFF36F8FD3F8882014
:102E900022F47002C3F8882002F0BAFC02F0FCFCB5
:102EA00000F02CF802F0C0FC0000000000ED00E093
:102EB000154680B506460C46002282F30B88094F62
:102EC000A7F5205888F30B8887F309884FF0000096
:102ED00005498847204629461A46B0470348804797
:102EE000FEE700BF606D0020896600009766000065
:102EF0001022014B1A61704700ED00E000232021F1
:102F00000348C2180133412B82F80013F9D17047EE
:102F100000E100E008B5EFF30583064A103B02EB41
:102F2000C30152F8330049688847BDE8084003F000
:102F3000A6BB00BF6C8900000CB410B586B009B9FF
:102F40000DF10B000024CDE9040109AB089A0094AF
:102F500004A905480393FEF7F9FB049B1C7006B017
:102F6000BDE8104002B07047636700000122024BC9
:102F70000020C3F8402570470090035020B1034B58
:102F8000800143F001031847704700BF908B000099
:102F9000084B70B5C31A0D4607499B1004465943A8
:102FA0004022064803F0F3FB2B4601462046BDE8CD
:102FB00070401847081B0020B76DDBB61C89000065
:102FC000402373B50B4C0093041B0B460D460A4976
:102FD000A41061430646094A094803F003FC011E98
:102FE00005DA30462B4602B0BDE87040184702B003
:102FF00070BD00BF081B0020B76DDBB65368000032
:103000001C89000010B5EFF31184202383F312888C
:10301000BFF36F8F074A136823F00201DB071160CB
:1030200002D4012005F035F884F31188BFF36F8FC7
:1030300010BD00BF581B002070B5002201210446BE
:103040000520FFF703FF0F4801F020FF0E4B9842C9
:1030500015D101F02BFF26690C49304603F090F999
:1030600000280BDB012535642469084904F11C00A4
:1030700003F086F9002801DB0020E56470BD6FF0E5
:103080000400FBE7553100000000AD0BAC8C0000E4
:103090000C22104B014602FB0033002030B4D3E970
:1030A0000E529863EFF31180202484F31288BFF34B
:1030B0006F8F1C6C04F0C00444F002041C6480F3A5
:1030C0001188BFF36F8F1DB12B4630BC02481847E3
:1030D00030BC7047081B00201C89000010B4EFF3BF
:1030E0001182202383F31288BFF36F8F1748016882
:1030F00041F002040460C80707D482F31188BFF3CB
:103100006F8F012010BC01F0E5BE4FF05021D1F8C7
:103110000C04D1F80C14C907EFD5EFF3118083F339
:103120001288BFF36F8F0A490B6C03F0C00343F0A2
:1031300002030B6480F31188BFF36F8F82F3118851
:10314000BFF36F8F002010BCFFF7A2BF581B0020F9
:10315000081B002010B1012804D07047034B1B6CE2
:103160005B0701D1FFF794BF704700BF081B002029
:103170002DE9F843012207463449D1E8EF3FC1E881
:10318000E02F0028F9D133B9314932484B60CB6088
:103190008A6003F008F97B1E012B2DD8012F07D17F
:1031A0004FF05023D3F81C3403F00303022B23D039
:1031B00005F085FB054608BB274B1B78F3B14FF0A4
:1031C000502302220646C3F808234FF050244FF044
:1031D0000008DFF88890D4F81824D4F81834D20303
:1031E00015D503F00303022B01D0012F0FD135B306
:1031F00086F31188BFF36F8FBDE8F883EFF3118674
:10320000202383F31288BFF36F8F0125DDE730465B
:1032100003F056FAD4F81835DBB2012BDBD1D4F821
:103220000421002AD7D0C4F80481D4F80421022252
:10323000C4F818252022C9F88021A360CBE74FF0FD
:1032400050230222C3F80423D6E700BF041B00204A
:10325000F41A0020241B00205F3D002000E100E064
:10326000024B0B6001231360704700BF5C1B002002
:1032700000487047008D000010B504F06EFF034C4D
:10328000206004F067FF6060002010BD5C1B002020
:10329000F8B50E461946304617461D4603F0E8FAC3
:1032A000B8B146EA050414F0030412D14DB12B194C
:1032B000032BA6EB040006D8074AD2F80034DB073C
:1032C000FBD50020F8BD3B1B196802F031FA043C25
:1032D000EDE76FF01500F5E70090035038B545684D
:1032E0002B69B3B11035284602F0E0F8044680B9E6
:1032F0000146284602F0A8F8084B98420BD1224616
:103300002846074902F088F8224605210D20FFF7DC
:103310009DFD002038BD6FF00400FBE70000AD0B01
:1033200025330000430970B507D10B4B596821B113
:1033300001250C68094E854001B970BD8A682A4094
:1033400002D030464B6898471CB1236821461C4682
:10335000F2E72346FAE700BF641B00203089000033
:103360002DE9F04340F206354668D00648BF0320F9
:10337000337B02EA050558BFC2F3401087B001F065
:103380001F07B5F5837F144647EA43178DF80300FE
:1033900042D00FD8062D18D007D8B5B1022D3DD098
:1033A0006FF0150007B0BDE8F083B5F5807FF7D169
:1033B00001250AE040F20222954231D0B5F5407F66
:1033C00030D0B5F5007FEBD102250123220303FAAB
:1033D00001F129D573689960326952BB07F01F0368
:1033E0007F0973D13B4A84F4803102EB8302D2F827
:1033F0000032C1F30041C4F3404423F4E16344EAE2
:10340000410423F007031C4344EA800444EA0524F2
:10341000C2F800420020C5E70725D6E70425D4E717
:103420000525D2E70325D0E7630344BF7368D9605D
:10343000D2E71036394630460DF1020201F0F2FFB4
:1034400014F4403F80460CD13946304604F07BFEF0
:10345000214B9845DED130469DF8021002F030F83D
:10346000D8E74FF0000901AB3946304603AACDE951
:103470000439CDE90199CDF80C9001F0A7FE164B67
:1034800098428DD114F4003315D09DF8033084F4A4
:103490008034C4F300448DF80E3039464B46304634
:1034A00003AA8DF80C508DF80D4001F03DFF0A4B3A
:1034B0009842CDD074E7CDE9043339460DF10303CA
:1034C000304603AA039301F081FEF0E7803352F8FF
:1034D0002330FFDE002584500000AD0BF0B54068BE
:1034E00001F01F04057B87B044EA45140569002DEF
:1034F0005FD0B2F5001F00F1100506D12146284625
:1035000004F023FE002007B0F0BD0027B2F5800FC5
:1035100001AE0197776037D1B3F1007F14BF052367
:1035200004238DF804300023CDE9046303938368FA
:1035300023FA01F111F0010118D1B2F1A07F15D1E8
:1035400004F01F03620903F1800338D11D4A52F8C9
:103550002330DB070AD40DF1030632462146284604
:1035600001F060FF184B984219D002962146284678
:1035700003AA01F02BFE154B98421DD101222146D2
:10358000284601F0A9FFBDE7B3F1C06F05D0B3F144
:10359000007F14BF01230223C3E70323C1E73146A1
:1035A000284601F093FF094B9842DED06FF00B00E4
:1035B000A9E76FF08500A6E76FF01500A3E751F8C3
:1035C0002330FFDE002584500400AD0B0000AD0B5E
:1035D0002DE9F04740F2FF16594FDFF868C1DFF8D8
:1035E00068E100EB8101814202D10020BDE8F08753
:1035F000046814F4804FC4F3C325C4F3080340F0F7
:103600008C80240EB34208BF4FF0FF337D5D192C30
:1036100000F28680DFE804F00D13191C1F251C84BE
:1036200084848436608484848484848484846378F9
:103630007B7EC2F80C355C1C5BD10430D3E7C2F84A
:1036400014355C1CF9D000245CE0C2F80835F2E7C0
:10365000C2F81035F5E75C1CC2F80835EDD000243F
:1036600004E05C1CC2F80C35E7D001245FEA531873
:1036700059D14FF00109DFF8CC8009FA03FAC8F8F4
:103680000CA008E0C2F80835002DDAD15C1CD4D0BB
:1036900000240625A146D0F800A00AF40048B8F19D
:1036A000000F1CBF4FF00009012403F01F085B0945
:1036B0003FD10CEB8808D8F80032CAF3412A03EA5C
:1036C0000E0343EA8A0343EA052343EA090343EA74
:1036D0004403C8F80032B0E7C2F80C35D4E7C2F8AA
:1036E0006035B3F1FF3F0468A7D0C4F30044002C59
:1036F000BBD05C091AD10124DFF8488004FA03F931
:10370000C8F80890A146C6E7C2F86435E9E7C2F8F0
:103710006835E6E7C2F86C35E3E76FF0150065E75A
:103720006FF0850062E70023DB60FFDE00239B6013
:10373000FBE7002308F1800853F82830F5E700BFC5
:103740008897000000258450F0F8FCFF2DE9F04137
:1037500004460D46476805F0B2F84FF0200868B9F6
:10376000244B1B7853B16426606803F031FAD0B95A
:10377000012004F02AFC013EF6D1F4E7EFF31186B4
:10378000314688F31288BFF36F8F606803F020FA28
:10379000A8B986F31188BFF36F8FEFE786F311881E
:1037A000BFF36F8FDFE7EFF31186314688F312889E
:1037B000BFF36F8F606803F00BFA0028EED0BB698F
:1037C00000201D706368BA691B68C3F84425012294
:1037D000C3F84825C3F82001D3F82041C3F85801A5
:1037E000D3F858019A6081F31188BFF36F8FBDE859
:1037F000F08100BF5F3D0020F7B5054600220121A2
:103800000820FFF723FB0820FFF7F0FA6A68136926
:103810001168C1F82435137D507D927D0343134315
:10382000C1F86C356E68D6E9004313F0010348D047
:103830002F6907F10C0004F0D1FB304B98425AD1AC
:10384000387B04F10C0204F5907104F0C0FB387B66
:10385000012707FA00F001F013FB0823C4F8003534
:10386000B369C4F844350023C4F84835A760D4F8D8
:103870005831002BFBD00021C4F800156B6801AA59
:10388000DC68204603F0EDF8002805DB019B226888
:1038900019791868FFF79CFE08216A681368C3F855
:1038A0000015117A51B9D269C3F834250122C3F841
:1038B0003825C3F81011D3F810111A60002003B096
:1038C000F0BD0822C4F80025B269C4F84425C4F844
:1038D00048350123A360D4F82031002BFBD000230E
:1038E000C4F82031D4F820310123E3604FF4807311
:1038F000C4F80433BBE76FF00400E0E70000AD0B51
:103900000123834070B5DC430B4AD2E8EF1F01EA84
:103910000405C2E8E65F002EF7D14FF48032824002
:103920000648C0F80823BFF35F8FBFF36F8F0B42C9
:1039300014BF0120002070BD741B002000500150F6
:1039400070B40E4922F07F46D1E90034D01AC31872
:1039500044F10004C1E90034A6F50013B3F5400FAB
:1039600009D2074B1B681A0A1B069C19054B42F12A
:103970000005C3E9004570BC01F0EEBF3001002036
:10398000781B002038010020D9B101230D4A834063
:10399000D2E8EFCF4CEA030CC2E8E1CF0029F7D11F
:1039A0004FF48033084A8340C2F80433074BD3E80E
:1039B000AF3FC340DB0742BF4FF40012044BC3F8D4
:1039C00000217047741B002000500150701B002024
:1039D00000E100E00D4B1868010A0006BFF35F8F9D
:1039E0000B4BD3F80435181841F10001B3F5801FD3
:1039F0000AD2084BD3E90023904271EB030303D2B0
:103A000010F1807041F10001704700BF781B002069
:103A100000500150380100202DE9F04F85B01646C6
:103A20001F4604469DF840A0FFF76AFF0190FFF78C
:103A3000D1FFB04271EB070352D23B4B301A67EB18
:103A40000101984271F100014DD2384B03EB041390
:103A5000D3E902239F4208BF964258D04FF48038E2
:103A6000334908FA04F8204626F07F4BC1F8488312
:103A700003F044F94FF00309584604F15005AD0036
:103A8000ADB205F1502504F5A87305F58035029314
:103A9000029A20F07F4341F82230C1F84483D1F8E4
:103AA0000435244AC01A033820F07F4090422ED9B2
:103AB000286868B1D1F80435A3EB0B0020F07F40F3
:103AC000B0F5000F039322D9204603F017F9039BAA
:103AD000BAF1000F07D109EB030009F10109D7E79B
:103AE000BAF1000F09D06FF0150520460199FFF7D4
:103AF0004BFF284605B0BDE8F08F01230E4AA340D6
:103B0000D2E8EF0F1843C2E8E10F0029F8D10749C6
:103B10000E982301C8500F9B01EB04120025C2E947
:103B200002675360E1E700BF010080002001002030
:103B300000500150FDFF7F00701B00207FB5002565
:103B40004FF0FF304FF0FF31194C1A4B0226C4F8EA
:103B50000833C4F84833184BC4F80855C3E90201C8
:103B60004FF480334FF40012C4F80433134B012197
:103B7000C4F804631520C3F880212A46FFF766F9CC
:103B80001520FFF733F901230D4AA360236013606A
:103B90000C4B0D4A009328460023CDE90155FFF751
:103BA0003BFF3046FFF7E4FA284604B070BD00BF83
:103BB0000050015003000F002001002000E100E050
:103BC000741B002041390000FFFF7F002DE9F743FF
:103BD0002E4BD3F8042390070BD5D3F8042142B120
:103BE0000022C3F804212A4AD3F8043113680133B0
:103BF0001360264AD2F80433D90326D5254BD3E8DF
:103C0000EF1F21F00100C3E8E40F002CF7D1CB0730
:103C100002D4D2F84031C3B100251C4CC4F8405145
:103C2000D4F84031FFF7D6FEEFF31182202383F35F
:103C30001288BFF36F8F184BD3E90267B042B941C6
:103C400006D282F31188BFF36F8F03B0BDE8F08313
:103C50004FF0FF38D3E900104FF0FF391D60C3E982
:103C600002894FF48033C4F84833C4F84051D4F883
:103C7000403182F31188BFF36F8F0029E5D00090A7
:103C800032463B4628468847DFE700BF00500150D8
:103C9000781B0020701B00202001002030B5431C41
:103CA000124C85B005D08442A8BF0446012CB8BF91
:103CB0000124FFF78FFE0E4B0C4DD3E90013401A81
:103CC000B0F5000F0FD22218AA4228BF2A460020C2
:103CD00052180849CDE90100009143F10003FFF7B4
:103CE0009BFE05B030BD2A46F1E700BFFFFF7F0015
:103CF000300100204139000008B5FFF76BFE024B90
:103D00001B68C01A08BD00BF30010020012310B598
:103D1000074C15206360FFF777F84FF40012054B4E
:103D2000C4F80833C4F84833034BC3F8802110BDEE
:103D30000050015003000F0000E100E030B5816841
:103D400085B0103921F00704054602F0F9FB102276
:103D50000146684602F0FCFC10226846064902F063
:103D6000ECFC10236A462146284602F0B5FB0038D9
:103D700018BF012005B030BD928F000030B50D4650
:103D8000816887B0102302AA1039044602F08FFB25
:103D9000002802DA012007B030BD1022204602A917
:103DA00002F0D7FF00283AD110221E4902A802F0E3
:103DB0009DFC00280CBF012302232B70204602F03B
:103DC000B4FF012301460DF10702204602F06FFB0C
:103DD0000028DFDB9DF80730204603F00F021B09A7
:103DE0006A702B7101220DF1070102F0B2FF10B9C8
:103DF0006B78042B03D901236B7000232B71A2680D
:103E00002046183A22F00702083AA91C02F0B4FF33
:103E10000028BFD12046E91C03F007F8BBE70323C5
:103E2000CBE700BF928F0000F0B5354F85B046005C
:103E30000546694657F8260002F0FDFF044610B11A
:103E4000FF2005B0F0BD013657F8260002A902F0A8
:103E5000F2FF012837D12A4649212A4802F019FBEE
:103E6000294B8DF80C40029300229DF800609DF8CC
:103E70000870264C3146207802F05DFF50B3394679
:103E8000607802F058FF28B3A378042B03D09DF884
:103E9000031099421ED1E378042B03D09DF80B1038
:103EA000994217D12379042B10D16279022A1DD1AE
:103EB000174B18482A46492102F0EBFA6079831E15
:103EC000022BBED9BCE70028CED0B9E79DF802107E
:103ED0009942EAD00132032A04F10604CAD10E48FD
:103EE0002A46492102F0D5FA0120AAE7032A05D083
:103EF0000A4B0B49042A08BF0B46DAE7094BD8E7FF
:103F0000CC8D0000BD970000030103035298000010
:103F10009F970000089800002C980000A4970000CC
:103F2000B69700009A970000044B1B68584043085E
:103F30005B4240421843C017704700BF7C1B002003
:103F40008842F0B504D00025084F0438AA4200D1B9
:103F5000F0BD3E6850F8044F5E4024EA060451F874
:103F6000256001351E4034430460EFE77C1B0020D0
:103F70002DE9F04F8DB01D46189B8346B3F12A3FC3
:103F80008A46179F1A9E059240F08D8039461698F2
:103F900002F0D9FF012838BF0120470900F01F04B3
:103FA0004FF001097B01502B34BF4B4603230A938A
:103FB00009FA03F30B930A9B059805FA03F306EB42
:103FC0008303069303EB8503079303F094F94FEA09
:103FD0008508424600210890304602F0B9FB079B55
:103FE000C6F800900393089B3146CDE90153059B29
:103FF0003046199A009306EB08092B4603F08CF91A
:1040000051464246484602F098FB0223494609932E
:104010000B9B099A934248D142463146584602F0DA
:104020008CFB4FF00009CA46079B5A460393089B36
:104030005946CDE90153059B584600932B4603F0A2
:104040006BF9002C47D11F24013F169B0AF1010A8E
:1040500053F82730E34003F0010343EA49090A9B80
:10406000534503D0002CDFD1002FDDD1189BB3F1D5
:104070002A3F32D1424609FB0861069802F05DFBF7
:10408000079B59460393089B5846CDE90153059B6E
:10409000069A00932B4603F03FF9002CC1D1BFB91B
:1040A0000DB0BDE8F08F00247AE7079B01EB080A0A
:1040B0000393089B4A46CDE90153059B5046009364
:1040C0002B4603F029F9099B5146013309939FE7D9
:1040D000A146A246A8E7013CB7E731464FF0000AE7
:1040E0000A4B2A4618681B68584080EA090080EA93
:1040F0000A00FFF719FFC3430698FFF721FF099B4A
:104100000AF1010A53454144EAD1B9E77C1B00207A
:10411000054B01311B680132434022EA030208408B
:104120000243501E00B270477C1B00202DE9F04F67
:10413000834699B00F46184600211646039303F0B4
:104140005CFB002800F0898100240125774B304674
:104150001493039915ABCDE90B45CDE90D45CDE998
:104160000F45CDE91145139303F0D0FAA04228DAA8
:10417000BBF1000F05D1E7B90024204619B0BDE816
:10418000F08F2146584603F049FA04460028F2D041
:104190000BA803F090F90DA803F08DF90FA803F018
:1041A0008AF911A803F087F90C2115A800F038FB53
:1041B000E3E73146384603F0FCF904460028E7D12E
:1041C000DAE731460BA803F0F4F904460028DFD102
:1041D00003990DA803F0EDF904460028D8D1F18821
:1041E0000FA80231ADF83850ADF8305003F071F936
:1041F00004460028CCD101460FA803F00FFA04466C
:104200000028C5D1F18811A8023103F062F90446F3
:104210000028BDD10DA803F02DFA00F01F001F28C3
:1042200073D0C0F11F0319460BA8019303F048FA9D
:1042300004460028ACD101990DA803F041FA0446C8
:104240000028A5D1BDF83250BDF83A800DA8A5EBE5
:10425000080A4FEA4A19494603F032FA0446002890
:1042600096D14FEA8A0A0DA90BA803F07EFA00281E
:104270004DDA49460DA803F040FA0446002887D1DC
:1042800008F1FF3305939B0005F1FF3A069305F112
:10429000804508F18043023B013D9B00A5EB0805EA
:1042A0000893AB000293059B9A4541D8BBF1000FE0
:1042B0000DD058460FA903F07CF9002840F0C980C2
:1042C000039AB388928813FB02F3ABF80430002FF3
:1042D0003FF45EAF01990BA803F00FFA002840F0FD
:1042E000B880B3880BA93846ADF8303003F061F9D7
:1042F0000146002840F0AF80384603F07EFA0028DF
:104300007FF446AF0123BB8042E701949AE70F9AFE
:104310000BA952F80A300846013342F80A300DAAB8
:1043200003F050FB044600289DD031E70100030054
:104330000D9B069A04931344DDF82C900793049B7D
:104340004FEA8A089A5859F82A10A8F104030F9DD9
:104350000993029B91421D4476D2A8F104000023E8
:1043600059F80000FBF7EEFE002914BF4FF0FF33B1
:104370000346BAF1010F2B600EBF002309EB0803BF
:1043800053F8083C1593A8F1040359F80330169329
:1043900059F80830DDF8108017932B6801332B6033
:1043A000089B98442B680021013B2B6011A803F067
:1043B00035F900284DD1059B002B48D0D8F80020B6
:1043C000119B11A91A60079A084612685A602A6858
:1043D00003F0FCFA00283CD113A911A803F0C5F999
:1043E0000028DFDC2A680DA911A803F0EFFA80BBD2
:1043F000029B11A84FEAC308414603F061F940BB94
:104400000BA9084611AA03F0DDFA014618BB0BA858
:1044100003F0F3F9002812DA0DA911A803F0C9F886
:10442000B8B9414611A803F04BF990B90BA9084659
:1044300011AA03F0C4FA60B92B68013B2B60029B00
:104440000AF1FF3A043B2DE74FF0FF3391E7059A5D
:10445000B6E704469CE60C469AE66FF00B048CE641
:104460002DE9F74F90461F4A064615680F4645400E
:10447000ED43002B14BF9A468A4600240C9B04F19E
:1044800004094B4505D20C9B9C4220D303B0BDE8E8
:10449000F08F042208EB04010DEB020002F04DF94D
:1044A000019A0AEB040106EA020B04220DEB02005A
:1044B00002F043F9019A38192A4042EA0B020192AC
:1044C00004220DEB020102F038F94C46D6E718F849
:1044D00004301AF8042033402A4013433B5501347A
:1044E000D1E700BF7C1B0020082804D0092803481E
:1044F00018BF002070470248704700BF6498000052
:104500006798000001680E4A0346914215D1C169BF
:10451000A2F11022A2F1EF1291420ED18268012A7B
:104520000BD8C26812B101698A4206D0586928B115
:104530009B691B1A5842584170470120704700BFC1
:1045400055AA00FF70B50D4B9E68A6B13046FFF727
:10455000D9FF044678B9F3686BB935690DB92046BF
:1045600070BD2846FFF7CEFF28B9EB68B34202D1F1
:104570002E462D69F2E70124F1E700BF801B0020E1
:104580002DE9F8433F4F3C68D4B1BC68C4B1002862
:104590004AD0002948D001FB00F5B5FBF0F0884275
:1045A00042D1281D40D8A9070DD025F003060436B6
:1045B000FC6803E06368B34238D2A469002CF9D1E7
:1045C0002046BDE8F8832E46F2E7FB6041E006F1A5
:1045D00020016318203A5A600022C3E902242A48C5
:1045E00022691A6160502949D96102B1D3606269B8
:1045F0005A61A1699961AAB193619A6902B1536143
:104600004FF0010923610023C4E90169C4E90533BE
:104610003B69DB072ED5FFF795FF58B31C4B484687
:104620001B6826E0FB60E8E70024C9E7A3681BB12C
:10463000174B01201B689847626804F12008921B01
:10464000232AC4D80123A360D4E90523002ABCD0BF
:104650009361A3690BB162695A610023C4E9053310
:104660003B69DA0706D5FFF76DFF18B10120084B4B
:104670001B6898472A4600214046444602F068F8E5
:104680009EE700BF801B002055AA00FF669911EE2F
:104690003C00002070B50546002800F08880444E9C
:1046A0003368002B00F08380B268002A7FD08342F9
:1046B00003D872681344984203D33E4B01201B6811
:1046C0009847A5F120042046FFF71CFF18B1394B8D
:1046D00001201B68984755F8183C012B03D0354B37
:1046E00001201B689847002345F8183C55F8143CF6
:1046F0003BB39A682ABB55F81C2C02F120015A687A
:104700000A445A6055E905321A6155F8145C2B6960
:1047100003B1DD6020220021204602F019F828694B
:1047200010B18368002B2ED033699B073FD5FFF76C
:1047300009FF00283BD0BDE870401E4B01201B68DC
:10474000184755F8100C00282AD0836843BB4268EC
:10475000636813442033636003692361D4E905234C
:104760009AB9CBB9436963618269A261B3B19C61B3
:10477000A36903B15C61236903B1DC6020220021DD
:1047800001F0E6FFD0E72C46E1E79361A369002B37
:10479000E8D062695A61E5E7F360F7E7F460E7E7BC
:1047A000F36845F8083C03B15C61F460BCE770BD98
:1047B000801B00203C00002038B50C46142200214C
:1047C0000546134801F0C4FF1249134800F040F8B1
:1047D000232C1CD915F003031FBF043CE418C3F1BC
:1047E0000403ED1822460021284601F0B1FF084BD2
:1047F0000A49C3E90054203C9D606C609A681160CE
:104800009A68A1F11021A1F1EF11D161DA6038BDF0
:10481000801B0020954600008145000055AA00FF3E
:1048200010B50A46044619B1024B00211B6898478F
:1048300010BD00BF38000020014B1B68184700BFA7
:1048400044000020014B1B68184700BF40000020B7
:10485000024B1860024B0020196070474400002092
:1048600040000020F8B500F10806476804463046CD
:104870000D4602F003FF87424BD16368B3F5807F9A
:1048800047D80021304602F0B8FF002841DD002162
:10489000304602F0DFFEE0B345B9294604F11000CE
:1048A00002F0ABFF002834DD0020F8BD04F1200544
:1048B0000021284602F0A1FF00282ADD0021284619
:1048C00002F0C8FE28B304F128050021284602F0B2
:1048D00094FF00281DDD0021284602F0BBFEC0B178
:1048E000002104F1100002F088FF002811DD0021F2
:1048F00004F1300002F081FF00280ADD002104F1FC
:10490000380002F07AFF002803DD002104F14000A6
:10491000C6E70148C9E700BF80BFFFFF012938B5DE
:104920000546144601D0074838BD22B901230020AE
:10493000C5E91C34F8E71046FFF7D6FD0028F5D18D
:10494000F1E700BF00BFFFFF70B500210446FFF78D
:1049500089FF054610B10E4D284670BD04F10806CA
:10496000304602F087FE7F28F5D9103429462046CC
:1049700002F070FE0028EED0204602F07BFE0128F7
:10498000E9D93146204602F0F0FE0028E4DBE2E7F8
:1049900000BEFFFFF0B50C4685B000210546164667
:1049A000FFF760FF002839D102A802F07FFD214601
:1049B0006A6802A802F068FE044618B102A802F074
:1049C0007AFD0CE005F10804214602A802F0CDFEB4
:1049D000002807DB02A802F06EFD6FF00304A4F5C7
:1049E000854418E005F1480302A96F680846009362
:1049F00005F11002234603F039F904460028DDD101
:104A00003A46314602A802F055FE044602A802F0DA
:104A100052FD002CE3D1204605B0F0BD004CFAE772
:104A200080BFFFFF012903462DE9F04143D8234A07
:104A3000002918BF9046224A224F18BF964602F11D
:104A4000794202F5740202F5016218BF94461E4ACB
:104A50001E4818BF17461E4A1E4E18BF164602F1C2
:104A6000D14208BF804602F5C0121B4802F51E6203
:104A700008BF8646194D1A4818BF1546194A08BF7F
:104A80008446194C194818BF1446A2F11162A2F5C8
:104A90000C22A2F28E2218BF02460020C3E9128E19
:104AA000C3E91000C3E914C7C3E91665C3E9184296
:104AB0009966BDE8F0816FF07300FAE7D89E05C1F2
:104AC00007D57C363AF54FA539590EF767E6096ADE
:104AD000310BC0FF7F520E5185AE67BB8C68059BC2
:104AE00072F36E3CA78FF964ABD9831FA44FFABE53
:104AF0002DE9F04FCFB000F1640300F144070DF54C
:104B00008A7900934A463B46019153F8041F42F8C4
:104B1000041F00999942F8D104AD4FF000082C46CB
:104B2000DFF8F8A0B8F10F0F61D8019B042203EB66
:104B3000880103A801F001FE039803F037F9A8608B
:104B4000D4F818C1D4E947634FEAFC227340D4F883
:104B5000206182EABC1203EA0C0382EA7C627340A1
:104B60001344D4F824215AF8041B1344D4F81061D8
:104B70000B440344D4E9421E4FEA713041EA0E026D
:104B800080EAB100324001EA0E0B80EAB15042EAFD
:104B90000B020244D4F81401626018441344D4F8A0
:104BA000202108F10108C4F82421D4F81C21B8F10F
:104BB000400FC4E947C2C4E944E6C4E94231236076
:104BC000C4F8180105F10405ACD157F8043F59F8B1
:104BD000042F13443B60009BBB42F6D104A84FF462
:104BE0009471FFF71DFE00204FB0BDE8F08F2B68D9
:104BF00055F8382C4FEAF34080EA734080EA93205E
:104C000055F8143C55F8341C134418444FEAB1438A
:104C100083EAF11383EAD103184490E7D48D0000AE
:104C200008B5EFF31083012B0C4A07D1126ABFF3CA
:104C30004F8F511C4A424A41104608BD03F0A3F968
:104C400000B172B6126ABFF34F8F531C5A425A41D9
:104C500003F099F90028EFD062B6EDE70080FF007D
:104C600008B5EFF31083012B0B4A06D1D269BFF3CD
:104C70004F8F02F00102104608BD03F084F900B125
:104C800072B6D269BFF34F8F02F0010203F07BF9D5
:104C90000028F0D062B6EEE70080FF0010B503F008
:104CA00072F930B14FF050230022C3F81421C3F839
:104CB000182103F077F928B101224D4BC3F8382AA7
:104CC000C3F878254FF47F02D2F83031D2F834217E
:104CD000BFF34F8FC3F30B03092B05D1012A1EBF6E
:104CE0000122434BC3F8782503F05CF918B10E227A
:104CF000404BC3F8E42E03F046F930B100223C4BA0
:104D0000C3F80C270122C3F810270022D30003F5B3
:104D10007F03D3F80013BFF34F8F013108D0D3F8CE
:104D200000130132D3F80433B2F5807F0B60EDD16C
:104D3000EFF31084FFF794FF00284DD0BFF34F8F9F
:104D40002D4BD3F80024012AFBD1C3F80425D3F856
:104D50000024012AFBD1012C03D003F014F900B187
:104D600072B6FFF77DFF58B1244AD36923F00103DF
:104D7000D361BFF34F8F204AD2F80034012BFBD10F
:104D8000FFF74EFF68B11D4A136A23F0FF0343F09B
:104D900020031362BFF34F8F174AD2F80034012B60
:104DA000FBD1012C03D003F0EEF800B162B6002273
:104DB000114BC3F80425D3F80024012AFBD1BFF31B
:104DC0004F8F0F490F4BCA6802F4E0621343CB6068
:104DD000BFF34F8F00BFFDE7FFF722FF0028ADD1E3
:104DE000074AD2F88C3043F44063C2F88C3010BDCF
:104DF0000040005000A00350009003500080FF00CE
:104E000000ED00E00400FA0530B50468ACB1B4FA76
:104E100084F30122C3F11F03DBB29A4024EA0202A9
:104E2000D0E8EF5FA54204D1C0E8EC2FBCF1000F41
:104E3000F6D1EAD102480B7030BD0248FCE700BF52
:104E40000000AD0B0200AD0B10B50368CB40DB07D3
:104E500010D401238B40026843EA0201D0E8EF4FEF
:104E6000944204D1C0E8EC1FBCF1000FF6D1F2D19E
:104E7000014810BD0148FCE70000AD0B0400AD0B7C
:104E8000014BC3F80405704700700150044B1A79B8
:104E900022B9012218601A7102487047024870470F
:104EA000941B00200000AD0B0C00AD0B08B5084BA7
:104EB0001B6833B10520FDF7BBFF10B90520FDF7D6
:104EC00095FF4FF050230122C3F8182508BD00BFFD
:104ED000941B002010B510B1012847D010BD4FF031
:104EE0005023D3F81814D3F81824C90322D502F09C
:104EF0000303022B05D0012B02D0002003F070F831
:104F000001234FF050220220C2F8183508224FF436
:104F10008273002103F1502319601C68012402F1FF
:104F200050221460164A126822B34FF05023C3F87F
:104F30000403D3E7D3F81424D207E1D5D3F81C2413
:104F400002F00302013A012AD7D80D4A12681AB1B9
:104F50000222C3F80423C1E7D3F80421002AFBD0BE
:104F60000022C3F80421D3F80431B7E700224FF43C
:104F70008073CEE71A68002AFCD019601B68ADE781
:104F8000941B00204FF0502310B5D3F8002152B1EC
:104F90000020C3F80001D3F800210122C3F8082340
:104FA000104B1B6898474FF05023D3F8042182B16F
:104FB0000022C3F80421D3F80421D3F81824D3F82D
:104FC0001824022102F00302012A03D1C3F81815A4
:104FD0009A6010BDC3F80813024B0120BDE81040D1
:104FE0001B681847941B002001460148FFF70CBFBF
:104FF00048000020036803F01F025B0902600248BA
:1050000018BF0020704700BF0025845070B50D4CBC
:1050100000F1080334F813300546DA050E4607D5CB
:10502000C3F3432304EBC302526854F83330984768
:10503000A3682BB131462846E268BDE870401847A6
:1050400070BD00BF4C000020024611F0010004D0EA
:1050500003490B6A13600B6203B90020704700BF5D
:105060000025845010B4124AC0B2083032F8103013
:10507000D9051BD5C3F3432123F4F85322F810308C
:10508000002002F10E0434F8023F13F4807F03D0B5
:10509000C3F34323994209D001302028F3D10023E0
:1050A00042F83130034810BCFFF7CEBE10BC704749
:1050B0004C000020A4000020F0B505460020012689
:1050C000044607468C420BD1114BD3F87C2132B1F8
:1050D0000022C3F87C21D3F87C3140F00040F0BDC1
:1050E000E3B29B0003F580729B0806FA03F31D42AE
:1050F0000BD002F1A04202F55042D2F800C0BCF140
:10510000000F02D01760126818430134DAE700BFBD
:1051100000D00050CBB2024608460D49083331F8A2
:105120001330990611D599070FD4012110685B0B34
:105130009940C0F80813126802EB8303D3F81025D6
:1051400022F00302C3F810257047002102F0ECBFE3
:105150004C000020F7B5194ECDB2083536F81530A1
:105160000746DB070C4626D5FFF7D4FF36F8153087
:105170009A0608D55A0B3B6803EB82030022C3F85A
:105180001025C3F810252046FFF76CFF002301A867
:1051900026F815300194FFF72DFF019B00EB8300EB
:1051A000D0F80022064B134043F00203C0F800324F
:1051B000044803B0F0BD0448FBE700BF4C000020EA
:1051C000F0F8FCFF0000AD0B0400AD0B2DE9FF4132
:1051D000136807460C461646FBB1DFF83C81CDB29A
:1051E000083538F8152002F02202222A22D00022A7
:1051F0002046CDE900228DF80E208DF80F200DF10C
:105200000E010DF10F0202F046FF38F8153023F0C1
:10521000020343F0010328F8153073684BB31A7882
:105220005868DFF8F4C0E3B208333CF813108D0778
:1052300002D5B0B139481FE021F02001C904C90CE2
:105240002CF8131068B1032AF4D870683D684068E0
:1052500090F800E005EB8E058AB9C5F81025C5F871
:1052600010253CF8131021F01C0141EA82022CF8B1
:105270001320B3682BBB2A4804B0BDE8F081D5F8F1
:10528000108541EA4E3128F00308C5F810853D68C5
:1052900041F0200105EB8E05D5F810052CF8131010
:1052A00020F4473020F44070C5F810052002D5F8EE
:1052B000107500F4F85040EA02403843C5F8100574
:1052C000CFE72046D3E90067FFF7CCFE002ED2D00F
:1052D000114DD5E90023964203D19F4201D100220E
:1052E00009E010480DF10F01FFF78EFD0C4B9842BD
:1052F000C2D19DF80F20E4B205EBC20308345F6011
:1053000035F8143045F8326043EA422343F48073A1
:1053100025F81430AFE700BF4C0000200400AD0BAF
:105320000000AD0BA40000202DE9FF4107460C460C
:105330001E4612B3DFF8D480CDB2083538F81530E8
:10534000980701D4990621D413F01C0F02D053788A
:10535000012B1BD001238DF80F3000232046CDE90F
:1053600000230DF10F01931C013202F094FE38F876
:10537000153043F0030328F81530002E44D0234D98
:10538000E1B2083135F81120930703D4204804B066
:10539000BDE8F081002096F800E03B6822F0200292
:1053A000D20403EB8E03D20CC3F8100525F81120AC
:1053B000C3F8100596F801C04FEA8E08BCF1000F43
:1053C00022D03868B6784044D0F810354FEA0C4CFB
:1053D00023F4981323F4F853C0F81035230203F490
:1053E000F8530CF4403C3605D0F8107543EA0C0332
:1053F00006F48016334342EA4E323B4342F0200229
:10540000C0F8103525F811200248C0E74C000020F4
:105410000400AD0B0000AD0B014BC3E90212704755
:105420004C000020054BC9B2083133F81130990601
:1054300043BF5B0B02481370024870474C000020CA
:105440000000AD0B0400AD0B70B5154D064695F888
:1054500060401CBB2146402205F1100001F078F9A4
:10546000214630682E6D8E420ED10023C0F87C316B
:10547000D0F87C3140F30730FDF7B8FC0123094830
:1054800085F86030AB6570BDCBB29B0003F58072D0
:105490007C2B04BF845083580131E4E70248F2E7D3
:1054A0004C0000200000AD0B0C00AD0B034B93F83B
:1054B0006000003818BF0120704700BF4C0000207A
:1054C0000148FFF7C1BC00BFA00000200148FFF762
:1054D0009BBC00BFA000002073B503680C46D3F846
:1054E00004130029A4BF4FF00041C3F804131E4960
:1054F000E3B2083331F8133099061AD513F00206D7
:1055000017D15B0B05689C0004F580716E506958DB
:1055100001682144D1F8104544F00104C1F8104558
:105520002AB10122016802FA03F3C1F8043302B080
:1055300070BDC3F38203042B11D0052B11D001A839
:105540000194FFF757FD019A0369D34003F001036B
:10555000991C204602B0BDE8704002F0E5BD032171
:10556000F7E70221F5E700BF4C0000202DE9F347E3
:10557000534B544FD3F80403396DC0B240F0004090
:10558000FFF79AFD051E18DA00236846F96D0093AF
:105590004FF00108FFF758FD97F85C30DA0757D451
:1055A000396D4FF00040FFF787FD6846F96DFFF752
:1055B0004BFD0028F0D125F000450124002D66D1D7
:1055C00002B0BDE8F08794FAA4F4B4FA84F4E008D9
:1055D00004F1080337F8139004F007021DF80030B7
:1055E00008FA02F223EA02030DF8003001A8019440
:1055F000FFF700FD019B4FEA9901803350F82360CB
:10560000C9F3820A4B07D146C6F3014624D520468A
:105610005146FFF7FBFC01A80194FFF7EBFC019B4F
:10562000F6B2803350F82330C3F301439E4207D1D2
:105630000021204602F078FD3146204602F074FD3C
:1056400001A80194FFF7D6FC019B08FA03F303625B
:10565000009C002CB7D1A3E7022E0CD103212046D9
:1056600002F062FD0AF00503012BE9D1494620460C
:10567000FFF7CCFCE4E70221204602F055FDBAF129
:10568000030FF3D0032EDBD1BAF1020FEDE795FA49
:10569000A5F3B3FA83F304FA03F29B0003F1A043EA
:1056A00003F55043D3F81005D3F81015C0F30420C8
:1056B000C1F3014125EA0205FFF7A8FC7EE700BF20
:1056C00000D000504C0000200022034BC3F884257A
:1056D000C3F80425704700BF00900350044AD2F875
:1056E0000834DB07FBD50160BFF35F8F704700BF55
:1056F0000090035008B5C0F30B0383B90222094B95
:10570000C3F88425C3F804254FF0FF320260D3F8B4
:105710000024D207FBD5FFF7D7FF034808BD034895
:10572000FCE700BF009003500000AD0B0A00AD0B7A
:10573000012208B5054BC3F88425C3F80425FFF7FB
:10574000CDFFBDE80840FFF7BFBF00BF009003508A
:1057500070B516461D465A1C036804461344C268B9
:105760009A4205D20821006A02F0A3FF002070BD12
:1057700032783DB1AB1E062B8EBF00230B4AD35CA3
:105780001833DAB2204602F097FF0028EED03544F5
:10579000B54203D1A3680133A360E8E723685A1C2C
:1057A000226015F8012D1A70F2E700BF6A98000018
:1057B00038B5094B53F82040013053F82050A5422A
:1057C00000D838BD636823B1204603F05BF8083485
:1057D000F5E723689847FAE7D48E0000012208B560
:1057E000094B03201A70FFF7E3FFFCF76BFC03F093
:1057F00065F80420FFF7DCFFFAF70CFE034A137B81
:1058000023F00103137308BD5F3D00204001002019
:1058100008B50348034A0021121A03F04BF808BDEB
:1058200020010020603D002008B50020FFF7C0FFE8
:10583000164B03F5006282F3088883F30A8800257B
:10584000E023134C84F82230E57725766576A5763B
:1058500084F82050636A43F4E023636284F82350A1
:10586000FDF736FAFDF744FB4FF0FF33A362E36226
:1058700002F0E2FF0120FFF79BFF0220FFF798FFF5
:105880002B462A4629460348FDF712FB603D0020BF
:1058900000ED00E0DD57000008B50648064A07495C
:1058A000121A03F009F8BDE80840054A0549064800
:1058B00003F002B8000000202001002074980000CE
:1058C000000000007498000000000020034B1B68DB
:1058D0000BB9FEF711BA0020704700BF9C1B0020D7
:1058E00030B570B10B4B5B6898420AD0036843B186
:1058F000D3E90421D0E90445121941EB0501C3E9BC
:105900000421D0E9003213605A600023C0E900335B
:1059100030BD00BFB000002010B50E4B1C689C428B
:1059200004D1FFF7D3FF6FF0004010BDFFF7CEFFAB
:10593000002CF8D0D4E904321B1A62EBE072B3F108
:10594000004F72F10001EEDA002AACBF18460020C9
:10595000EBE700BFB00000202DE9F84FEFF3118C0A
:10596000202383F31288BFF36F8FDFF8ACA0DFF83A
:10597000AC900024C9F80000DAF80000002550457A
:1059800008BF0020264FE046D7E90021D9F80030B3
:1059900078B3D0E9046C4FEAE37EB3427EEB0C0BA4
:1059A00005DAF61A6CEB0E04C0E9046421E0B218C3
:1059B00041EBE671C0E90445C7E90021FFF790FF1C
:1059C00088F31188BFF36F8F83689847EFF31188CE
:1059D000202383F31288BFF36F8FD9F80030DAF8F1
:1059E00000009B1B5045C446C9F80030CBD1D7E915
:1059F000002100249A1841EBE373C7E90023C9F89A
:105A00000040FFF789FF2146FEF748F988F3118827
:105A1000BFF36F8FBDE8F88FB00000209C1B002003
:105A2000C001002010B50A4C23681BB1012323607C
:105A3000002010BD00F046F80028F7D001380628F5
:105A400003D8044B53F8200010BD034810BD00BF1D
:105A5000A01B0020EC8E0000FE8FFFFFBFF34F8FD6
:105A60000549064BCA6802F4E0621343CB60BFF3FA
:105A70004F8F00BFFDE700BF00ED00E00400FA0516
:105A800030B44FF0FE320025074B084C08494968F6
:105A9000C3F80024C3F80424C3F80824C3F80C2472
:105AA000C4F8005530BC08470010845000008450F2
:105AB000B8000020024BD0E90012C3E90012704781
:105AC000B800002038B500F02FF820B1032400F012
:105AD00063F8204638BD00F031F898B900F0ACF812
